:020000040000fa
:10000000f07f0020790300002f050000310500007b
:1000100000000000000000000000000000000000e0
:1000200000000000000000000000000017050000b4
:100030000000000000000000170500001705000088
:10004000170500001705000017050000d901000082
:100050001705000017050000170500001705000030
:100060001705000017050000170500001705000020
:100070001705000017050000170500001705000010
:100080001705000017050000170500001705000000
:1000900017050000170500001705000017050000f0
:1000a00017050000170500001705000017050000e0
:0c00b000170500001705000017050000f0
:020000040000fa
:1000bc00f8b5c046f8bc08bc9e4670475903000012
:1000cc00f8b5c046f8bc08bc9e467047310300002a
:020000040000fa
:1000dc0010b51e4a137801210b4313701100012235
:1000ec004b681a42fcd119490b781022102003439b
:1000fc000b700023cb6101330b621b020b61144ba1
:10010c001a819a821a849a851a8744201a520c30c2
:10011c001a520c301a520c3008241c520c301a5241
:10012c000c301a520c301a520c301a520c301a5223
:10013c000c301a520c301a520b78022213430b70eb
:10014c0002224b681a42fcd110bdc0460028004068
:04015c00000000207f
:020000040000fa
:10016000184b5a6852031b68db0c13439b029b0a13
:10017000154a936300235375110004228b691a42b8
:10018000fcd111491022cb681a42fcd00e4a137dd3
:1001900080210b4313750d4b00229a611a610c4ba1
:1001a0000c4a1a62190004224b681a42fcd1084a10
:1001b00088234021d15010004831402243581a4230
:1001c000fcd0704720608000001000400014004008
:0801d000001c004006010100c3
:020000040000fa
:1001d800f8b50024144d154e03e077610134102c56
:1001e80020d063001b199b00eb181b89dbb2e1b21e
:1001f8008b42f3d173690127a7401f42eed06300f9
:100208001b199b0008495b58002be6d008006300c7
:1002180019198900411849681b199b001b580800c7
:100228009847dae7f8bdc0460000002000280040e3
:020000040000fa
:1002380000230e4a10b513600d4a13600d4a13606f
:100248000d4a13600d4a13600d4a5362136101335e
:10025800936000f06af900f068f90a4c0a4b9c4276
:1002680000d310bd08cc9847f8e7c04630010020fd
:10027800cc000020c8000020c0000020c4000020de
:0c028800d0000020c8000000cc000000e6
:020000040000fa
:10029400100100201c0000000000000000000020ed
:1002a400c0000000000000002c0100200400000039
:1002b40000000000c000002050000000000000000a
:1002c40030010020040000000000000000000000d5
:1002d4000000000066666666666666666666666652
:020000040000fa
:1002e40010b50e4b0e4a934207d30e4801680029fd
:1002f40007d14368002b04d110bd002119700133cc
:10030400f1e704008368084a9bb20c349b009b58b5
:1003140042682000984780002018e7e7000000208a
:0c0324000000002094020000e004000033
:020000040000fa
:1003300010b5064c2378002b07d1054b002b02d0bb
:10034000044800e000bf0123237010bd100100200d
:100350000000000000000000044b10b5002b03d08b
:100360000349044800e000bf10bdc0460000000083
:08037000140100200000000050
:020000040000fa
:1003780010b50a4b98470a4b9847fff7afff094b50
:10038800ff229343084a9360084b9847084b9847c5
:10039800084b984700f094f8fee7c046c7040000f1
:1003a800c70400000000000000ed00e03902000072
:0803b800c7040000c7040000a7
:020000040000fa
:1003c0000f4b01221a8019000b691a42fcd10c4b09
:1003d0000c4a1a801900802212020b691342fcd1c8
:1003e000074b802292001a621900e13aff3a0b692a
:1003f0001a42fcd1024b802252005a607047c0461c
:08040000002400408081ffff91
:020000040000fa
:1004080010b5094b06225a6000f024f8fff7a4fe45
:1004180000f07ef800f086f8fff75cfefff7ccffef
:0c04280000f02cf810bdc0460040004160
:020000040000fa
:1004340030b543001b189b00064ce3181b899bb284
:10044400834200d030bd43001d18ad00295160190e
:080454004260f7e70000002000
:020000040000fa
:10045c008223db05802212021a60064a1a610022ee
:10046c004f215a540d310520585425395a5407310f
:08047c005a5470470080001083
:020000040000fa
:10048400bff35f8f62b6064ac020800013581b0278
:100494001b0ac02109060b4313500823136070473d
:0404a40000e100e093
:020000040000fa
:1004a800002310b5934206d103201840421e904104
:0e04b8009b08c01810bdc45ccc540133f2e7a1
:020000040000fa
:0204c60070477d
:020000040000fa
:1004c80010b50020fff79cff002202490820fff723
:0804d800adfffee7070500007f
:020000040000fa
:1004e000f5040000a904000029050000290500000a
:0404f00029050000da
:020000040000fa
:1004f4008a18914201d10020704700230b7001310a
:02050400f7e717
:020000040000fa
:1005060010b5802182200902c00500f008f810bd50
:020000040000fa
:02051600fee7fe
:020000040000fa
:0c051800014b84225a60704700400041f3
:020000040000fa
:04052400c1617047fa
:020000040000fa
:0405280000207047f8
:020000040000fa
:02052c00704716
:020000040000fa
:02052e00fee7e6
:020000040000fa
:02053000fee7e4
:020000040000fa
:02053200704710
:020000040000fa
:0200000400807a
:04400000770800003d
:020000040000fa
:0200000400807a
:044004000000ffffba
:00000001FF
