S01600004576656E7453797374656D2831292E7372656305
S113000018210020350100003101000031010000F9
S113001000000000000000000000000000000000DC
S1130020000000000000000000000000310100009A
S11300300000000000000000310100003101000058
S11300403101000031010000310100007D10000089
S113005031010000310100003101000031010000D4
S113006031010000310100003101000031010000C4
S113007031010000310100003101000031010000B4
S113008031010000310100003101000031010000A4
S11300903101000031010000310100003101000094
S11300A0310100000D0E000031010000310100009B
S11300B031010000310100003101000010B5064C8F
S11300C02378002B07D1054B002B02D0044800E015
S11300D000BF0123237010BD680000200000000051
S11300E098270000084B10B5002B03D00749084897
S11300F000E000BF07480368002B00D110BD064B89
S1130100002BFBD09847F9E7000000006C000020AA
S113011098270000982700000000000010B5024B4B
S11301209847024B984710BD9D030000A914000096
S1130130FEE7000010B5104A104B9A4209D00F4B4D
S11301400D4A03E011681960043304320C498B42F0
S1130150F8D30C4B02E000221A6004330A4A93429B
S1130160F9D30A4AFF210A4B8B439360094B984702
S1130170094B9847FEE7C04698270000000000207E
S113018068000020680000201401002000ED00E059
S1130190000000001D1500003D130000F0B585B0FF
S11301A0294AD16980239B020B43D36141218223D5
S11301B05B00264AD150264B9847264D264E029086
S11301C0264B01930124009400232A002449300083
S11301D0244FB8472A1D102300213000224DA84780
S11301E0C023DB059C468022920084236146CA50CA
S11301F08223DB05593AFF3A1C499950C02109066C
S11302009950C9201A5CA24301273A43D2B21A5426
S1130210B422985C0F26304010252843C0B298546D
S1130220AC3A60464260124A9A6299624322995CEF
S1130230A1433943C9B2995431215A5C32402A430B
S1130240D2B25A5405B0F0BD00080040001C004072
S1130250210E000084000020C8000020F4000020CB
S11302600044004241040000F50400000002004084
S11302700800004070B541218823144AD150144A23
S113028051698023DB000B435361C020C0058024E7
S1130290640544608223DB050E4A9A620E4A9A6220
S11302A044605C215A5C04252A43D2B25A548461C6
S11302B05A5C012082430243D2B25A541E395A5C1A
S11302C00F2082435A54054B984770BD001C0040D0
S11302D00008004000000240001002C0AD0700000A
S11302E030B58223DB05CA22995C0125A943012488
S11302F02143C9B29954B520195CBB3A91430322F6
S11303001143C9B21954CB215A5CAA432243D2B235
S11303105A541A5CBC390A4030210A43D2B21A54E6
S113032030BD0000064B4021DC2299500131143AC3
S11303309950044AD36921390B43D3617047C046AD
S1130340001C00400008004010B5054B98470022EF
S113035004490548054B9847054B984710BDC046CE
S11303602503000000140042BC00002031090000F5
S1130370E102000010B540219823054AD150054AF6
S1130380D3693F390B43D361034B984710BDC04633
S1130390001C0040000800405D07000010B5054B3C
S11303A09847054B9847054B9847054B9847054B8D
S11303B0984710BD250E00009D0100007502000045
S11303C0490300007503000010B58369002B00D0B9
S11303D0984710BD10B5C369002B00D0984710BDD5
S11303E0F0B583B005000E001100036A9A5D530056
S11303F09B18DC00836A9C466444271D01916B466C
S1130400197938000C4B984728000C4B9847012861
S113041007D9019B190A3800074B9847A38A01336F
S1130420A382A38A0133A3822368002B02D0310064
S11304302800984703B0F0BD490A0000B90D000038
S1130440F0B5D64600B582B00500019116001C0037
S113045008AB1F7800280CD000290CD0002A0CD03F
S1130460002F0CD0099B002B01D0012008E00020B4
S113047006E0002004E0002002E0002000E000206C
S11304803F221649164B9A469847621CFB0FD01719
S1130490BA425841C0B240221049D047002303E079
S11304A0FF22F2540133DBB2A342F9D92E62242392
S11304B0EC540133EF54099BAB6201992800094BBA
S11304C09847002805D1084BAB60084B2B60084BBC
S11304D06B6002B004BC9246F0BDC04658250000D3
S11304E0A9090000010D0000E1030000C903000098
S11304F0D5030000F0B583B007000C00009201930F
S1130500002819D0002A19D0002B19D10020244E1C
S113051066223100234DA8472423FB5C0020A3421C
S11305204041C0B267223100A847396A0B5DFF2BF6
S11305302CD10026002307E00020E8E70020E6E7AE
S11305400120E4E70133DBB22422BA5C934205D8EC
S1130550CA5CFF2AF6D00136F6B2F3E72523FB5C2A
S11305609E4216D873009B19DD00BB6A58190430EB
S1130570019A00990C4B984700280DD13B6A1E55EF
S1130580BB6A5B1900229A8203B0F0BD0D20404281
S1130590FAE71C204042F7E70D204042F4E7C0464A
S11305A058250000A9090000B1090000F8B50600AB
S11305B00C000B4D431E9841C0B283222900094F01
S11305C0B8472423F35C0020A3424041C0B28422F4
S11305D02900B84721003000034B98470020F8BD9C
S11305E058250000A9090000A50D0000F0B5CE466D
S11305F000B504000D0017001E00431E9841C0B250
S11306009C221649164B994698472423E35C002004
S1130610AB424041C0B29D221049C847236A5B5D8A
S1130620012F17D0002F04D0022F15D00D204042E7
S11306300DE05A00D318DA00A36A9E50731E9E413F
S1130640F3B23A0029002000064CA047002004BC65
S11306509146F0BDA661F1E7E661EFE75825000099
S1130660A9090000CF0D0000F0B5CE46474680B57D
S113067083B005000C0090461E00002834D0002AE8
S113068034D0002E34D10020BC222549254FB84750
S11306902423EB5C0020A3424041C0B2BD22204988
S11306A0B8472800204B9847010030001F4B98475B
S11306B048424841C0B2BF221949B8472B6A1A5D63
S11306C0A96A53009B18DA008946914401A8184B83
S11306D098474B461D1D2800164B9847070001A854
S11306E0154B984700240BE00020CDE70020CBE712
S11306F00120C9E70134A4B2414428000F4B9847B4
S11307002100A74201D9B442F4D34B469B8A1B1B58
S11307104A469382200003B00CBC90469946F0BD33
S113072058250000A9090000B90D0000A90E000019
S113073041070000890A00004F070000FD0900007E
S1130740EFF31083036072B6BFF35F8F7047BFF39C
S11307505F8F036883F310887047000010B5014B66
S1130760984710BD8910000070B50125002407E0EA
S11307700D4AB358002B00D0984770BD013AD5B24A
S1130780AC42FAD82B195B10DAB2002AF5D1FF215A
S11307900B40DE000449891949688142E8D0EDD252
S11307A00132D4B2ECE7C0469800002010B5002313
S11307B0002B03D00748084B984710BD074AD900BF
S11307C050180124644244600020885001339BB2D5
S11307D0EEE7C04669070000D10F00009800002032
S11307E070B504000D00160000280ED000290AD0B0
S11307F0012034220649074B984723683200290018
S11308002000984770BD0020F3E70020F1E7C046C0
S113081074250000A909000070B504000D0016003D
S113082000280ED000290AD001203D220649074B9A
S113083098476368320029002000984770BD002063
S1130840F3E70020F1E7C04674250000A909000081
S1130850F8B505000E001700002823D0002923D086
S1130860002A23D10020F1221149124B98472C0071
S113087008342000104B98470028F8D00025715DFB
S113088020000E4B984720000B4B98470028FAD0C5
S11308900135BD42F3D32000094B98470028FAD014
S11308A02800F8BD0020DEE70020DCE70120DAE7BD
S11308B088250000A90900000F130000FF120000A2
S11308C019130000F8B5CE46474680B5051E884684
S11308D091461FD000291FD0002A1FD10020862254
S11308E052000F490F4B984700262C000834200073
S11308F00D4B98470028F8D043469F1920000B4B16
S11309009847387001364E45EFD330000CBC904602
S11309109946F8BD0020E2E70020E0E70120DEE789
S113092088250000A9090000251300000713000012
S113093070B504000D00002814D0002910D0012047
S113094034220949094B9847200008302900084BF4
S11309509847002803D1074B6360074B236070BDA1
S11309600020EDE70020EBE788250000A90900003E
S1130970C1120000C50800005108000010B50400B1
S1130980431E9841C0B253220449054B98472000A6
S11309900830044B9847002010BDC046882500004D
S11309A0A9090000ED120000002800D100BE704724
S11309B070B504000E001500002812D0002912D0D2
S11309C0002A12D1002028220A490B4B98476B1E9B
S11309D02B420CD163600023A360E36026600020F7
S11309E070BD0020EFE70020EDE70120EBE70D20CC
S11309F04042F5E7A4250000A909000070B50400F1
S1130A000D00002816D0002912D0012040220C49E4
S1130A100C4B9847A368E2689A420DD06268134071
S1130A202268D35C2B70A3680133A360002070BDDF
S1130A300020EBE70020E9E70A204042F7E7C04640
S1130A40A4250000A909000070B504000D00431E90
S1130A509841C0B251220A490A4B98476368E26838
S1130A6013402268D554E368A2689A1A61688A42DE
S1130A7001D9591AA1600133E360002070BDC0465A
S1130A80A4250000A909000010B50400431E9841E4
S1130A90C0B267220349044B9847E068A368C01AB0
S1130AA010BDC046A4250000A90900000300064AA1
S1130AB01268002A04D0044A1068C31813607047EF
S1130AC00249014A1160F6E7A00000201821002025
S1130AD001204042704780239B014B6000207047F7
S1130AE00120704700207047024B9C466044800AF6
S1130AF0C0B2704700BCFFBD10B54069024B9847B7
S1130B001930C0B210BDC046E90A0000034B984238
S1130B1000D07047024B1960FBE7C0460044004216
S1130B20A400002030B5524B984200D188E0514BCC
S1130B30984200D18FE00022038CDB0714D4038C8D
S1130B409B07FCD103789B0709D503780224A343B0
S1130B500370038C9B07FCD1038C9B07FCD40123FB
S1130B600370038C9B07FCD1038CDB07FCD48285C8
S1130B70CA00521A9400404B1B199A784270DA78D2
S1130B8082701A79C270DB880381038C5B05FCD107
S1130B90CB005B1A9A00384B9B181B894381038C4A
S1130BA05B05FCD1CB005B1A9A00334B9B189B7AF4
S1130BB00373038C5B05FCD1CB005B1A9A002E4BAC
S1130BC09B18DB7A4373038C5B05FCD1CB005B1A67
S1130BD09A00294B9B189B89C381038C5B06FCD428
S1130BE0CB005B1A9A00244B9B18DB890382038C8D
S1130BF01B06FCD4CB005B1A9A001F4B9B181B8A64
S1130C004382038CDB05FCD4CB005B1A9A001A4B9D
S1130C109B185B8A8382038C9B05FCD4164ACB0009
S1130C205D1AAC0025001419247D04770024846225
S1130C30521953780370038C9B07FCD1002030BDFC
S1130C400E4B1B681A02E024E4001440DB08072260
S1130C501A40224370E7094B1B689A091202E024E8
S1130C60E40022405B0A072423401A4364E7C04699
S1130C700044004200480042C82500002060800073
S1130C8010B54269917953790B40D90704D4990777
S1130C900AD45B070ED410BD012393718368928C30
S1130CA092B200219847F6E702239371436800212A
S1130CB09847F0E704239371036800219847EAE713
S1130CC010B50B4B984702000020002806D08F2255
S1130CD008490020084B9847002010BDC3001B1A88
S1130CE09900064BCB5C9A42F7D00130C0B2ECE7D6
S1130CF0E90A0000E4250000A9090000C825000055
S1130D0070B504000D00431E9841C0B2F0221E4984
S1130D101E4B984728001E4B9847010028001D4B86
S1130D209847061E01D0300070BD6561210028007F
S1130D30194B98472000194B984703060AD41F23E0
S1130D4018401E3B8340802215498B50BFF34F8FC0
S1130D50BFF36F8F2000114B9847030607D41F235E
S1130D6018401E3B8340C02252000D498B50200086
S1130D700A4B98470306D6D41F2318401E3B8340D2
S1130D80074A1360CFE7C046E4250000A909000024
S1130D90C10C0000250B00000D0B0000F90A000037
S1130DA000E100E04269137802210B43DBB21370C7
S1130DB0138C9B07FCD1704743695A89120903239A
S1130DC01340032B01D0022070470120FCE7416946
S1130DD0012A08D0022A0ED0002A03D1002B12D0F7
S1130DE001234B717047002B02D104330B71F9E7D7
S1130DF004234B71F6E7002B02D102330B71F1E7A8
S1130E0002234B71EEE701330B71EBE710B5024B94
S1130E101868024B984710BDA4000020810C000004
S1130E200020704710B5084B5A685A60074B984722
S1130E30074B9847074B9847074B9847FF20074BAA
S1130E409847074B984710BD00400041211100000E
S1130E503D1100001511000079110000D9100000A7
S1130E60650E00009022D205137802218B43137083
S1130E70704710B582B0EFF31083019372B69023DC
S1130E80DB051A780124A2431A709860D960902374
S1130E90DB051B79DB07FAD49023DB051869019B7A
S1130EA083F3108802B010BD10B582B0EFF3108345
S1130EB0019372B69023DB051A78012422431A7039
S1130EC09860D9609023DB051B79DB07FAD4044BC7
S1130ED018685968019B83F3108802B010BDC0469E
S1130EE01000004810B582B0EFF31083019372B67E
S1130EF09023DB051A780124A2431A709860D96004
S1130F009023DB051B79DB07FAD4044B1868596876
S1130F10019B83F3108802B010BDC0461000004846
S1130F2070B582B0244B5A690192019A5A61234BDD
S1130F301868431E9841C0B2DA222149214B9847D0
S1130F4001256D422CE00139CEB2B0420ED83218E0
S1130F505210D1B2FF231340DB001B4A9B5CA34217
S1130F6003D0F0DA0131C8B2EFE71C256B1C03D0C3
S1130F70124B1B68280098470122A240019B93430F
S1130F8001930198114B9847013844B2631C02D075
S1130F9001260020D9E7084B5A690192019A5A6147
S1130FA0019B002B05D00198084B9847013844B2A7
S1130FB0ECE702B070BDC04600280040A800002045
S1130FC004260000A9090000FC250000C914000043
S1130FD0274B5B68DB071BD4254B5B689B07FBD166
S1130FE0234B1B789B070CD5214A137802218B4392
S1130FF013701F4B5B689B07FBD11D4B5B689B0702
S1131000FBD401221A4B1A70194B5B689B07FBD166
S1131010174B5B68DB07FBD4154A137810218B430D
S11310201370134B5B689B07FBD1114B00225A7062
S11310308021490099609A61DA6102321A621A7851
S113104002210A43D2B21A70094B5B689B07FBD199
S1131050084B082280215A50BFF34F8FBFF36F8F84
S11310600131FF315A501A60034B18600020704759
S11310700028004000E100E0A800002010B5014B6A
S1131080984710BD210F0000002309E0114AD05CED
S11310901A00203292008421C90550500133DBB27A
S11310A02E2BF3D900230BE059000A4A5218108E54
S11310B01A00083292008421C90550500133DBB272
S11310C00B2BF1D98423DB0500225A61013A1A6102
S11310D0002070471C260000C30707D5094A0A4BA5
S11310E01A62094B5A68094B1A42FAD1830707D589
S11310F0074A054B5A62044B5A68044B1A42FAD108
S11311007047C04606010100001C0040FD070000B6
S1131110060108000122014B1A71704700080040C3
S1131120054AD3691B0A1B02F82149010B40D3610C
S1131130002313617047C046001400400D4B022287
S11311401A7503325A750B4B9B695B07FBD4094B29
S11311509B695B07FBD40722064B9A75054BDB683A
S1131160DB06FBD5034A137D802149420B43DBB2E6
S1131170137570470010004070470000024B9C46F6
S11311806044800AC0B2704700FCFFBD10B50B4B31
S1131190984702000020002806D0094A0949002087
S11311A0094B9847002010BD83001B189900074B7A
S11311B0CB5C9A42F7D00130C0B2ECE77D1100005D
S11311C03A020000B4260000A909000064260000C9
S11311D070B50400384B9847E369DB071DD48300DE
S11311E01B189A00354B9B185A681C231A40E36954
S11311F09B07FCD123689B0709D5236802218B43F5
S11312002360E3699B07FCD1E3699B07FCD40123BA
S113121013432360E3699B07FCD1E369DB07FCD438
S113122083001B189A00254B9B185B682360E369B5
S11312309B07FCD183001B189A00204B9B189B68CA
S11312406360E3695B07FCD183001B189A001B4BA6
S11312509B185B689A040BD4C022D201134207D1B5
S113126083001B189A00154B9B189B89A38115E0DA
S113127083001B189A00114989188A89A389D2040A
S1131280D20C5B0B5B031343A3818B7B07221A40B5
S1131290A3895203DB04DB0C1343A381074A8300B5
S11312A01D18A9000D005118C97BA1735219127C95
S11312B03023E254002070BD8D110000642600002C
S11312C070B505000C00431E9841C0B2B422044915
S11312D0044B98472C602000034B984770BDC046D0
S11312E0B4260000A9090000D111000002681368A7
S11312F002210B431360D3699B07FCD17047036839
S113130089B2198570470368188DC0B270470368A5
S1131310187E01231840704703681B7E5B08012078
S11313201840704703681B7E9B08012018407047D3
S11313300122014B1A707047AC00002070B51D4BA0
S11313409847C022D2058021490551608224E405D2
S11313505C20235C04252B43DBB223549161164C9F
S1131360164B002200212000154DA8470021200023
S1131370144B9847144B1B78002BFBD0134B1B8842
S1131380134C220000210C48124DA8476178090231
S113139023780B4310494B43D9170905090DC91884
S11313A0091389B2084C61800C480D4B98470023FF
S11313B02370DFE71D010000C80000203113000086
S11313C0ED050000AD050000AC0000200000002089
S11313D00C0100206906000088130000D0260000DC
S11313E07515000010B50B00002809D11100180074
S11313F0054B9847002800DB10BD01204042FBE765
S113140001204042F8E7C0466114000010B50B000B
S11314100138022809D811001800054B9847002804
S113142000DB10BD01204042FBE701204042F8E709
S11314308514000070B50600064D2B6898680021DD
S1131440054CA0472B6858680021A047034B1E6039
S113145070BDC04604000020A9150000B0000020A3
S113146010B50400054B1868002804D08AB2210086
S1131470034B984710BD0020FCE7C046B000002095
S11314801908000010B50400054B1868002804D0A2
S11314908AB22100034B984710BD0020FCE7C046E8
S11314A0B0000020E107000010B5044C2000044BFC
S11314B098472000034B984710BDC046BC0000204D
S11314C07D0900003514000010B50023002802D067
S11314D000F004F8431C180010BDC0464142084007
S11314E01C2101231B04984201D3000C10391B0A50
S11314F0984201D3000A08391B09984201D3000914
S1131500043902A2105C401A7047C0461B1C1D1D02
S11315101E1E1E1E1F1F1F1F1F1F1F1F70B500260C
S11315200C4D0D4C641BA410A64209D1002601F0F9
S113153023F90A4D0A4C641BA410A64205D170BDC0
S1131540B300EB5898470136EEE7B300EB589847E1
S11315500136F2E784270000842700008427000076
S11315608827000003008218934200D17047197045
S11315700133F9E70FB40B4B13B51C68002C05D0ED
S1131580A369002B02D1200000F088FA05AB049A6D
S1131590A1682000019300F05DFC16BC08BC04B0F7
S11315A01847C046040000204A424A41802310B52F
S11315B05200DB0000F002F810BD0000F0B51D0081
S11315C04F4B85B01E6804000F000092002E05D01A
S11315D0B369002B02D1300000F060FA494B9C4201
S11315E050D17468009B022B05D0012B00D984E0F4
S11315F0002D00DA81E02100300000F0E1F9616B98
S1131600002908D023004433994202D0300000F06E
S113161051FB002363630023A3616360A3891B065A
S113162003D52169300000F045FBA389364A1340F5
S1131630A381009B022B5AD003AB02AA21003000E5
S113164000F0C2FAA3891843A081002D24D1029D81
S1131650280000F025FB0195071E42D1029B01934F
S1131660AB4239D1012040420223A2891343A38112
S11316700023A360230047332360236101236361B4
S113168005B0F0BD214B9C4201D1B468AAE7204BC0
S11316909C42A7D1F468A5E7002FD9D0B369002BE9
S11316A002D1300000F0FAF9009B012B03D1A38989
S11316B0009A1A43A2810820A389276027616561E3
S11316C0184018D0012018400023984211D06D42D0
S11316D0A360A5611800D3E7019800F0E1FA071EA2
S11316E0C0D08023A289019D1343A381D6E70020A3
S11316F0BAE7A560C4E7A060C2E701204042BFE7A3
S113170004000020042700005CF3FFFF24270000EE
S1131710E4260000F8B505000E001400002804D0EB
S11317208369002B01D100F0B9F9224B9C422DD1E1
S11317306C68A369A360A3891B0731D52369002BB7
S11317402ED023682269F7B2981A6369F6B29842D8
S113175005DB2100280000F033F9002826D1A36816
S11317600130013BA36023685A1C22601F70636927
S1131770984204D0A389DB071AD50A2E18D1210078
S1131780280000F01DF9002812D00FE00A4B9C42FB
S113179001D1AC68CDE7094B9C42CAD1EC68C8E7DB
S11317A02100280000F00CF80028CAD00126764257
S11317B03000F8BD0427000024270000E4260000C0
S11317C0364B70B51D6806000C00002D05D0AB69C2
S11317D0002B02D1280000F061F9314B9C420FD15B
S11317E06C680C23E25E93B219072DD4D90611D488
S11317F009230120336037331343A381404270BD72
S1131800284B9C4201D1AC68EBE7274B9C42E8D1C2
S1131810EC68E6E75B0713D5616B002908D0230069
S11318204433994202D0300000F044FA0023636349
S11318302422A3899343A381002363602369236043
S11318400823A2891343A3812369002B0BD1A02170
S11318508022A389890092000B40934203D0210087
S1131860300000F0D9F90123A289134011D00023DC
S1131870A36063695B42A361002023698342BED1F4
S11318800C23E25E1306BAD540231343A381013827
S1131890B5E7920700D46369A360EDE70400002074
S11318A00427000024270000E4260000F7B58A89F5
S11318B005000C00130760D44B68002B04DC0B6C90
S11318C0002B01DC0020FEBDE76A002FFAD00023C4
S11318D02E682B6080235B011A4034D0606DA3898D
S11318E05B0706D56368C01A636B002B01D0236CB9
S11318F0C01A0200216A00232800E76AB847A189B8
S1131900431C06D12B681D2B31D82C4ADA40D3074F
S11319102DD50023636023692360CB0405D5431CC4
S113192002D12B68002B00D16065616B2E60002909
S1131930C8D023004433994202D0280000F0BAF9F9
S113194000206063BFE70123216A2800B847431CD5
S1131950C5D12B68002BC2D01D2B01D0162B01D171
S11319602E60AFE74023A2891343A381ABE7402352
S11319700B430120A3814042A5E70F69002FA1D0AA
S11319800B680F60DB1B01930023920700D14B69A6
S1131990A360019B002B00DC94E7019B3A00216AC1
S11319A02800A66AB047002803DC4023A289134319
S11319B0DFE7019B3F181B1A0193EAE7010040206F
S11319C00B6970B505000C00002B01D1002070BD1F
S11319D0002804D08369002B01D100F05FF80B4B81
S11319E09C4209D16C680C22A35E002BEED021002E
S11319F02800FFF75BFFEAE7054B9C4201D1AC6886
S1131A00F1E7044B9C42EED1EC68ECE704270000BC
S1131A1024270000E426000010B5024900F0B2F8C3
S1131A2010BDC046C1190000002310B504000360B6
S1131A304360836081814366C28103614361836142
S1131A40190008225C30FFF78DFD054B24626362A8
S1131A50044BA362044BE362044B236310BDC046F2
S1131A60C1230000E9230000212400004D240000CC
S1131A7070B568254A1E55430E002900743100F0E4
S1131A8063F9041E08D000212A00016046600C306E
S1131A90A0606832FFF766FD200070BD836913B54E
S1131AA00400002B28D18364C3640365134B144AD8
S1131AB01B6882620193984201D101238361200053
S1131AC000F020F86060200000F01CF8A060200006
S1131AD000F018F80022E06004216068FFF7A4FF1A
S1131AE001220921A068FFF79FFF02221221E0686A
S1131AF0FFF79AFF0123A36113BDC046E02600004F
S1131B00191A0000F8B51E4B07001E68B369002BB4
S1131B1002D13000FFF7C2FF4836B4687368013B56
S1131B2004D53368002B07D03668F6E70C22A55E8F
S1131B30002D0DD06834F2E704213800FFF798FF38
S1131B4030600028F0D10C2304003B602000F8BD75
S1131B50012320005B42E3810233A3816566256093
S1131B60A560656025616561A561082229005C3076
S1131B70FFF7F8FC6563A563A564E564E6E7C04682
S1131B80E0260000F7B50400070000260191483460
S1131B90002C01D13000FEBD6368A5680093009B52
S1131BA0013B009301D52468F2E7AB89012B08D9E6
S1131BB00E22AB5E013304D029003800019B984704
S1131BC006436835EBE7000070B50E001D000E23D8
S1131BD0C95E90B01400002907DA00232B60B38992
S1131BE01B0611D48023DB000FE001AA00F05AFC8D
S1131BF00028F2DBF022029B12021340054A9B18D4
S1131C005A4253412B60EDE740230020236010B07B
S1131C1070BDC04600E0FFFFF7B502268B890500C2
S1131C200C00334206D02300473323602361012391
S1131C306361F7BD01AB6A46FFF7C6FF0099070071
S1131C40280000F081F8002808D10C22A35E9A0530
S1131C50EFD4032293431E43A681E4E70F4BAB6208
S1131C608023A28920601343A381009B20616361C8
S1131C70019B002B0DD00E23E15E280000F024FC14
S1131C80002806D00322A38993431A000123134397
S1131C90A381A0893843A081CBE7C046191A00006C
S1131CA010B5034B0100186800F04EF810BDC04693
S1131CB00400002070B50500002910D00C1F236813
S1131CC0002B00DAE418280000F02FFC1D4A1368EA
S1131CD0002B05D163601460280000F027FC70BD60
S1131CE0A34209D9216860188342F3D118685B685C
S1131CF041182160EEE713005A68002A01D0A2427D
S1131D00F9D919685818A0420BD120680918581835
S1131D1019608242E0D110685268411819605A6013
S1131D20DAE7A04202D90C232B60D5E721686018BA
S1131D30824203D1106852684118216062605C607D
S1131D40CAE7C046B4000020032370B5CD1C9D43F0
S1131D50083506000C2D1ED20C25A9421DD83000D2
S1131D6000F0E3FB254A14682100002919D1244C12
S1131D702368002B03D1300000F010FB2060290001
S1131D80300000F00BFB431C2CD10C2330003360DB
S1131D9000F0CCFB03E0002DDFDA0C2333600020DD
S1131DA070BD0B685B1B1AD40B2B03D90B60CC18CA
S1131DB0256003E08C420ED163681360300000F0AC
S1131DC0B5FB200007220B30231D9043C31AE7D034
S1131DD05A42E250E4E74B6863600C00EEE70C0003
S1131DE04968C2E70323C41C9C43A042E0D0211AE3
S1131DF0300000F0D3FA431CDAD1C6E7B400002067
S1131E00B8000020936810B5013B9360002B05DAFD
S1131E109469A34208DBCBB20A2B05D01368581C83
S1131E2010601970C8B210BDFFF774FCFBE7F8B579
S1131E3006000F001400D518AC4201D1002007E0C1
S1131E4021783A003000FFF7DDFF0134431CF3D161
S1131E50F8BD0000F0B59FB006000F001400059314
S1131E60002804D08369002B01D1FFF717FE7F4BB4
S1131E709F425CD17768BB891B0762D53B69002B05
S1131E805FD0002306AD6B6120336B761033AB76E5
S1131E900294029C2378002B5DD1029BE31A0493E5
S1131EA00DD0049B029A39003000FFF7C0FF431C99
S1131EB000D1CCE06A69049B944663446B61237847
S1131EC0002B00D1C3E00122002352426A6002A920
S1131ED05432521801342B60EB60AB601370AB6565
S1131EE021780522624800F015FB631C9C460028FB
S1131EF035D12968CB0604D5532302AA20309B1878
S1131F0018700B0704D553232B2002AA9B181870B2
S1131F1023782A2B2CD000200A21099B2278303ADE
S1131F20092A00D86BE000282AD0099328E0514BF5
S1131F309F4201D1B7689EE74F4B9F429BD1F76800
S1131F4099E739003000FFF73BFC002899D00120C5
S1131F5040421FB0F0BD252B9FD001349AE7444B7B
S1131F602968C01A012383400B432B606446B7E7FA
S1131F70059B181D1B680590002B3ADB09936446EA
S1131F8023782E2B0BD16378621C2A2B3FD1059B1F
S1131F9002341A1D1B680592002B35DB0793217848
S1131FA00322364800F0B6FA002807D0334B2A68DB
S1131FB0C01A4023834013432B6001342178631CEF
S1131FC006222F480293297600F0A4FA002844D070
S1131FD02C4B002B2FD12968059B0722C90528D536
S1131FE09B189343083305936B69039A9B186B61A1
S1131FF04FE75B42EB6002230B432B60BFE74B438D
S113200001349B18012089E701235B42C6E70023C2
S113201014000A201A006B6021783039092903D989
S1132020002BBCD00792BAE7424301345218012373
S1132030F2E70733D5E705AB00933A00124B2900CA
S1132040300000E000BF0390039B0133CCD1BB8977
S11320505B0600D57BE70B987BE705AB00933A0062
S1132060094B2900300000F07FF8ECE7042700005A
S11320704427000024270000E42600004A2700002B
S11320804E270000000000002F1E0000F7B51500C9
S113209001938A680B6900900C00934200DA1300E4
S11320A022002B6043321278002A01D001332B60C6
S11320B023689B0602D52B6802332B60062723680E
S11320C01F4027D0230043331B785A1E93412268B4
S11320D0920630D42200019943320098089EB047FA
S11320E0431C25D0062320682A68E16803400025A4
S11320F0042B03D18D1AEB43DB171D40A36822691F
S1132100934201DD9B1AED180027BD4220D1002027
S113211010E00137E3682A689B1A9F42D2DA220052
S11321200123193201990098089EB047431CF0D14D
S113213001204042FEBD3020E118433108702100E7
S11321405A1C45310978A218433202331170C1E791
S1132150220001231A3201990098089EB047431CBB
S1132160E6D00137D1E70000F0B58BB006920A0043
S113217043320793059004920A7E0C00109B6E2A4A
S113218000D18FE017D8632A2CD008D8002A00D1B8
S113219099E0582A54D026004236327029E0642A45
S11321A001D0692AF7D121681A68080623D5111DC0
S11321B01960156825E0732A00D188E008D86F2AD1
S11321C029D0702AE7D1202209680A43226003E05B
S11321D0752A20D0782ADED1220078214532117068
S11321E06C4A30E00E001A684236111D19601368FB
S11321F03370012379E04906D9D5111D19600023F4
S1132200D55E002D03DA2D23049A6D421370624BC0
S11322100A2703932FE020681968050603D5081DD3
S113222018600D6805E04006F9D50D68081D1860B2
S1132230ADB2594B082703936F2A18D00A2716E02A
S113224045310A70544A03921A682168101D1860B7
S11322501568080622D5CB0702D52023194321602F
S11322601027002D03D1202322689A4322602300E3
S1132270002243331A706368A360002B5CDB0422E2
S1132280216891432160002D58D1049E002B64D015
S11322902600039B42361B7833705EE04806DAD58D
S11322A0ADB2D8E709681A68080605D5111D19608A
S11322B0136862691A6006E04906F7D5111D1960B2
S11322C01368A28A1A800023049E236154E01A68CA
S11322D0111D1960166800216268300000F01AF9B7
S11322E0002801D0801B6060636823610023049A86
S11322F0137041E02369320006990598079DA847A9
S1132300431C43D0236800259B070FD4099BE06836
S113231098423DDA18003BE0220001231932069965
S11323200598079EB047431C30D00135E368099AED
S11323309B1A9D42F0DBE9E7002DA9D0049E2800FA
S11323403900FEF7CFFD039B013E5B5C2800337030
S11323503900FEF78EFD051EF1D1082F09D123683F
S1132360DB0706D563682269934202DC3023013E11
S11323703370049B9B1B2361079B09AA00932100D4
S1132380069B0598FFF782FE431CB3D1012040420F
S11323900BB0F0BD6627000055270000002370B580
S11323A0064C050008002360FEF780FB431C03D1A4
S11323B02368002B00D02B6070BDC04610010020A4
S11323C070B50C000E25495F00F0B2F8002803DB5D
S11323D0636D1B18636570BDA389024A1340A38112
S11323E0F9E7C046FFEFFFFFF8B51F008B89050032
S11323F00C001600DB0505D50E23C95E002202235E
S113240000F074F8A389054A28001340A381320020
S11324100E23E15E3B0000F01FF8F8BDFFEFFFFF65
S113242070B50C000E25495F00F060F8A389421CCA
S113243003D1054A1340A38170BD80225201134386
S1132440A3816065F8E7C046FFEFFFFF10B50E23D8
S1132450C95E00F015F810BD70B505000800110044
S11324600022064C22601A00FEF7D0FF431C03D161
S11324702368002B00D02B6070BDC04610010020E3
S1132480002370B5064C050008002360FEF720FB0E
S1132490431C03D12368002B00D02B6070BDC046C1
S11324A010010020002370B5064C0500080011003F
S11324B02360FEF710FB431C03D12368002B00D0DC
S11324C02B6070BD10010020002370B5064C050080
S11324D008002360FEF704FB431C03D12368002B90
S11324E000D02B6070BDC0461001002070B50500FF
S11324F0080011000022064C22601A00FEF7F2FACE
S1132500431C03D12368002B00D02B6070BDC04650
S113251010010020C9B28218904201D100207047F6
S113252003788B42FBD00130F6E770477047000018
S113253070B50500080011000022064C22601A0044
S1132540FEF750FF431C03D12368002B00D02B60FF
S113255070BDC046100100202E2E2F68616C2F73B1
S113256072632F68616C5F6164635F6173796E632A
S11325702E6300002E2E2F68616C2F7372632F68F8
S1132580616C5F696F2E63002E2E2F68616C2F7350
S113259072632F68616C5F75736172745F73796EB7
S11325A0632E63002E2E2F68616C2F7574696C7313
S11325B02F7372632F7574696C735F72696E6762CF
S11325C075666665722E6300000006050200031836
S11325D000000000000000000000000000000000F7
S11325E0000000002E2E2F68706C2F6164632F682A
S11325F0706C5F6164632E630000000008000000DB
S11326001C0000002E2E2F68706C2F6569632F68E4
S1132610706C5F6569632E630000000000000000B9
S113262000000000000000000000000000000000A6
S11326300000000000000000010000000000000095
S1132640000000000000000000000000160200006E
S11326500000000000000000000000000000000076
S113266000000000040000000400314000000300EA
S113267015FB000000000000000000000000000046
S11326800000000000000000000000000000000046
S11326900000000000000000000000000000000036
S11326A00000000000000000000000000000000026
S11326B0000000002E2E2F68706C2F736572636FFC
S11326C06D2F68706C5F736572636F6D2E630000AD
S11326D04144432056616C75653A2025640D0A0017
S11326E008000020000000000000000000000000BE
S11326F000000000000000000000000000000000D6
S113270000000000000000000000000000000000C5
S113271000000000000000000000000000000000B5
S113272000000000000000000000000000000000A5
S11327300000000000000000000000000000000095
S113274000000000232D302B2000686C4C006566CF
S113275067454647003031323334353637383941EE
S11327604243444546003031323334353637383904
S11327706162636465660000F8B5C046F8BC08BCD5
S11327809E467047E5000000F8B5C046F8BC08BC9A
S10B27909E467047BD000000E5
S113279802000000080000200000000004270000D8
S11327A824270000E42600000000000000000000C8
S11327B8000000000000000000000000000000000D
S11327C800000000000000000000000000000000FD
S11327D800000000000000000000000000000000ED
S11327E800000000000000000000000000000000DD
S10B27F80000000000000000D5
S9030000FC
