:10000000902000202D01000029010000290100009E
:1000100000000000000000000000000000000000E0
:1000200000000000000000000000000029010000A6
:10003000000000000000000029010000290100006C
:100040002901000029010000290100002901000008
:1000500029010000290100002901000029010000F8
:1000600029010000290100002901000029010000E8
:1000700029010000650B0000290100002901000092
:1000800029010000290100002901000029010000C8
:1000900029010000290100002901000029010000B8
:1000A00029010000290100002901000029010000A8
:1000B00029010000290100002901000010B5064CAB
:1000C0002378002B07D1054B002B02D0044800E019
:1000D00000BF0123237010BD0C00002000000000B1
:1000E000A40C0000084B10B5002B03D007490848AA
:1000F00000E000BF07480368002B00D110BD064B8D
:10010000002BFBD09847F9E700000000100000200A
:10011000A40C0000A40C00000000000010B5014B6E
:10012000984710BD31020000FEE7000010B5104AEC
:10013000104B9A4209D00F4B0D4A03E01168196029
:10014000043304320C498B42F8D30C4B02E00022FA
:100150001A6004330A4A9342F9D30A4AFF210A4B30
:100160008B439360094B9847094B9847FEE7C0467D
:10017000A40C0000000000200C0000200C00002057
:100180009000002000ED00E000000000790B00006E
:10019000B9020000054B4022DC215A5014395A5054
:1001A000034AD369A8390B43D3617047001C004050
:1001B0000008004030B58223DB05CA22995C012586
:1001C000A94301242143C9B29954B520195CBB3A13
:1001D000914303221143C9B21954CB215A5CAA435B
:1001E0002243D2B25A541A5CBC390A4030210A4325
:1001F000D2B21A5430BD000010B582B0064B9847F9
:10020000002300931033054A05490648064CA047D1
:10021000064B984702B010BD950100002800002051
:10022000001400424000002045050000B501000018
:1002300010B50B4B9847C023DB05802212029A6150
:100240009A608223DB05074A9A62C02212069A62EC
:100250004F215A5C012082435A54034B984710BDEA
:100260008907000000800040F90100000122014BD5
:100270001A6070473800002010B50C22024903486C
:10028000034B984710BDC0460000002040000020EE
:100290006903000010B580221202C023DB05DA6179
:1002A0000C2202490248034B984710BD0000002071
:1002B000400000206903000030B583B0184B984718
:1002C000184C194A01212000184DA847184A00214E
:1002D0002000A847174A02212000A8472000164BFB
:1002E00098470C2215492000154B984712E001222F
:1002F0006B46D91D0B48124B98470128F7D10122B4
:100300006B46D91D07480F4B98470128EFD00022B4
:100310000D4B1A600C4B1B68002BFBD0EFE7C0465F
:100320001D01000040000020950200000D060000A5
:100330006D02000079020000E105000000000020CD
:1003400069030000A103000038000020EFF31083D0
:10035000036072B6BFF35F8F7047BFF35F8F0368B0
:1003600083F310887047000070B504000D0016007C
:1003700000280ED000290AD0012034220649074B5C
:1003800098472368320029002000984770BD00205C
:10039000F3E70020F1E7C046C00B0000850600002F
:1003A00070B504000D00160000280ED000290AD0F8
:1003B00001203D220649074B984763683200290017
:1003C0002000984770BD0020F3E70020F1E7C04609
:1003D000C00B00008506000010B508380023036339
:1003E000436A002B00D0984710BD10B50838002391
:1003F0000363C36A002B00D0984710BD10B50400FA
:100400002C30044B9847236A083C002B01D0200075
:10041000984710BD2507000070B504000E001500B8
:1004200000281DD000291DD0002A1DD100203C220B
:10043000FF321049104B98474423E25A0833E35ADD
:100440009A4213D1A6644C23E5520022083BE252A3
:10045000433B236320000830084B9847280070BDB9
:100460000020E4E70020E2E70120E0E71C20404212
:10047000F5E7C046D40B000085060000DB0A00004B
:1004800070B504000200083A4423D35A4C21525A52
:1004900093420DD00200016C083A5D1C44201552B5
:1004A000C95C2000044B98472000044B984770BD5E
:1004B000034B9847FBE7C046D30A0000DB0A000065
:1004C000E30A0000F0B585B004000D001600002816
:1004D00017D0002917D0002A17D10020AC225200D3
:1004E0001249134B984703A8124B98473434200005
:1004F0000194114B9847070003A8104B984700241C
:100500000BE00020EAE70020E8E70120E6E70134FD
:10051000A4B2691801980A4B98472100A74201D953
:10052000B442F4D3200005B0F0BDC046D40B0000A7
:10053000850600004D030000650700005B03000016
:10054000D9060000F8B504000D0016001F000028B1
:1005500026D0002926D0002A26D0002B26D1002024
:100560003A221549154B9847200034303A003100A3
:10057000134B984700281BD1200008302900114B4D
:10058000984700280BD1104B6360104B2360104B31
:10059000A360104BE360104B2361104B6361F8BD07
:1005A0000020DDE70020DBE70020D9E70120D7E7C6
:1005B0000D204042F3E7C046D40B00008506000042
:1005C0008D060000350A0000C50400001904000073
:1005D00081040000FD030000D9030000EB030000CC
:1005E00010B50400431E9841C0B261220449054B76
:1005F000984720000830044B9847002010BDC046A3
:10060000D40B000085060000C10A000070B505008B
:100610000E001400431E9841C0B283221649174BA6
:100620009847012E11D0002E04D0022E18D00D2094
:10063000404209E0AC62621E9441E2B228000830F8
:1006400001210F4B9847002070BD6C62621E9441DF
:10065000E2B2280008300221094B98470020F3E756
:10066000EC62621E9441E2B2280008300321044B80
:1006700098470020E8E7C046D40B0000850600003C
:10068000ED0A0000002800D100BE704770B50400DC
:100690000E001500002812D0002912D0002A12D115
:1006A000002028220A490B4B98476B1E2B420CD185
:1006B00063600023A360E3602660002070BD00201B
:1006C000EFE70020EDE70120EBE70D204042F5E7E2
:1006D000F40B00008506000070B504000D00002832
:1006E00016D0002912D0012040220C490C4B98470B
:1006F000A368E2689A420DD0626813402268D35C16
:100700002B70A3680133A360002070BD0020EBE7CD
:100710000020E9E70A204042F7E7C046F40B00005A
:100720008506000070B504000D00431E9841C0B25C
:1007300051220A490A4B98476368E26813402268CD
:10074000D554E368A2689A1A61688A4201D9591A95
:10075000A1600133E360002070BDC046F40B0000CF
:100760008506000010B50400431E9841C0B2672200
:100770000349044B9847E068A368C01A10BDC046FF
:10078000F40B00008506000010B5084B5A685A604B
:10079000074B9847074B9847074B9847074B984795
:1007A000FF20074B9847074B984710BD004000417A
:1007B0000908000025080000FD070000610800008E
:1007C000D9070000C90700009022D2051378022142
:1007D0008B43137070470000C30707D5044A054BCD
:1007E0001A62044B5A68044B1A42FAD17047C04649
:1007F00006010100001C0040FD0700000122014B22
:100800001A71704700080040054AD3691B0A1B0291
:10081000F82149010B40D361012313617047C046A1
:10082000001400400D4B02221A7509325A750B4B09
:100830009B695B07FBD4094B9B695B07FBD40722D1
:10084000064B9A75054BDB68DB06FBD5034A137D27
:10085000802149420B43DBB2137570470010004002
:1008600070470000024B9C466044800AC0B270474B
:1008700000FCFFBD10B58469237EDB0702D5A37D94
:10088000DB070FD4237E9B0702D5A37D9B070ED4E5
:10089000237E5B0715D5628B37231A420CD0483371
:1008A000638310BD0123237503689847F9E702238A
:1008B000237583689847F4E74368218DC9B2984748
:1008C000EFE7237EDB09ECD080232376C3689847CB
:1008D000638B9BB26383E4E7034B984200D070477D
:1008E000024B1960FBE7C046001400423C000020A8
:1008F00010B5024B98470930C0B210BD6508000022
:1009000010B50B4B984702000020002806D0094A7A
:1009100009490020094B9847002010BD83001B188F
:100920009900074BCB5C9A42F7D00130C0B2ECE79C
:10093000650800005E020000680C000085060000EB
:10094000180C000070B50400384B9847E369DB07CA
:100950001DD483001B189A00354B9B185A681C2322
:100960001A40E3699B07FCD123689B0709D52368DC
:1009700002218B432360E3699B07FCD1E3699B075A
:10098000FCD4012313432360E3699B07FCD1E36993
:10099000DB07FCD483001B189A00254B9B185B686F
:1009A0002360E3699B07FCD183001B189A00204B4E
:1009B0009B189B686360E3695B07FCD183001B188D
:1009C0009A001B4B9B185B689A040BD4C022D2017F
:1009D000134207D183001B189A00154B9B189B8963
:1009E000A38115E083001B189A00114989188A8990
:1009F000A389D204D20C5B0B5B031343A3818B7BD3
:100A000007221A40A3895203DB04DB0C1343A381A2
:100A1000074A83001D18A9000D005118C97BA17356
:100A20005219127C3023E254002070BD01090000ED
:100A3000180C000070B506000C00431E9841C0B2AF
:100A4000C4221949194B98472000194B9847051E95
:100A500001D0280070BDB46131002000154B9847CB
:100A60002000154B984743B2002B0ADB1F210140A1
:100A700001228A408021114C6250BFF34F8FBFF397
:100A80006F8F002B07DB1F21014001228A40C0210C
:100A900049000A4C6250002BDBDB1F2318401E3B31
:100AA0008340064A1360D4E7680C00008506000006
:100AB00045090000D9080000F108000000E100E04D
:100AC0008269136802210B431360D3699B07FCD131
:100AD0007047836989B219857047836901229A75C5
:100AE0007047836902229A757047000070B5040050
:100AF0000D001600431E9841C0B2174A1749184B03
:100B00009847002D0BD0022D09D0012D18D0032DB0
:100B10000FD1A369002E1CD080229A7509E0A36929
:100B2000002E07D101221A75A369002E05D10222D9
:100B30001A7570BD01229A75F6E702229A75F8E7D8
:100B4000A369002E02D104221A75F2E704229A75D5
:100B5000EFE780221A75ECE71E020000680C000027
:100B60008506000010B5024B1868024B984710BD6F
:100B70003C0000207508000070B500260C4D0D4C9F
:100B8000641BA410A64209D1002600F07BF80A4D90
:100B90000A4C641BA410A64205D170BDB300EB58EB
:100BA00098470136EEE7B300EB5898470136F2E775
:100BB000900C0000900C0000900C0000940C0000C1
:100BC0002E2E2F68616C2F7372632F68616C5F69C2
:100BD0006F2E63002E2E2F68616C2F7372632F6847
:100BE000616C5F75736172745F6173796E632E639C
:100BF000000000002E2E2F68616C2F7574696C73D5
:100C00002F7372632F7574696C735F72696E67629C
:100C100075666665722E63000400000004003140B2
:100C2000000003002BF600000000000000000000A0
:100C300000000000000000000000000000000000B4
:100C400000000000000000000000000000000000A4
:100C50000000000000000000000000000000000094
:100C600000000000000000002E2E2F68706C2F7313
:100C70006572636F6D2F68706C5F736572636F6D03
:100C80002E630000F8B5C046F8BC08BC9E4670470D
:100C9000E5000000F8B5C046F8BC08BC9E467047A9
:040CA000BD00000093
:0C0CA40048656C6C6F20576F726C642107
:00000001FF
