S010000045444247554152542E73726563C6
S1130000402100202D0100002901000029010000E9
S113001000000000000000000000000000000000DC
S113002000000000000000000000000029010000A2
S11300300000000000000000290100002901000068
S11300402901000029010000290100002901000004
S113005029010000290100002901000029010000F4
S113006029010000290100002901000029010000E4
S113007029010000590C0000290100002901000099
S113008029010000290100002901000029010000C4
S113009029010000290100002901000029010000B4
S11300A029010000290100002901000029010000A4
S11300B029010000290100002901000010B5064CA7
S11300C02378002B07D1054B002B02D0044800E015
S11300D000BF0123237010BD640000200000000055
S11300E07C160000084B10B5002B03D007490848C4
S11300F000E000BF07480368002B00D110BD064B89
S1130100002BFBD09847F9E70000000068000020AE
S11301107C1600007C1600000000000010B5014BA6
S1130120984710BD31020000FEE7000010B5104AE8
S1130130104B9A4209D00F4B0D4A03E01168196025
S1130140043304320C498B42F8D30C4B02E00022F6
S11301501A6004330A4A9342F9D30A4AFF210A4B2C
S11301608B439360094B9847094B9847FEE7C04679
S11301707C160000000000206400002064000020C1
S11301803C01002000ED00E0000000006D0C0000C8
S1130190A1020000054B4022DC215A5014395A5068
S11301A0034AD369A8390B43D3617047001C00404C
S11301B00008004030B58223DB05CA22995C012582
S11301C0A94301242143C9B29954B520195CBB3A0F
S11301D0914303221143C9B21954CB215A5CAA4357
S11301E02243D2B25A541A5CBC390A4030210A4321
S11301F0D2B21A5430BD000010B582B0064B9847F5
S1130200002300931033054A05490648064CA047CD
S1130210064B984702B010BD9501000080000020F5
S113022000140042E80000207D050000B501000034
S113023010B50B4B9847C023DB05802212029A614C
S11302409A608223DB05074A9A62C02212069A62E8
S11302504F215A5C012082435A54034B984710BDE6
S11302600D08000000800040F90100008022120205
S1130270C023DB05DA6170470122014B1A60704725
S11302809000002010B50E22024904310248034BAD
S1130290984710BD90000020E8000020A103000052
S11302A070B582B0214B9847214D0435A022120627
S11302B0204B21492800214CA047214C214A0121EF
S11302C02000214EB047214A00212000B047204A97
S11302D002212000B04720001E4B9847102229001D
S11302E020001D4B984712E001226B46D91D14488B
S11302F0194B98470128F7D101226B46D91D1048A4
S1130300164B98470128EFD00022094B1A60FA20B7
S11303108000134B9847064C211D102208480E4BB1
S113032098472368002BF2D0E6E7C0461D01000081
S1130330900000209999F13FF4140000B50C0000DE
S1130340E80000206D02000045060000790200006C
S11303508502000019060000A1030000D903000073
S113036081030000EFF31083036072B6BFF35F8F65
S11303707047BFF35F8F036883F3108870470000F2
S113038010B5044B1C68044B984701002000034B34
S1130390984710BDD4000020E507000005080000C0
S11303A070B504000D00160000280ED000290AD0F4
S11303B0012034220649074B98472368320029005C
S11303C02000984770BD0020F3E70020F1E7C04605
S11303D004150000BD06000070B504000D001600F1
S11303E000280ED000290AD001203D220649074BDF
S11303F098476368320029002000984770BD0020A8
S1130400F3E70020F1E7C04604150000BD06000034
S113041010B5083800230363436A002B00D09847C3
S113042010BD10B5083800230363C36A002B00D045
S1130430984710BD10B504002C30044B9847236A2C
S1130440083C002B01D02000984710BD5D07000038
S113045070B504000E00150000281DD000291DD021
S1130460002A1DD100203C22FF321049104B98472E
S11304704423E25A0833E35A9A4213D1A6644C2324
S1130480E5520022083BE252433B2363200008303C
S1130490084B9847280070BD0020E4E70020E2E7FD
S11304A00120E0E71C204042F5E7C0461815000093
S11304B0BD060000CF0B000070B504000200083A2E
S11304C04423D35A4C21525A93420DD00200016C5A
S11304D0083A5D1C44201552C95C2000044B98471F
S11304E02000044B984770BD034B9847FBE7C04678
S11304F0C70B0000CF0B0000D70B0000F0B585B090
S113050004000D001600002817D0002917D0002A77
S113051017D10020AC2252001249134B984703A86C
S1130520124B9847343420000194114B984707002C
S113053003A8104B984700240BE00020EAE70020B2
S1130540E8E70120E6E70134A4B2691801980A4BF0
S113055098472100A74201D9B442F4D3200005B042
S1130560F0BDC04618150000BD060000650300007C
S11305709D0700007303000011070000F8B5040094
S11305800D0016001F00002826D0002926D0002ABE
S113059026D0002B26D100203A221549154B984726
S11305A0200034303A003100134B984700281BD107
S11305B0200008302900114B984700280BD1104B1C
S11305C06360104B2360104BA360104BE360104B2F
S11305D02361104B6361F8BD0020DDE70020DBE7F9
S11305E00020D9E70120D7E70D204042F3E7C046B9
S11305F018150000BD060000C5060000290B000008
S1130600FD04000051040000B9040000350400009A
S1130610110400002304000010B50400431E984197
S1130620C0B261220449054B984720000830044BAE
S11306309847002010BDC04618150000BD060000F4
S1130640B50B000070B505000E001400431E984160
S1130650C0B283221649174B9847012E11D0002EA1
S113066004D0022E18D00D20404209E0AC62621E74
S11306709441E2B22800083001210F4B9847002032
S113068070BD6C62621E9441E2B2280008300221FF
S1130690094B98470020F3E7EC62621E9441E2B2F2
S11306A0280008300321044B98470020E8E7C0469F
S11306B018150000BD060000E10B0000002800D161
S11306C000BE704770B504000E001500002812D05B
S11306D0002912D0002A12D1002028220A490B4BEB
S11306E098476B1E2B420CD163600023A360E36028
S11306F02660002070BD0020EFE70020EDE7012018
S1130700EBE70D204042F5E738150000BD06000078
S113071070B504000D00002816D0002912D0012065
S113072040220C490C4B9847A368E2689A420DD0CA
S1130730626813402268D35C2B70A3680133A36002
S1130740002070BD0020EBE70020E9E70A204042CA
S1130750F7E7C04638150000BD06000070B5040078
S11307600D00431E9841C0B251220A490A4B9847D2
S11307706368E26813402268D554E368A2689A1A51
S113078061688A4201D9591AA1600133E3600020EB
S113079070BDC04638150000BD06000010B5040049
S11307A0431E9841C0B267220349044B9847E0684E
S11307B0A368C01A10BDC04638150000BD0600006D
S11307C00300064A1268002A04D0044A1068C318B9
S11307D0136070470249014A1160F6E7D80000200F
S11307E04021002010B50300C820400058430230C7
S11307F00321034B984783001B18580010BDC046C3
S11308005B0800000139FDD87047000010B5084BA3
S11308105A685A60074B9847074B9847074B9847C5
S1130820074B9847FF20074B9847074B984710BD45
S113083000400041FD08000019090000F108000013
S113084055090000CD0800004D0800009022D20593
S1130850137802218B431370704710B582B0EFF305
S11308601083019372B69023DB051A780124A24306
S11308701A709860D9609023DB051B79DB07FAD4E2
S11308809023DB051869019B83F3108802B010BD27
S113089010B582B0EFF31083019372B69023DB0599
S11308A01A780124A2431A709860D9609023DB055A
S11308B01B79DB07FAD4044B18685968019B83F34E
S11308C0108802B010BDC04610000048C30707D509
S11308D0044A054B1A62044B5A68044B1A42FAD173
S11308E07047C04606010100001C0040FD070000DF
S11308F00122014B1A71704700080040054AD36970
S11309001B0A1B02F82149010B40D3610123136127
S11309107047C046001400400D4B02221A7509327C
S11309205A750B4B9B695B07FBD4094B9B695B07AF
S1130930FBD40722064B9A75054BDB68DB06FBD517
S1130940034A137D802149420B43DBB21375704780
S11309500010004070470000024B9C466044800A2F
S1130960C0B2704700FCFFBD10B58469237EDB076D
S113097002D5A37DDB070FD4237E9B0702D5A37D7D
S11309809B070ED4237E5B0715D5628B37231A424F
S11309900CD04833638310BD012323750368984743
S11309A0F9E70223237583689847F4E74368218DA8
S11309B0C9B29847EFE7237EDB09ECD08023237686
S11309C0C3689847638B9BB26383E4E7034B984205
S11309D000D07047024B1960FBE7C0460014004288
S11309E0DC00002010B5024B98470930C0B210BD9E
S11309F05909000010B50B4B98470200002000284D
S1130A0006D0094A09490020094B9847002010BD27
S1130A1083001B189900074BCB5C9A42F7D0013036
S1130A20C0B2ECE7590900005E020000AC150000FA
S1130A30BD0600005C15000070B50400384B9847F3
S1130A40E369DB071DD483001B189A00354B9B1800
S1130A505A681C231A40E3699B07FCD123689B074F
S1130A6009D5236802218B432360E3699B07FCD1EA
S1130A70E3699B07FCD4012313432360E3699B07C9
S1130A80FCD1E369DB07FCD483001B189A00254BD7
S1130A909B185B682360E3699B07FCD183001B18E8
S1130AA09A00204B9B189B686360E3695B07FCD149
S1130AB083001B189A001B4B9B185B689A040BD489
S1130AC0C022D201134207D183001B189A00154B90
S1130AD09B189B89A38115E083001B189A00114978
S1130AE089188A89A389D204D20C5B0B5B03134354
S1130AF0A3818B7B07221A40A3895203DB04DB0CFE
S1130B001343A381074A83001D18A9000D0051183F
S1130B10C97BA1735219127C3023E254002070BDAA
S1130B20F50900005C15000070B506000C00431EBA
S1130B309841C0B2C4221949194B98472000194B57
S1130B409847051E01D0280070BDB4613100200013
S1130B50154B98472000154B984743B2002B0ADBEE
S1130B601F21014001228A408021114C6250BFF3B1
S1130B704F8FBFF36F8F002B07DB1F210140012232
S1130B808A40C02149000A4C6250002BDBDB1F2342
S1130B9018401E3B8340064A1360D4E7AC1500009E
S1130BA0BD060000390A0000CD090000E509000077
S1130BB000E100E08269136802210B431360D369EA
S1130BC09B07FCD17047836989B219857047836993
S1130BD001229A757047836902229A757047000052
S1130BE070B504000D001600431E9841C0B2174AA8
S1130BF01749184B9847002D0BD0022D09D0012D11
S1130C0018D0032D0FD1A369002E1CD080229A7511
S1130C1009E0A369002E07D101221A75A369002EE9
S1130C2005D102221A7570BD01229A75F6E70222D7
S1130C309A75F8E7A369002E02D104221A75F2E727
S1130C4004229A75EFE780221A75ECE71E02000071
S1130C50AC150000BD06000010B5024B1868024B2D
S1130C60984710BDDC0000206909000070B500261B
S1130C700C4D0D4C641BA410A64209D1002600F0B3
S1130C80EDFC0A4D0A4C641BA410A64205D170BDAC
S1130C90B300EB5898470136EEE7B300EB5898479A
S1130CA00136F2E7681600006816000068160000B6
S1130CB06C1600000EB410B59DB002A90290086134
S1130CC00B48822488604861012040421FABC881E0
S1130CD0084804CBA400006801938C8100F0CCF890
S1130CE00023029A13701DB010BC08BC03B018474F
S1130CF0FFFFFF7F00000020032370B5CD1C9D4340
S1130D00083506000C2D1ED20C25A9421DD8300032
S1130D1000F076FB254A14682100002919D1244CDF
S1130D202368002B03D1300000F032FB206029003F
S1130D30300000F02DFB431C2CD10C233000336019
S1130D4000F05FFB03E0002DDFDA0C2333600020AA
S1130D5070BD0B685B1B1AD40B2B03D90B60CC182A
S1130D60256003E08C420ED163681360300000F00C
S1130D7048FB200007220B30231D9043C31AE7D001
S1130D805A42E250E4E74B6863600C00EEE70C0063
S1130D904968C2E70323C41C9C43A042E0D0211A43
S1130DA0300000F0F5FA431CDAD1C6E7E000002079
S1130DB0E4000020F0B58E6885B007000C000392B3
S1130DC001939E4239D890238A89DB001A4234D099
S1130DD00325096923685B1A0293636902985D43DA
S1130DE0EB0F5D19019B6D1001331B18AB4200D949
S1130DF01D00530532D529003800FFF77DFF061E7C
S1130E0009D10C233B6040230120A28940421343B3
S1130E10A38105B0F0BD029A216900F0D6FAA38936
S1130E20144A1A4080231343A381029B2661F618B7
S1130E3026606561019EED1AA560019BB34200D254
S1130E401E0032000399206800F0C8FAA36800204D
S1130E509B1BA36023689E192660DAE72A003800EA
S1130E6000F01AFB061EE0D12169380000F0CAFA2E
S1130E70C7E7C0467FFBFFFFF0B59FB00290059324
S1130E808B890F0016001B0611D50B69002B0ED1A0
S1130E904021FFF731FF38603861002805D10C2369
S1130EA0029A013813601FB0F0BD40237B61002318
S1130EB006AD6B6120336B761033AB763400237848
S1130EC0002B47D1A31B04930DD0A31B3200390080
S1130ED00298FFF76FFF431C00D1B5E06A69049BD9
S1130EE0944663446B612378002B00D1ACE001226B
S1130EF0002352426A6002A95432521801342B6012
S1130F00EB60AB601370AB65584E0522217830005E
S1130F1000F050FA621C002820D12968CB0604D5C1
S1130F20532302AE20309B1918700B0704D55323AA
S1130F302B2002AE9B19187023782A2B16D0002080
S1130F400A21099B2278303A092A55D9002815D05C
S1130F50099313E0252BB5D00134B0E70123801B9E
S1130F608340296814000B432B60CDE7059B181DB3
S1130F701B680590002B39DB0993140023782E2B72
S1130F800BD16378621C2A2B3ED1059B02341A1DB7
S1130F901B680592002B34DB0793354E217803221E
S1130FA0300000F007FA002806D04023801B83405D
S1130FB02A68013413432B60217806222D48661CCD
S1130FC0297600F0F7F9002846D02B4B002B2FD1BF
S1130FD02968059B0722C90528D59B189343083324
S1130FE005936B69039A9B186B6167E75B42EB603F
S1130FF002230B432B60C0E74B4301349B180120B1
S1131000A0E701235B42C7E7002314000A201A006B
S11310106B6021783039092903D9002BBDD00792A0
S1131020BBE74243013452180123F2E70733D5E703
S113103005AB00933A00114B2900029800E000BF71
S11310400390039B0133CCD1BB890B985B0600D47E
S113105029E70120404226E705AB00933A00074BFD
S11310602900029800F07AF8EAE7C0462816000042
S11310702E1600003216000000000000B50D00001E
S1131080F7B5150001938A680B6900900C00934230
S113109000DA130022002B6043321278002A01D0B8
S11310A001332B6023689B0602D52B6802332B6027
S11310B0062723681F4027D0230043331B785A1E7A
S11310C093412268920630D4220001994332009859
S11310D0089EB047431C25D0062320682A68E1688F
S11310E003400025042B03D18D1AEB43DB171D406D
S11310F0A3682269934201DD9B1AED180027BD42C3
S113110020D1002010E00137E3682A689B1A9F422F
S1131110D2DA22000123193201990098089EB047BF
S1131120431CF0D101204042FEBD3020E118433180
S1131130087021005A1C45310978A2184332023341
S11311401170C1E7220001231A3201990098089E08
S1131150B047431CE6D00137D1E70000F0B58BB0AF
S113116006920A0043320793059004920A7E0C000B
S1131170109B6E2A00D18FE017D8632A2CD008D890
S1131180002A00D199E0582A54D026004236327001
S113119029E0642A01D0692AF7D121681A6808066F
S11311A023D5111D1960156825E0732A00D188E044
S11311B008D86F2A29D0702AE7D1202209680A4367
S11311C0226003E0752A20D0782ADED1220078211B
S11311D0453211706C4A30E00E001A684236111D17
S11311E0196013683370012379E04906D9D5111DBC
S11311F019600023D55E002D03DA2D23049A6D4275
S11312001370624B0A2703932FE0206819680506C0
S113121003D5081D18600D6805E04006F9D50D6872
S1131220081D1860ADB2594B082703936F2A18D0D4
S11312300A2716E045310A70544A03921A68216855
S1131240101D18601568080622D5CB0702D5202387
S1131250194321601027002D03D1202322689A43CB
S113126022602300002243331A706368A360002BBA
S11312705CDB0422216891432160002D58D1049E37
S1131280002B64D02600039B42361B7833705EE04B
S11312904806DAD5ADB2D8E709681A68080605D554
S11312A0111D1960136862691A6006E04906F7D5D2
S11312B0111D19601368A28A1A800023049E2361F9
S11312C054E01A68111D1960166800216268300024
S11312D000F070F8002801D0801B6060636823610F
S11312E00023049A137041E023693200069905989B
S11312F0079DA847431C43D0236800259B070FD4B0
S1131300099BE06898423DDA18003BE02200012383
S1131310193206990598079EB047431C30D0013511
S1131320E368099A9B1A9D42F0DBE9E7002DA9D0F6
S1131330049E28003900FFF7ABFA039B013E5B5C77
S1131340280033703900FFF788FA051EF1D1082F01
S113135009D12368DB0706D563682269934202DC5E
S11313603023013E3370049B9B1B2361079B09AA16
S113137000932100069B0598FFF782FE431CB3D11E
S1131380012040420BB0F0BD4A160000391600009F
S1131390002370B5064C050008002360FFF710FA1F
S11313A0431C03D12368002B00D02B6070BDC046C2
S11313B038010020C9B28218904201D10020704740
S11313C003788B42FBD00130F6E7002310B59A4234
S11313D000D110BDCC5CC4540133F8E710B5884289
S11313E002D98B18984208D300239A4207D0CC5CC8
S11313F0C4540133F9E78B5C8354013AFBD210BD2A
S11314007047704770B50500002910D00C1F236881
S1131410002B00DAE4182800FFF7F2FF1D4A1368D6
S1131420002B05D1636014602800FFF7EAFF70BD4C
S1131430A34209D9216860188342F3D118685B6814
S113144041182160EEE713005A68002A01D0A24235
S1131450F9D919685818A0420BD1206809185818EE
S113146019608242E0D110685268411819605A60CC
S1131470DAE7A04202D90C232B60D5E72168601873
S1131480824203D1106852684118216062605C6036
S1131490CAE7C046E0000020F8B507000D001600BA
S11314A0002905D11100FFF727FC04002000F8BD36
S11314B0002A03D1FFF7A6FF3400F7E700F012F883
S11314C02C008642F2D931003800FFF715FC041EC7
S11314D0ECD029003200FFF778FF29003800FFF72D
S11314E091FFE3E70B1F1B68181F002B01DA0B5851
S11314F0C0187047466C6F6174203A2025660D0A47
S1131500000000002E2E2F68616C2F7372632F6809
S1131510616C5F696F2E63002E2E2F68616C2F73D0
S113152072632F68616C5F75736172745F61737944
S11315306E632E63000000002E2E2F68616C2F75E1
S113154074696C732F7372632F7574696C735F7233
S1131550696E676275666665722E6300040000003A
S113156004003140000003002BF6000000000000DE
S11315700000000000000000000000000000000067
S11315800000000000000000000000000000000057
S11315900000000000000000000000000000000047
S11315A00000000000000000000000002E2E2F6844
S11315B0706C2F736572636F6D2F68706C5F7365E9
S11315C072636F6D2E6300000000000000000000D5
S11315D00000000000000000000000000000000007
S11315E000000000000000000000000000000000F7
S11315F000000000000000000000000000000000E7
S113160000000000000000000000000000000000D6
S113161000000000000000000000000000000000C6
S11316200000000000000000232D302B2000686C17
S11316304C006566674546470030313233343536F1
S1131640373839414243444546003031323334352A
S1131650363738396162636465660000F8B5C046A0
S1131660F8BC08BC9E467047E5000000F8B5C046CB
S10F1670F8BC08BC9E467047BD0000009A
S113167C0400002000000000E8150000081600001B
S113168CC81500000000000000000000000000006D
S113169C000000000000000000000000000000003A
S11316AC000000000000000000000000000000002A
S11316BC000000000000000000000000000000001A
S11316CC000000000000000000000000000000000A
S10716DC0000000006
S9030000FC
