:020000040000fa
:10000000f07f0020cda2000073680000e3710000c3
:1000100000000000000000000000000000000000e0
:10002000000000000000000000000000a3730000ba
:100030000000000000000000a1a3000005b00000c7
:100040004f6000004f6000004f6000004f600000f4
:100050004f6000004f6000004f600000d993000027
:100060004f6000004f6000004f6000004f600000d4
:100070004f6000004f600000595c00004f600000be
:100080004f6000004f6000004f6000004f600000b4
:100090004f6000004f6000004f60000011a9000099
:1000a0004f6000004f6000004f6000004f60000094
:0c00b0004f6000004f6000004f60000037
:020000040000fa
:1000bc00f8b5c046f8bc08bc9e467047d5a10000f8
:1000cc00f8b5c046f8bc08bc9e467047ada1000010
:020000040000fa
:0800dc00247000000100000087
:020000040000fa
:1000e400f0b5ce46474680b583b00500a826464302
:1000f400db4bf71834007434e418da4920000af0b2
:10010400effe012800d04ee1d54b9b1963331a78da
:10011400042a00d944e19300d34ad3589f46a82324
:100124006b43cf4ef618b36d98b2032106f0a0fbd3
:10013400f065431c00d133e13a00cc490af05efb80
:10014400a8226a43c64b9b18633301221a7027e125
:10015400a8226a43c24b9b18d96b38000af0e6fd0b
:10016400002800d11ce1a8226a43bd4b9b186333cd
:1001740002221a7014e1a8226a43b94b9b18223355
:100184001b78002b00d10be1a8226a43b44b9b18c7
:100194001a00223200211170633303221a70ffe027
:1001a400a8226a43ae4b9b1866331a78072a00d9f3
:1001b400c3e19300ae4ad3589f46a8226a43a84b92
:1001c4009b181a00693201211170603300229a567b
:1001d400a84938000af038ff002807d0a8226a434b
:1001e4009f4b9b18663301221a700de0a8226a43c4
:1001f4009b4b9b18693300221a7005e001213800db
:100204000bf006fb002828d1a8226a43944b9b18c4
:100214001a0044320021117045331b78002b00d1a1
:10022400bee1a8226a438e4b9b18453300221a7004
:10023400a8226a438a4b9b181a0063320121117069
:10024400463300221a707e6d002e00d1a0e1a8234f
:100254006b43834a9046984489e1a8226a43804bc1
:100264009b181a00693201211170d96a0a223800d8
:1002740009f092fe0028c7d0a8226a43784b9b1845
:10028400663303221a70bfe7a8226a43744b9b1893
:1002940062331b78012b19d0a8226a43704b9b1838
:1002a40062331b78022bafd16d4eb6183300603326
:1002b40000229a566f4938000af0c6fe33006633ae
:1002c40001221a706936002333709de7644eb61814
:1002d4003300603300229a56664938000af0b4feaf
:1002e4006636022333708fe700220021280001f0d4
:1002f40051fda8226a435a4b9b1867331b780c2b79
:100304000ed00b2b00d07fe7a8226a43544b9b18d6
:100314001a00693200211170663301221a7073e7e2
:10032400a8226a434e4b9b181a00693200211170af
:100334006c331b78012b07d0a8226a43484b9b18c7
:10034400663301221a705fe7a8226a43444b9b1864
:10035400663308221a7007e0a8226a43404b9b18b0
:1003640069331b78022b31d1a8226a433c4b9b187a
:100374001a0044320121117045331b78012b00d13e
:100384000ee1a8226a43364b9b181a00453201211c
:100394001170633304221a70002138000bf038fa0c
:1003a40020000af0d3ff2f4920000af099fda8226b
:1003b4006a432b4b9b185e6d65331a78192a01d951
:1003c40001f0abf893002c49cb589f46012138002b
:1003d4000bf01efa0028c7d0a8226a43204b9b18b2
:1003e4001a00693201211170663305221a70bbe7c5
:1003f40000220421280001f0cdfca8226a43184bf6
:100404009b1867331b780c2b0dd00b2bacd1a82277
:100414006a43134b9b181a0069320021117066332a
:1004240001221a70f0e6a8226a430d4b9b186c3324
:100434001b78002b07d1a8226a43094b9b1866330b
:1004440006221a7090e7a8226a43054b9b181a00eb
:10045400693200211170663301221a70d4e6c04655
:10046400e4380020ffff00007c6b0000a7a8000018
:10047400906b0000801a0600b06b0000a9004919b7
:100484008900c84b5918142238000af024fc0028ab
:1004940007d0a8226a43c44b9b18663307221a70fc
:1004a40062e7a8226a43c04b9b181a0069320021f4
:1004b4001170663301221a70a6e6a8226a43ba4b69
:1004c4009b1862331b78012b14d0a8226a43b64bc5
:1004d4009b1862331b78022b00d045e7a8226a439d
:1004e400b14b9b181a006932002111706633012246
:1004f4001a7089e6a8226a43ab4b9b181a0069322a
:1005040000211170a90049198900a64a5118586b95
:1005140013220af0f3fe002807d1a8226a43a24b53
:100524009b18663304221a701ee7a8226a439e4b66
:100534009b18663301221a7066e6a8226a439a4b16
:100544009b181a0044320021117045331b78002b8c
:1005540026d0a8226a43944b9b18453300221a7074
:1005640066e60023336233707e6d002e10d0336a4a
:100574007b6533791b0142465268944663445a684a
:100584009146002aedd09a68f1680120c847e8e74f
:10059400a8226a43844b9b18663300221a70fbe638
:1005a400a8226a43804b9b1869331b78002b00d028
:1005b400f6e6002138000bf02bf9a8226a437a4ba7
:1005c4009b18633301221a70eae6a8226a43764b29
:1005d4009b1868331a78172a00d9fae09300734af3
:1005e400d3589f46a8226a436f4b9b1800221a6473
:1005f400190048310a70683301321a70d0e6a82213
:100604006a43694b9b18d96a0a22380009f0c4fc72
:10061400002807d0a8226a43634b9b18683303223f
:100624001a70bde6a8226a435f4b9b1868331722f1
:100634001a707be3a8226a435b4b9b1862331b78d6
:10064400012b16d0a8226a43574b9b1862331b78a0
:10065400022b00d0a4e6544eb618330060330022b7
:100664009a56534938000af0effc68361723337062
:100674005ce34d4eb6183300603300229a564c4961
:1006840038000af0e1fc68360423337088e600225f
:100694000021280001f07efba8226a43424b9b18ec
:1006a40067331b780c2b0ad00b2b00d091e0a822c7
:1006b4006a433d4b9b18683317221a7036e3a8220d
:1006c4006a43394b9b186c331b78012b07d0a82243
:1006d4006a43354b9b18683301221a7060e6a822de
:1006e4006a43314b9b18683305221a7058e6d522a9
:1006f40052000221280001f04dfba8226a432a4b34
:100704009b1867331b780c2b09d00b2b61d1a822c3
:100714006a43254b9b18683317221a7006e3a822f4
:100724006a43214b9b181b6f1b051b0dd5214900e8
:1007340000228b420ad0a82169431b4b5b18190085
:1007440023310a70683306221a7029e6a8326a43f4
:10075400154b9b1868331b799b0801229a43eae7df
:1007640000221021280001f015fba8226a430e4b39
:100774009b1867331b780c2b09d00b2b29d1a8228b
:100784006a43094b9b18683317221a70cee2a822d9
:100794006a43054b9b181a00683207211170002226
:1007a400da74fde5b03e0020e4380020186c000047
:1007b400801a060000220f21280001f0ebfaa8227b
:1007c4006a43d04b9b1867331b780c2b4ad00b2bf6
:1007d40050d0a8226a43cb4b9b1868331b78162b46
:1007e40000d09fe2c74b9846a8236b4343441a00aa
:1007f4004732002111701a6c90318c469c4471313f
:10080400ff3160460160942084469c446046026047
:10081400982084469c44604601609c2084469c4405
:1008240060460260a02084469c4460460160190032
:10083400a4310a601a007c32182111701900803129
:1008440001220a6004310a6004310a6004319036de
:1008540046440e6046390a70203104200870633320
:100864001a709de5a8226a43a64b9b186833082298
:100874001a7095e5a8226a43a24b984690444346d1
:10088400683317221a7038000af013fe0023424618
:10089400d3749ee7a8226a439a4b984690444346f1
:1008a40023331a7892071221280001f073fa434681
:1008b40067331b780c2b0ed00b2b8ad138000af02f
:1008c400f8fda8226a438f4b9b180022da74683320
:1008d40017321a702ae2a8226a438a4b9b186c3397
:1008e4001b78002b19d0a8226a43864b9b18db7c0b
:1008f400002b22d0a8226a43824b9b1821331b78f9
:10090400002b30d0a8226a437e4b9b181a00683211
:10091400172111700022da7408e2a8226a43794b85
:10092400984690444346683309221a7038000af006
:10093400c0fd00234246d3744be7fa2189003800f6
:100944000af01cfa002807d1a8226a436d4b9b18b1
:10095400683317221a70e9e1a8226a43694b9b188d
:100964000122da74c6e7a8226a43664b9b186833ef
:1009740007221a7014e500221021280001f00afa57
:10098400a8226a435f4b9b1867331b780c2b0ad051
:100994000b2b00d01de7a8226a435a4b9b186833df
:1009a40017221a70c2e1a8226a43564b9b181900f9
:1009b40048311a6f5200d20f0a7068330a221a7033
:1009c400eee4a8236b434f4ef61833006033002245
:1009d4009a56b16b38000af037fb0a22b16a380024
:1009e4000af079f968360b233370d9e4a8226a43f4
:1009f400444b9b1862331b78012b10d0a8226a4306
:100a0400404b9b1862331b78022b00d0c8e4a82209
:100a14006a433c4b9b18683317221a7086e1012104
:100a240038000af0f5fe002800d1d2e6a8226a4375
:100a3400344b9b1868330c221a70b1e40022032152
:100a4400280001f0a7f9a8226a432e4b9b186733ac
:100a54001b780c2b0ad00b2b00d0bae6a8226a43d1
:100a6400284b9b18683317221a705fe1a8226a4347
:100a7400244b9b186c331b78002b07d1a8226a43a4
:100a8400204b9b1868330d221a7089e4a8226a430c
:100a94001c4b9b18683317221a7047e1a8226a433b
:100aa400184b9b18196b142238000af014f900280b
:100ab40007d0a8226a43134b9b18683310221a707c
:100ac4006ee4a8226a430f4b9b18683317221a70ee
:100ad4002ce1a8226a430b4b9b1862331b78012b31
:100ae40012d0a8226a43074b9b1862331b78022b4f
:100af40000d055e4a8226a43024b9b18683317229e
:100b04001a7013e1e4380020a8226a43df4b9b18d3
:100b14001a6b1378fe3b59424b41d21813783f218c
:100b24008b4314d0d3791b04fc2189030b40117a25
:100b340009020b43527a134301339b02a8216943f0
:100b4400d24a5218136468321123137028e490793e
:100b5400032318400002d37918438000517a4900d6
:100b640006231940137a9b0903430133907ac00981
:100b7400014302318b40190052790f231a40093a7c
:100b840080235b0293401b0c4b43d7e700220421d4
:100b9400280001f0fff8a8226a43bc4b9b18673376
:100ba4001b780c2b0ad00b2b00d012e6a8226a4328
:100bb400b64b9b18683317221a70b7e0a8226a4311
:100bc400b24b9b186c331b78002b08d1a8226a43c4
:100bd400ae4b9b18683312221a70fff7e1fba82270
:100be4006a43aa4b9b18683317221a709ee0a82206
:100bf4006a43a64b9b18596b142238000af06bf811
:100c0400002808d0a8226a43a04b9b1868331322fb
:100c14001a70fff7c5fba8226a439c4b9b186833e4
:100c240017221a7082e0a8226a43984b9b186233f9
:100c34001b78012b11d0a8226a43944b9b18623372
:100c44001b78022b01d0fff7abfba8226a438f4b22
:100c54009b18683317221a7068e0002138000af0e4
:100c6400d7fda8226a43894b9b18683314221a7053
:100c7400fff796fb00221121280001f08bf8a8222f
:100c84006a43824b9b1867331b780c2b0ad00b2bbf
:100c940000d09ee5a8226a437c4b9b186833172238
:100ca4001a7043e0a8226a43784b9b1868331522d4
:100cb4001a70fff775fb802292000721280001f0cb
:100cc40069f8a8226a43714b9b1867331b780c2b75
:100cd4000ad00b2b00d07ce5a8226a436b4b9b18ef
:100ce400683317221a7021e0a8226a43674b9b18c5
:100cf400683316221a7075e5a8226a43634b9b1861
:100d0400683300221a70fff74bfb002138000af009
:100d14007ffda8226a435d4b9b18683300221a703a
:100d2400fff73efb172b01d0fff73afba8226a43db
:100d3400564b9b181900453100220a7001390a707c
:100d440022310a70633301321a70fff729fba8229b
:100d54006a434e4b9b1846331b78012b00d0dce3cf
:100d6400a8226a43494b9b1869331b78002b00d097
:100d7400d3e3002e27d0012138000af049fd0028d2
:100d840000d1cae3a8226a43404b9b181900693179
:100d940002220a70327248331b78002b02d1736925
:100da4005b027361737f002b13d1b369013b5a1e3d
:100db400934108333377a8235d43344b5b19653380
:100dc40002221a70a9e3314dad18653500232b704a
:100dd400a3e3b369013b5a1e93410a333377a82333
:100de4005d432a4b5b19653303221a7095e37269dc
:100df400317f280000f0ceffa8226a43234b9b18c2
:100e040067331b780c2b0ad00b2b00d085e39d3362
:100e14006b431e4ded18653519232b707de3a82215
:100e24006a431a4b9b186c331b78002b07d1174d60
:100e3400ad180023eb74653505332b706de3a823df
:100e44006b43124ded18653519232b7065e3a82209
:100e54006a430e4b9b1862331b78012b0ed0a822d9
:100e64006a430a4b9b1862331b78022b00d054e36d
:100e7400064dad18653519232b704ee3034dad189f
:100e84002b00653364352a781a7046e3e438002071
:100e9400a8226a43da4b9b18996a0122380009f0a8
:100ea4001aff00280bd0a8236b43d54ded182b0057
:100eb400643306221a70653504232b702de3a823ae
:100ec4006b43cf4ded180023eb74653519332b704c
:100ed40023e3a8226a43ca4b9b189b6a1b78fe2b08
:100ee40016d0a8226a43c64b9b18db7c002b1bd070
:100ef400a8226a43c24b9b1821331b78002b28d0ad
:100f0400bf4dad180023eb74653519332b7004e322
:100f1400bb4dad182b00653307221a7038000af058
:100f2400c8fa0023eb74f8e2fa21380009f026ff2e
:100f3400002807d1a8236b43b14ded18653519235b
:100f44002b70eae2a8226a43ad4b9b180122da74a3
:100f5400cee7a8236b43aa4ded18653505232b7006
:100f6400dbe2802231699200380009f0b4fe0028e7
:100f74000bd0a8236b43a24ded182b006433082239
:100f84001a70653504232b70c7e2a8236b439c4d6c
:100f9400ed18653519232b70bfe2a8226a43984bdc
:100fa4009b18996a0222380009f095fe00280bd09c
:100fb400a8236b43924ded182b00643309221a7059
:100fc400653504232b70a8e2a8236b438c4ded18e0
:100fd400653519232b70a0e2337f092b07d0a82392
:100fe4006b43874ded1865350b232b7095e2b36980
:100ff400013bb361002b07d1a8336b43804ded183f
:1010040065350a232b7088e2336980229200944666
:1010140063443361a8236b43794ded18653505238b
:101024002b707ae2a8226a43754b9b18996a0122b5
:10103400380009f050fe00280bd0a8236b43704df4
:10104400ed182b00643318221a70653504232b70b5
:1010540063e2a8236b436a4ded18653519232b70a1
:101064005be200220521280000f094fea8226a43d6
:10107400634b9b1867331b780c2b0ad00b2b00d0c7
:101084004be29d336b435e4ded18653519232b7090
:1010940043e25b4dad1865350b232b703de272695d
:1010a400317f280000f076fea8226a43544b9b1837
:1010b40067331b780c2b0ad00b2b00d02de29d3309
:1010c4006b434f4ded18653519232b7025e2a8228b
:1010d4006a434b4b9b186c331b78002b05d1484d4e
:1010e400ad1865350c232b7017e2a8236b43444dd0
:1010f400ed18653519232b700fe2337f0b2b1dd0b0
:10110400a8226a433e4b9b189b6afe221a70a822af
:101114006a433b4b9b18996a0122380009f0c6fdcb
:10112400002813d0a8236b43354ded182b006433ee
:101134000d221a70653504232b70eee1a8226a4350
:101144002f4b9b189b6afc221a70e0e7a8236b4381
:101154002b4ded18653519232b70dee180223169a2
:101164009200380009f0a2fd00280bd0a8236b439d
:10117400234ded182b0064330e221a7065350423b9
:101184002b70cae1a8236b431d4ded186535192357
:101194002b70c2e1a8226a43194b9b18d96a022218
:1011a400380009f083fd00280bd0a8236b43144dad
:1011b400ed182b0064330f221a70653504232b704d
:1011c400abe1a8236b430e4ded18653519232b7045
:1011d400a3e1a8226a430a4b9b18996a01223800aa
:1011e40009f079fd00280dd0a8236b43044ded18b8
:1011f4002b00643310221a70653504232b708ce1a4
:10120400e4380020a8236b43ca4ded186535192333
:101214002b7082e1a8226a43c64b9b189b6a1a78fa
:101224001f231340052b07d0a8236b43c14ded1892
:10123400653519232b7070e1a8236b43bd4ded1860
:101244002b00653311221a700023eb7465e1a82288
:101254006a43b84b9b18996a0122380009f03bfd98
:1012640000280bd0a8236b43b24ded182b00643338
:1012740012221a70653504232b704ee1a8236b43a8
:10128400ac4ded18653519232b7046e1a8226a434d
:10129400a84b9b189b6a1b78002b33d1a8226a4366
:1012a400a44b9b18db7c002b0fd0a8226a43a14bd4
:1012b4009b1821331b78002b1cd09e4dad180023a6
:1012c400eb74653519332b7027e1fa21380009f0e6
:1012d40055fd002807d1a8236b43964ded186535bd
:1012e40019232b7019e1a8226a43924b9b180122ff
:1012f400da74dae7a8236b438e4ded1865351123b4
:101304002b700ae138000af0d4f8a8236b43894d06
:10131400ed180023eb74653513332b70fde0337f38
:101324000b2b07d0a8236b43824ded1865350b2397
:101334002b70f2e0b369013bb361002b07d1a833f2
:101344006b437c4ded18653514232b70e5e0336950
:1013540080229200944663443361a8236b43754d05
:10136400ed1865350c232b70d7e0a8226a43714b26
:101374009b18fd22996a0a70996afc3a380009f0b0
:1013840095fc00280dd0a8236b436a4ded182b0063
:10139400643315221a700133113a1a700023eb7466
:1013a400bbe0a8236b43634ded18653519232b70ff
:1013b400b3e0a8226a435f4b9b18996a0122380064
:1013c40009f089fc00280bd0a8236b43594ded1874
:1013d4002b00643316221a70653504232b709ce0ad
:1013e400a8236b43534ded18653519232b7094e0f6
:1013f400a8226a434f4b9b18996a0122380009f0ce
:101404006afc00280bd0a8236b434a4ded182b002f
:10141400643317221a70653504232b707de0a823ea
:101424006b43444ded18653519232b7075e0a822e4
:101434006a43404b9b189b6a1b78002b33d1a8222c
:101444006a433c4b9b18db7c002b0fd0a8226a43d9
:10145400384b9b1821331b78002b1cd0354dad180d
:101464000023eb74653519332b7056e0fa213800ec
:1014740009f084fc002807d1a8236b432d4ded18f7
:10148400653519232b7048e0a8226a43294b9b1821
:101494000122da74dae7a8236b43264ded1865358b
:1014a40016232b7039e038000af003f8a8236b43a5
:1014b400204ded180023eb74653518332b702ce0a8
:1014c400182a32d001235b42012201923372002197
:1014d40038000af09df933791b01a8216943154aa4
:1014e400521852689b185a689046002a03d09a688a
:1014f400f1680198c0477b6d002b04d01a6a7a65a5
:1015040000221a621a70a8236b430a4ded182a00b0
:1015140069320023137065352b70200009f016ff23
:1015240003b00cbc90469946f0bd00230022019202
:08153400cce7c046e4380020ba
:020000040000fa
:10153c00f0b5de4657464e464546e0b599b0139099
:10154c000d000092019313a808f0f6fb002800dab6
:10155c00abe38300c24a9b58002b01d000221a70c7
:10156c00c04b4000c25c0292181843789946100098
:10157c000af0ecf8c30700d599e3430700d59ee3c6
:10158c00002d01d100f0f0fb6b681793002b01d1fb
:10159c0000f0edfb179b5a1eb3498a4201d81a4240
:1015ac0001d0012317936b789846013b012b01d98d
:1015bc0001239846ae68721eab4b9a4204d833078f
:1015cc0004d08026b60001e08026b600ec688023ab
:1015dc005b049c4200d9a0e0631e23405a42534155
:1015ec005b421c40a14b019a9a4200d869e30099d6
:1015fc00002900d167e32b789b46002316934b46ba
:10160c00002b00d18be0012300220d00029809f081
:10161c00c5fb002800d058e3944b2900ea5c120269
:10162c00013beb5c1343924a1bb2934200d04ee356
:10163c004b461d01af35ff358c466544042b00d954
:10164c0047e32b79002b00d145e32800083009f043
:10165c0042ff049028000c3009f03dff1690169bb9
:10166c007f2b00d83be3834b802203929c4201d812
:10167c00630a039302235a461a400d9264d0013b2d
:10168c005a4613405a42534102339a4643460593f5
:10169c000af0f6f81290169a0692130b0f93730138
:1016ac005b0a0b93049901310e918c4663440a93a7
:1016bc00179b591e08915b420993530c1093434698
:1016cc001193b0465346032b00d11fe3039b1c1e02
:1016dc0058d02100069807f059fb674b984265d902
:1016ec00871c7f00614b9c4667447f0a05990d005f
:1016fc007d430a9b9c466544089b5e19099b1e40d2
:10170c00761b300007f07efb002957d0013e049b6e
:10171c0002330c930223079354e0002462e716aac9
:10172c000121029808f012fe002800d0d5e2002317
:10173c0004935b461b0792d4169b3f2b8fd93f3be0
:10174c0016933f2304938ae75b46db0700d4c8e279
:10175c0002239a469ae70394b4e7484b069a9a42b6
:10176c000ed9474b04330224022210998a4200d925
:10177c00d0e2640002339a1e1288002af6d1c9e224
:10178c000124c7e23f4b069a9a420dd93e4b0433d3
:10179c00022404220f998a429bd8640002339a1eb9
:1017ac001288002af7d194e7012492e747003f18ea
:1017bc0001377f08033701239a4693e70e9b0c935e
:1017cc00012307930599300007f0e0fac7190b9e27
:1017dc002301049aad1a5b19069a9a4200d284e24c
:1017ec00079b9819101a059b7b43c01a210007f020
:1017fc00cdfa5346032b13d0022b49d1234b9842dd
:10180c001ed9039b002b00d07de26400402ca2d992
:10181c000d9b002b00d079e2802c0fd8039451e75c
:10182c001a4b984234d8039b002b00d05fe2012c5a
:10183c0002d96308039345e70e2039e20e2037e204
:10184c000d4b984200d9bee0039b002b00d050e218
:10185c0063000393802b00d834e70e2028e2c046a7
:10186c00ac3d002000000020ff7f0000ff010000c5
:10187c0055aaffffff010100f50f0000ffff01005b
:10188c0038b70000ff0f000028b70000f5ff00007c
:10189c0008964646119b984605005346012b00d0ee
:1018ac00afe0e24b984200d925e280229200002161
:1018bc00009809f0dbfe0b22dd49009809f0ccfe04
:1018cc000023009ad372023313735473079b9373e0
:1018dc009bb21b0ad37343461374009a5674b6b268
:1018ec00360a9674d34b0699994200d9a8e0d17464
:1018fc008bb21b0a1375019b5b0a9846129b069ac6
:10190c00944663441e00f82300994b75b93b0b7643
:10191c0000234b76ff228a76cb7608001c30049984
:10192c0009f0ecfe5346032b00d18fe03100009df3
:10193c002800273009f0e2feaf75bbb21b0aeb752d
:10194c0024238022ea540233573aea54163aba490d
:10195c0028002b3009f080feff235b005522ea544f
:10196c00b64b5532ea54ff3bff3b049a29000298d0
:10197c0009f0ccf8002800d0bfe1019b5a0a5202b2
:10198c000021009809f072fe059b002b00d1e7e1c5
:10199c005346013b5a1e93415b421b06a84a944690
:1019ac00634404930023019303974746d846a34608
:1019bc000c9c5346032b00d1c9e00499009809f004
:1019cc009dfe039de7e008964646119b9846050050
:1019dc00802292000021009809f048fe0b229449c5
:1019ec00009809f039fe0023009ad3720233137366
:1019fc005473079b93739bb21b0ad37343461374a4
:101a0c006be7802292000021009809f02ffe0b2238
:101a1c008749009809f020fe0023009ad372023304
:101a2c0013735473079b93739bb21b0ad373434674
:101a3c0013745346033b5a1e93415b421e404ce7c2
:101a4c0000982030069909f059fe54e73100009ea9
:101a5c003000433009f052fe30002430390009f0d8
:101a6c004dfe30002c30022109f048fe30230122bb
:101a7c00f25400233032b35401320621b1540132f6
:101a8c00b35440334d32f2540233573af254163aaf
:101a9c006c493000473009f0dffdff235b00552215
:101aac00f254664b5532f254ff3bff3b049a310023
:101abc00029809f02bf803000120002b00d0f7e06e
:101acc00049b9a1d0123009e3100029809f01ef818
:101adc00802292000021300009f0c8fd5a493000e4
:101aec0009f00cfe3000e530ff30584909f006fed5
:101afc00691e3500e935ff35280009f0fffd30007f
:101b0c00ed30ff30022109f0f9fdff235b00552277
:101b1c003500f254494b5532f254049bda1d012323
:101b2c003100029e300008f0f1ff01230e9a2900cb
:101b3c00300008f0ebff019b5a0a520200212800ea
:101b4c0009f094fd059b002b00d021e733e0082120
:101b5c004942009d280009f0d1fd01212b1d49426d
:101b6c00180009f0cbfd28000830394909f0c6fdf2
:101b7c0027e7330022000099029808f0c7ff0028dd
:101b8c0000d0bce0802292000021009809f06efd8c
:101b9c00a419ad1b04d02e00bd42ead93e00e8e7e3
:101bac00019b01330193059a9a4200d901e70c94e9
:101bbc005c46c346b8465346032b02d10c9e47469f
:101bcc000fe0089c0c9e47460be02b00320000995e
:101bdc00029808f09bff002800d092e07619641b55
:101bec0004d02500bc42f0d93d00eee75346032b50
:101bfc0009d0104b0634169a9a4205d85346022b3c
:101c0c0011d0053c00e00c244b46002b22d15b4646
:101c1c001b073dd500221100029808f097fb431ecc
:101c2c009841c0b244e00424eee7c046f50f000032
:101c3c0044a90000ffff000064a90000ff010000a0
:101c4c00f8ffff0050a900005252614172724161cd
:101c5c00ffffff0f01230022009d2900029e300090
:101c6c0009f09cf803000120002b21d14b46013bcd
:101c7c001b01ac466344c333ff331c7003000022ca
:101c8c002900300008f042ff0028c3d001200fe0eb
:101c9c00169b149300231593009b220014a9029801
:101cac0002f092fe0028b5d002e00b2000e00320e9
:101cbc0019b03cbc90469946a246ab46f0bd0a20f2
:101ccc00f6e71120f4e71120f2e70120f0e70e20ef
:101cdc00eee70e20ece70e20eae70120e8e70e2005
:101cec00e6e71320e4e70e20e2e70e20e0e70e2003
:101cfc00dee70e20dce70e20dae70120d8e7012032
:101d0c00d6e70120d4e70d9b002b27d0039b1c1e8c
:101d1c0000d122e52100069807f038f88700174b10
:101d2c009c4667447f0a164b9c466044154b984270
:101d3c00d9d8049a2032059d7d43ad18089b5b19b8
:101d4c0009990b405b1b20218c469c4461460791f2
:101d5c00d3180c93002603239a4639e50e20a7e7e7
:101d6c00089c0c9e47463ce700231793064d17aa88
:101d7c000321029808f0eafafff70cfc07020000b6
:0c1d8c000a00fffffffffe0f48b7000039
:020000040000fa
:101d980070b506000d00a8244443c04be418230086
:101da800673319780c292bd88b00bd49cb589f462f
:101db800a8235e43b94b9e190023b374b94bed00b9
:101dc800e95c40200143b06a0170110eb06a4170ad
:101dd8001102090eb06a81701104090eb06ac1704f
:101de800b16a0a715b195b78b26a5371ff23b26af0
:101df8009371330024330a221a7067360123337033
:101e080070bd0121200009f001fd0028f8d0a822aa
:101e18007243a24b9b18996a0622200008f044ffdf
:101e2800002807d1a82373439c4ef61867360a2367
:101e38003370e5e7052d07d0a8237343974ef618ae
:101e4800673603233370dbe7a8237343934ef618f2
:101e5800673602233370d3e7a82242438f4b9b187f
:101e680062331b78012b0dd0a82242438b4b9b1861
:101e780062331b78022bc3d1884eb61867360a2303
:101e88003370bde7a8224243844b9b18996a01220c
:101e9800200008f01eff002807d0a82373437f4eb8
:101ea800f618673603233370aae7a82373437b4edb
:101eb800f61867360a233370a2e7a8224243774b05
:101ec8009b1862331b78012b0ed0a8224243734b18
:101ed8009b1862331b78022b00d091e76f4eb6181f
:101ee80067360a2333708be7a82242436b4b9b1853
:101ef800996a0122200008f0ecfe002807d0a823e8
:101f08007343664ef61867360423337078e7a823c0
:101f18007343624ef61867360a23337070e7a822b7
:101f280042435e4b9b1862331b78012b0ed0a822cc
:101f380042435a4b9b1862331b78022b00d05fe751
:101f4800564eb61867360a23337059e7a82242431b
:101f5800524b9b18996a0a786c331a70ff2a1ad068
:101f6800ed00504b5d19ab78012b61d0002b2dd0c3
:101f7800022b41d0042b00d042e70422200008f0b5
:101f8800a8fe00286ad0a8235e43444b9b196733f8
:101f980006221a7034e7a8234343404ad218243251
:101fa8001378013bdbb21370002b07d1a8334343ee
:101fb8003a4ef61867360a23337021e7a8234343bd
:101fc800364ef61867360323337019e701222000ce
:101fd80008f07ffe002807d0a8235e432f4b9b19eb
:101fe800673308221a700be7a8235e432b4b9b1913
:101ff80067330a221a7003e7a8207043274b1b187f
:102008006d331a700122200008f063fe002807d003
:10201800a8235e43214b9b19673305221a70efe60c
:10202800a8235e431d4b9b1967330a221a70e7e603
:102038000122200008f04dfe002807d0a8235e43a7
:10204800164b9b19673307221a70d9e6a8235e43fb
:10205800124b9b1967330a221a70d1e6a8235e43f4
:102068000e4b9b1967330a221a70c9e6a82242430d
:102078000a4b9b1862331b78012b15d0a8224243c8
:10208800064b9b1862331b78022b00d0b8e6034e30
:10209800b61867360a233370b2e6c046e438002023
:1020a800dca8000044840000a8224243944b9b18fb
:1020b8009a6a12786c331a70002a17d1a822424300
:1020c8008f4b9b189b7c002b30d0a82272438c4be3
:1020d8009b1820331b78002b3dd0894eb61833004f
:1020e80067330a221a700023b37489e6200009f0c6
:1020f800d3f9a8227243824b9b1800229a74d96a9a
:102108000132200008f0d0fd002807d1a82373432e
:102118007b4ef61867360a23337071e6a82373439b
:10212800774ef61867360823337069e66421200075
:1021380008f00efe002807d1a8235e43704b9b19b8
:1021480067330a221a705be6a82272436c4b9b180d
:1021580001229a74b9e7a8227243694b9b18996abd
:102168000122200008f0b5fd002807d0a8235e430f
:10217800634b9b19673307221a7041e6200009f068
:102188008bf9a82373435e4ef6180023b3746736a1
:102198000a33337034e6a8224243594b9b18623302
:1021a8001b78012b0ed0a8224243554b9b18623353
:1021b8001b78022b00d023e6514eb61867360a2347
:1021c80033701de6a82242434d4b9b189a6a11783a
:1021d8001a006d321170d96a0122200008f064fdde
:1021e800002807d1a8237343454ef61867360a23fb
:1021f800337005e6a8237343414ef6186736082363
:102208003370fde5a82242433d4b9b1862331b788f
:10221800012b0ed0a8224243394b9b1862331b78fe
:10222800022b00d0ece5364eb61867360a23337019
:10223800e6e5a8224243324b9b189a6ad0781900e7
:102248007031087090780131087050780131087049
:1022580011781a0073321170d96a0122200008f02f
:1022680023fd002807d1a8237343254ef6186736a7
:102278000a233370c4e5a8237343214ef618673642
:1022880008233370bce5a82242431d4b9b186233d8
:102298001b78012b0ed0a8224243194b9b1862339e
:1022a8001b78022b00d0abe5154eb61867360a230b
:1022b8003370a5e5124eb6186736092333709fe5cb
:1022c800a82343430e4ef61867360c2333700021bb
:1022d800200009f09bfa93e5a8234343084ef6181b
:1022e80067360b2333700021200009f08ffa87e549
:1022f800a8234343024ef6186736002333707fe560
:04230800e438002095
:020000040000fa
:10230c00f0b5de4657464e464546e0b585b0bf4b68
:10231c001c68187d002809d12378002b30d105b01a
:10232c003cbc90469946a246ab46f0bd2378002ba8
:10233c0000d0f8e1210028310022531cdbb2984276
:10234c00edd028310d00283d2d78002d01d11a003b
:10235c00f3e70232d2b2012a00d1e5e1ab490a75aa
:10236c00ff2bdcd09a00d318db00e4186379012b27
:10237c0008d0237b042bd2d89b00a54ad3589f4668
:10238c000300efe7237b042b10d0002323732023bf
:10239c00e35c012b00d19ae1002323702022a3548b
:1023ac006371a370e37063702371b8e7974b0022dd
:1023bc005a75eae7e088a3685b6a03219847606175
:1023cc00431cacd0a3681b69220092499847022396
:1023dc002373a4e7a3681b686069984700280ed094
:1023ec002023e35c002b06d1a3685b6860699847e7
:1023fc0060620323237320230122e2548fe72023fe
:10240c00e35c012b03d020230022e25487e7200059
:10241c0008f00eff00232371f5e77c4b5b7d002b4e
:10242c0000d07ce7794b01225a75636a1b691968e5
:10243c00794b0126994204d88020800006f0a6fc36
:10244c000600724d802292000021286909f00ef9d5
:10245c0021230222e2542a6921001c316069a368fd
:10246c0000969d680023a847e369013302d004233a
:10247c00237354e7654b00225a7550e72123e3562a
:10248c00022b07d0002b0dd0604b00225a75032372
:10249c00237344e7a368db6a002b00d13fe7206974
:1024ac0098473ce7594b1d6900236370ff33ff339a
:1024bc00eb5c00229046552b67d0c146ff239a4611
:1024cc00524b5d682b78002b59d1504b1b699b46a6
:1024dc00237901332371237e9b00504a9b5803932d
:1024ec00180008f0a7ffc6b2ff270740a81c3a0047
:1024fc00039909f0b1f8a378ef19bb70731cdbb228
:10250c00eb18227930329a700236f6b2ae190023eb
:10251c00b370ac6153466b704b464a46002b23d0cc
:10252c00db0700d4bce000235246ff2a1cd05a0023
:10253c003b49525a5946895c69705a44d17a09060a
:10254c00907a00040918107a0918507a00020918b8
:10255c006961d17909069079000409181079091874
:10256c00527912028a182a614246002a00d1a8e048
:10257c002c4ae17811700133537001232b70234bdb
:10258c0000225a7502232373c9e6234beb5caa2b5a
:10259c0093d12b78eb2b47d0e1235b00e85c08f060
:1025ac00f5fe002867d16378002291466370e92319
:1025bc005b00e85c08f0eafe002806d002234a46dd
:1025cc001a439146637801336370f1235b00e85c36
:1025dc0008f0dcfe002856d004234a461a439146e4
:1025ec00637801336370f9235b00e85c08f0cefe7e
:1025fc00002844d008234a461a4391466378013395
:10260c006370012398469a465ae7c046fc3f002067
:10261c0000b6000079a90000ff01000014b600000c
:10262c00fcb80000000000206b783c2b03d0582b2a
:10263c0001d0fe2bb0d1ab78902badd18f3b63701a
:10264c005133eb5c462b46d05323eb5c412b48d0eb
:10265c005423eb5c542b4ad03623eb5c462b4cd0ea
:10266c003723eb5c412b4ed03823eb5c542b50d0f2
:10267c000023984621e701230122914696e7012386
:10268c0098469a461ce7f9235b00e85c08f07efe4e
:10269c000028afd14b46002b41d1013398460ce7b3
:1026ac004b469b0701d501233ee74b465b0701d503
:1026bc00022339e708231a40131e00d134e7032301
:1026cc0032e71b4be2781a7000225a7055e7200053
:1026dc0008f0aefd60e60023984699460b339a4607
:1026ec00eee60023984699460b339a46e8e600231b
:1026fc00984699460b339a46e2e60023984699464b
:10270c0006339a46dce600239846994606339a46e9
:10271c00d6e600239846994606339a46d0e601231e
:10272c0098469a46cce60023024a0021117519e618
:08273c0000000020fc3f00201a
:020000040000fa
:10274400f0b5de4657464e464546e0b589b00f0023
:10275400150000230b6007f0f3fa061e00da41e1ce
:102764008300b84a9c58002c00d144e13c6001230a
:102774009d432f002378002b0dd0607809f0ebf8ef
:10278400c30708d4002d00d12de10427074000d150
:1027940029e10a2727e100232370607808f0daff93
:1027a4000125054000d028e1002f02d0430700d5c1
:1027b40025e17600a44b9e1977780021200003f0d0
:1027c4003bff022802d03ed8002f42d0042f00d96c
:1027d40035e12600ff36ff369c4b9946a14404abf5
:1027e40022001c004b46a9461d009046300008f00c
:1027f40076fe01c41036ae42f8d144463e00731e44
:102804009e41be1bb60004ab9c46664408abc8465a
:1028140025001c000ee0280003f00eff002f00d05e
:10282400c6e0012803d82c00454612e003200436f4
:10283400a64206d031680029edd1002ff6d00d272d
:10284400d1e02c004546042800d1dae0012800d963
:10285400d9e04423e25c1202013be35c134380228f
:1028640092001bb2934200d0cfe04f23e65c3602c5
:10287400013be35c1e4304d120005c3008f02ffed2
:102884000600636b9b4626624823e35c9846e3702c
:10289400013b012b00d9bae04523e75cbbb263815d
:1028a400002b00d1b5e07b1e1f4200d0b3e04a23c9
:1028b400e25c1202013be35c13431bb201939bb243
:1028c4009a4623811b0700d0a7e04c23e05c00025a
:1028d400013be35c184303d12000583008f0fffdae
:1028e4004723e35c1b024622a25c1a43914600d1b3
:1028f40095e043467343039352461109494498466d
:102904008844404500d28ce04346c31a3900029300
:10291400180006f03ffa029bbb4200d283e04c4b06
:10292400984200d9a2e04b4b984244d84a4b984273
:1029340000d907e1831c1800e3615b4663624b46e0
:102944005b44a3625946414421630d275246002a41
:1029540049d0039a94466344e362012302934300fb
:10296400844663445b0801270740df193b4b9c46c0
:1029740067447f0ab7425ed801235b4263612361e7
:1029840081336371029b2370354a138801339bb2f0
:102994001380e380334be3600023a361324b1b6855
:1029a400a34217d0304b1b699c4217d02f001ae06a
:1029b4002c00454647e70323029359e05246002a78
:1029c40037d0039a94466344e362029b022bc6d138
:1029d4007f00cbe7244b00221a60e3e7224b00225e
:1029e4001a61e3e70b27380009b03cbc90469946ce
:1029f400a246ab46f0bd0c27f5e70327f3e70a2709
:102a0400f1e70127efe70d27ede70d27ebe70d27aa
:102a1400e9e70d27e7e70d27e5e70d27e3e70d27ae
:102a2400e1e70d27dfe70d27dde70d27dbe70d27be
:102a3400d9e70d27d7e70d27d5e70d27d3e70d27ce
:102a4400d1e7c046ac3d0020000000203e0200005b
:102a5400f5ffff0ff5ff0000f50f0000ff01000078
:102a6400f43f0020e4320020103e002000230293b3
:102a7400029b002be1d0871c3800e7615b46636250
:102a84004b465b44a36242465a442263029a032a99
:102a940094d16323e25c1202013be35c1343019a89
:102aa4001a4313b2002bc0d12000643008f017fd84
:102ab400e062bf00254b9c4667447f0ab742b6d804
:102ac40001235b426361236181336371173be25ce1
:102ad4001202013be35c1343012b00d052e7594639
:102ae4000131200007f0c2fe002800d04ae700238d
:102af4006371174be25c1202164be35c1343164af4
:102b04001bb2934200d03de72000383008f0e7fcc8
:102b1400124b984200d035e787239b00e01808f059
:102b2400defc0f4b984200d02ce788239b00e01872
:102b340008f0d5fc606189239b00e01808f0cffc05
:102b440020611fe70223029395e7c046ff010000be
:102b5400370200003602000055aaffff52526141bd
:042b640072724161e7
:020000040000fa
:102b6800f0b5de4657464e464546e0b587b0834643
:102b78000f00036899460b782f2b06d05c2b04d0e6
:102b88004a469269826008e001373b782f2bfbd0d8
:102b98005c2bf9d000235a4693603b781f2b04d94d
:102ba800ca463b005f469b4621e12f2380225946b7
:102bb800ca540021584605f077f99ee1fe2c00d949
:102bc800aae163005e53013405a808f0bdf9431c6f
:102bd80000d1a1e1be4b984203d96300020c5a53bd
:102be800013486b21f2e29d92f2e0dd05c2e0bd082
:102bf8007f2ee3d80004010cb64808f043fd0028f6
:102c0800dcd089e101330593059b1a782f2af9d086
:102c18005c2af7d000261f2393427641b300009325
:102c2800059b9b46012c0cd0022c22d0002c00d1f5
:102c380070e1a94be3185b00eb1826e0042300932e
:102c4800eee72b882e2bf4d1630000225a530e2076
:102c580039002431a2429b41034020338b54013276
:102c68000b2af7d12026009b33431e002f23fe5446
:102c7800a3e06b882e2bdcd12b882e2bd9d1e3e750
:102c8800013c023b002c00d144e11a88202af7d0ed
:102c98002e2af5d063000022ea52002c00d13be135
:102ca8002a88202a44d1002601367200aa5a202aee
:102cb800fad0002e3dd0032200991143cab20092e7
:102cc800ea18023a1288043beb182e2a06d0013c77
:102cd800002c03d0023b5a882e2af8d13800243021
:102ce8000b22202108f0c4fc08230193002302933f
:102cf8000393a8462500741c76004346f65a002e16
:102d080031d0202e1ad02e2e16d0029b019a934233
:102d18001bd2ac4200d101e17f2e7dd831006f4833
:102d280008f0b0fc002800d1b3e0009b994686e08b
:102d380000262e2ac4d1bee7ac42e6d00323009a6f
:102d48001a43d3b200932600d5e7019b0b2b54d02e
:102d5800ac4200d1e6e00323009a1a43d3b20093b1
:102d6800ac4200d8dee02423fb5ce52b50d0019b6d
:102d7800082b00d1a7e00c23039a13400c2b02d098
:102d8800d3439b0704d10223009e1e43f3b2009352
:102d9800009a93070ed4039bdb0703d510231a432d
:102da800d3b20093039b5b0704d50823009e1e4300
:102db800f3b200932f23009afa54380002f08cf8eb
:102dc8002f23fb5c002800d08ce05b0700d594e043
:102dd800bb7910221a4200d19ae0534638337a69f7
:102de800d105c90d5918504608f03df9b8605b4641
:102df80005933b68dd680024e6e60323009e1e4336
:102e0800f3b200932423fb5ce52bb4d10b2301938d
:102e180024230522fa54aae70223009a1343dbb2bb
:102e28009946b621ff31300007f0e0f906000306a5
:102e380013d57f2318402a4b1e5c002e26d103236e
:102e48004a461a43d3b20093029b5f265a1c029249
:102e5800fb1824331e7026004de7ff28edd9019b8f
:102e6800013b029a9a4208d2029a531cba18243299
:102e7800000a10704a460092e8e70323009a1a43b2
:102e8800d3b200932600019b029334e74b4600938c
:102e980044e73300413b9bb2192b05d80223039a20
:102ea8001a430392029bd1e73300613b9bb2192b73
:102eb80007d80123039a1a430392203eb6b2029b15
:102ec800c4e7029bc2e7039b9b00dbb2039352e774
:102ed800ffff0000ecb50000ffffff7ff8b5000022
:102ee80058920000042808d19a060dd55b0700d433
:102ef8007de72f238022fa54002007b03cbc90467f
:102f08009946a246ab46f0bd5b07f6d40520f4e728
:102f18000520f2e700232b800620eee7019b0b2b10
:102f280000d16ae7039b9b00dbb203932e000b23bf
:082f38000193033b0293dee666
:020000040000fa
:102f4000f0b5de4657464e464546e0b59fb0040014
:102f50000f000092232302aa9446634400221a70b1
:102f6000483200210ca808f087fb0b94ba4634e1e4
:102f700001239c46e2440ba807f052fb2de1524688
:102f8000d11c01939378002293463ae15346d91c11
:102f90009b78202201921e3a934632e10a000027d4
:102fa000180030388a46092800d933e11900bb00df
:102fb000db195b005b18303b1f00531c11781a00b3
:102fc000080030380928f2d99a460b0022e153460e
:102fd0001b782a2b08d1009a20ca53465b780092ae
:102fe00002229446e2441ae101229446e244524607
:102ff000002519003039092900d910e11900ab006a
:103000005b195b005b18303b1d00531c11781a00e4
:10301000080030380928f2d99a460b00ffe0683bd7
:103020005a461a43934653461b7801229446e2447b
:10303000f8e0009c02ccc9b20ba807f0f1fa0094aa
:10304000cbe0009b40cb9946002e1ed03178002962
:1030500020d000240134335d002bfbd1002d02db96
:10306000ac4200d92c005b469b071cd4a74206d972
:1030700001990ba807f0d4fa0134a742f8d13178ae
:10308000002912d14b460093a7e0233602ab9c46a1
:103090006644dbe70024e1e74446651ca7421ad8f2
:1030a0004b46009399e00029f7d0b0460bab009354
:1030b000002df2d04346a0462c001d00013500989b
:1030c00007f0aefa29780029e6d02b1bb342f5d1e0
:1030d0004446e2e71d0020210ba807f0a1fa6b1c73
:1030e000af42f7d14b46009377e019000ba807f0e9
:1030f00097fa72e00a22100001e0102210005a46ee
:10310000520700d4b1e0009a20ca0092642b00d08c
:10311000b1e0002d00dbaee06d42012259461143c3
:103120008b46a8e0009a20ca0092f2e72722a6e088
:103130007b1c303402aa013ad454ae4216d80500a2
:10314000202b0ed01f003100280005f061feccb20c
:103150003100280005f020fe092ce9d94c44e4b2e6
:10316000e6e747461e00013b984603e04246b84664
:103170001e0017005b46db0704d52d2302aa9355da
:10318000464602365b469b070fd4be420fd235003f
:10319000019c21000ba807f043fa0135af42f8d19a
:1031a00002ab741e1c191e0004e03500f8e7350060
:1031b000f6e71c0021780ba807f032fa631ea6423e
:1031c000f7d16c1caf4201d807e01c0020210ba8ee
:1031d00007f026fa631ca742f7d153461978002955
:1031e00056d0252900d0c3e65b78302b00d1c6e647
:1031f0002d2b00d1cae65146023120220192002235
:1032000093462a2b00d0c9e6009a80ca4b1c9a46e6
:103210000b7800922e2b00d1d9e601256d426c2b44
:1032200000d1fce6002b33d01a00583ad1b2202945
:1032300000d95ae78a001b498a5897465a465207ce
:1032400002d40822100013e0009a20ca009208223b
:10325000100010e05a46520705d5009a20ca009285
:103260000222100007e002221000642b00d159e76f
:10327000009a20ca00920722782b00d156e7d3b2d9
:1032800099460023984606003b00474698465ae771
:103290000ba807f0e3f91fb03cbc90469946a24644
:0832a000ab46f0bdcc9000002c
:020000040000fa
:1032a800503e00201c00000000000000883e002066
:1032b80014000000000000006c3f00200c0000001b
:1032c800000000003c3f002010000000000000004b
:1032d8009c3e00201400000000000000e43800209c
:1032e800a800000000000000b03e0020140000000c
:1032f800000000004c3b00207c00000000000000a3
:10330800ec3c00200400000000000000b03d00205c
:103318006000000000000000f63f002001000000ef
:1033280000000000303d00202c00000000000000dc
:10333800843f00200800000000000000f73f002044
:103348000100000000000000ac3d00200400000067
:1033580000000000103e00202000000000000000d7
:10336800f43f00200200000000000000e4320020ca
:1033780000020000000000008c3f00200800000050
:1033880000000000c83b00207000000000000000a2
:10339800282a00209c06000000000000f83f0020ba
:1033a8000200000000000000943f00200800000018
:1033b80000000000303e0020200000000000000057
:1033c800c43000202002000000000000c43e00209d
:1033d80014000000000000009c3f00200c000000ca
:1033e8000000000028220020000800000000000063
:1033f800e434002000020000000000005c3d0020d2
:1034080028000000000000006c3e00201c000000a6
:1034180000000000fc3f0020180000000100000030
:103428005c3d00206c3e0020783f0020000000003a
:10343800e43400200000000000000020020000002a
:1034480000000000f03c00204000000000000000e8
:103458008c390020a000000000000000fa3f002086
:103468000200000001000000010000004c3f0020a5
:1034780010000000000000002c3a0020900000001e
:1034880000000000843d002028000000000000002b
:10349800bc3a00209000000000000000783f0020a7
:1034a8000c000000000000000400002010000000d4
:1034b800000000001440002004000000010000008b
:1034c800aaaaaaaaa83f0020040000000000000041
:1034d800280200200020000000000000ac3f00206f
:1034e8001000000000000000383c002064000000cc
:1034f80000000000bc3f0020140000000000000095
:10350800d83e00202800000000000000d03f002026
:103518001000000000000000003f00201400000020
:1035280000000000e03f0020040000000000000050
:10353800143f00202800000000000000e43f0020a5
:1035480008000000000000001840002004000000ef
:1035580001000000040000005c3f00201000000093
:1035680000000000e4360020000200000000000017
:10357800140000201402000000000000ec3f0020ae
:1035880004000000000000009c3c002050000000e7
:1035980000000000f03f00200400000000000000d0
:1035a80000000000000000006666666666666666e3
:020000040000fa
:1035b800f0b5de4657464e464546e0b589b08046ea
:1035c8002f23c35c1a009b465f239a4300d0f3e085
:1035d80003689946da681388002b1ed00026013646
:1035e8007300d35a002bfad1414624310c2205a886
:1035f80008f034f85b46db076cd52f2340224146a0
:10360800ca5447462437353a05a9380008f026f841
:1036180001240123009645460fe00026e4e701391e
:10362800002945d05b0054461440e318520864460c
:103638002342f4d04340f2e7444607220f2188464c
:103648000ae0013a03a810184170002a00d1d6e018
:103658000f2b00d8d8e03300404618400100303125
:103668001e093929edd90731ebe7f9540133072b46
:1036780006d80100072af8d803a9895c0132f4e7c3
:10368800280001f029fc002818d10134642c46d008
:103698004b46de680b2205a9380007f0dfff230040
:1036a800052ccad901229246120494467348a046b2
:1036b8003288002ac0d002361021b3e7009ea846ff
:1036c8000500642c00d180e0042876d12f234246df
:1036d8005946d1545b469b0700d4a5e00c360d2112
:1036e800300005f055fb8346411c404606f02afc95
:1036f800051e62d10c2e00d89ce05b46590143465a
:103708005b69591a404604f0cffb051e55d1404667
:10371800243007f073fd0190da46c34623e00725fd
:103728004be0210058e03c006746554a934203d0dd
:103738004900cb5b002b03d14023009a1a43009227
:10374800009b237001234a4613710021584603f059
:103758006fff002800d08fe001235b429c46e244c3
:103768005346002b26d05b46d969484607f07cf8bb
:10377800002800d07ee04b46df685b461c6a534653
:10378800dbb20093019b63730f23e372002323735f
:10379800a376e376ff21534619404b1e5900c918fa
:1037a8008900c918374a15000d3500233448bc462e
:1037b800270014e0d8463de00625280009b03cbca7
:1037c80090469946a246ab46f0bd0725f5e7147822
:1037d8003c19ff26267066700132aa42a3d08342a4
:1037e800f5d04c1c49006346cb5a117879180b70f8
:1037f8001e0a4e70002b94d121000300ece703aba6
:103808007e21197013000de003ab7e219954242307
:10381800e95c0023202905d001339a4202d9f95cda
:103828002029f9d1202024e70121404606f08afb0f
:10383800051ec2d14346d969484607f015f8051e4a
:10384800bbd1202200214346186a07f011ff4146e8
:1038580024310b224346186a07f000ff43461a6ad0
:103868002f234146c95c173b0b40137301234a467b
:103878001371a2e70500a0e705009ee721100100eb
:08388800ffff000018b700006b
:020000040000fa
:10389000f0b5d6464f464646c0b592b005000391f6
:1038a0001700002800d1efe03f261640320004a99f
:1038b00003a8fef747ff041e08d000232b6020005a
:1038c00012b01cbc90469946a246f0bd049b0593dd
:1038d000039905a8fff748f9002800d0e8e005aaf9
:1038e0002f23d35c7f2b00d9e7e0012331009943dc
:1038f0004b1e9941100005f0a5f81c223a4259d000
:10390000002800d0f0e005ab9b7911221a4200d0cc
:10391000cae07b0709d50824cfe705a8fff74cfece
:10392000002800d0bee008231e43330750d507f01f
:10393000adff07000d9b019318000e30390007f012
:10394000e3fe0d9b019318001630390007f0dcfef2
:10395000049b0d9f39000193180007f088fb8146f6
:103960002023fb720d9a029200220299019807f01f
:10397000e2fc0d981c30002107f0c6fe049b0122da
:103980001a714a46002a21d05f6b0022494605a8d9
:1039900005f060fd002801d004008ee7390004988e
:1039a00006f066ff4b46013b049a136100280dd0d8
:1039b000040082e7002879d105ab9b79da066dd443
:1039c000ba0701d5db076bd43b0701d540231e4363
:1039d000049b5b6b6b620d9b0193ab620123310017
:1039e00099434b1e994105a804f028fc2861002842
:1039f0004cd0049b99460d9b98461900484607f009
:103a000036fb0700a86040461c3007f06afd804680
:103a1000e8604b462b60db88ab802e7500236b750e
:103a20002b62ab612c339a46aa448022920000217b
:103a3000504607f021feb30600d440e74346002b72
:103a400000d13ce7ab614b465e897602b04540d879
:103a5000ef614346db0500d131e7049e39003000b9
:103a600007f082fc002801d1022413e043465a0ae1
:103a700012182a6270780123514607f095f9002840
:103a800000d11ce7012405e0092418e7022414e70b
:103a90000224ef61286906f0d1fb0ee704240ce74d
:103aa00007240ae7040008e7072406e7040004e700
:103ab0001c233b4218d10400ffe61c2306240620e9
:103ac0003b4200d0f9e6f6e743469b1b98469e42f0
:103ad000bed23900280003f0f5fb07000128d7d932
:103ae000431cf1d10124d4e704280bd1064b1b68f9
:103af000002b00d111e7044b1b69002b00d10ce710
:0c3b00001224dae60400d8e6103e002093
:020000040000fa
:103b0c00f0b5de4657464e464546e0b585b00190c9
:103b1c000c000391160002930f9b002b28d001235d
:103b2c005b420f9a136006f059fa051e20d0002e46
:103b3c0025d0002c23d02f887a01d21b92006c4bfd
:103b4c009b1864331b78002b06d01300684ad318db
:103b5c001b6e019a93420bd17b01db1b9b00994698
:103b6c00634b4b449a46180003f036fe00280dd1e7
:103b7c0005b03cbc90469946a246ab46f0bd0e9ba8
:103b8c00002bf5d0029b002bd5d1f1e72b889b465f
:103b9c005b015a469b1a9b00554ad21893699c4666
:103bac00d36ed169002910d000226046ac468b42fe
:103bbc00a4412340dc00e418a40004192578002d4e
:103bcc0007d0013201339142f1d1504604f0c6f9cd
:103bdc00cee7654601222270002222625a4652012b
:103bec005946521a920042498a18908c000429783e
:103bfc0009020143ff2018400143e161928c01321c
:103c0c0092b294463b4a944524d0394a90465a463f
:103c1c0052015946511a89004144604688845946dc
:103c2c00521a920042440133d366029b6360039b99
:103c3c00a3600123637500232375019ba361ab690a
:103c4c00002b0ad0082b1cd87600e6600e9b5b007c
:103c5c00236105e001229446d7e7e6600e9b2361c1
:103c6c000f9be2691a6053461b6a002b0fd0204b46
:103c7c004b441b6a002b33d01a6a002a2cd11a0031
:103c8c002de0b300e3600e9b9b002361e8e75346f5
:103c9c001c6202236375200002f0e8ff7b01db1b32
:103cac009b00134ad318db6a013307d07b01db1b63
:103cbc009b000f4ad3181b6b013315d12369626823
:103ccc00e168a0687c01e71bbf00094ce7197c691f
:103cdc006468a04704e01a00136a002bfbd114623d
:103cec00504604f03bf943e7200000f091fdf7e764
:083cfc004c3b0020ffff00001b
:020000040000fa
:103d040061001a03e0001703f8000703ff00010035
:103d140078010001300132010601390110014a0124
:103d24002e017901060180014d00430281018201c7
:103d340082018401840186018701870189018a0146
:103d44008b018b018d018e018f01900191019101f5
:103d540093019401f60196019701980198013d029f
:103d64009b019c019d0120029f01a001a001a201d1
:103d7400a201a401a401a601a701a701a901aa0106
:103d8400ab01ac01ac01ae01af01af01b101b201b5
:103d9400b301b301b501b501b701b801b801ba0166
:103da400bb01bc01bc01be01f701c001c101c201dc
:103db400c301c401c501c401c701c801c701ca01c7
:103dc400cb01ca01cd011001dd0101008e01de012c
:103dd4001201f3010300f101f401f401f8012801d7
:103de400220212013a020900652c3b023b023d0209
:103df400662c3f0240024102410246020a0153027c
:103e0400400081018601550289018a0158028f010f
:103e14005a0290015c025d025e025f02930161023c
:103e240062029401640265026602670297019601c8
:103e34006a02622c6c026d026e029c0170027102b5
:103e44009d01730274029f0176027702780279025f
:103e54007a027b027c02642c7e027f02a60181022c
:103e64008202a9018402850286028702ae0144020d
:103e7400b101b20145028d028e028f0290029102bd
:103e8400b7017b030300fd03fe03ff03ac0304003f
:103e94008603880389038a03b1031103c203020062
:103ea400a303a303c4030803cc0303008c038e03fe
:103eb4008f03d8031801f2030a00f903f303f40390
:103ec400f503f603f703f703f903fa03fa033004df
:103ed400200350041007600422018a043601c1043f
:103ee4000e01cf040100c004d0044401610526047e
:043ef4000000c046c4
:020000040000fa
:103ef800f0b5de4657464e464546e0b585b0040067
:103f0800009115001e0000233360019003a906f0fc
:103f18008df8824600284ad1637d9a46002b46d107
:103f2800237d9b0700d4d5e0a3695a19934200d991
:103f3800dd43002d00d0a8e0237d402213432375e4
:103f480035e0e169019802f003fc0028f4d001286b
:103f580035d0431c37d0e061a368002b00d1a060a6
:103f6800237d7f2b33d8039b9b46e169180007f01c
:103f7800f7f900283ed040440700584b9d4253d9da
:103f88006b0a99465b465b8942464a449a4202d983
:103f980042469b1a99465b4658784b463a00009928
:103fa80006f0b6fd002829d0012363759a465046cd
:103fb80005b03cbc90469946a246ab46f0bd0223ec
:103fc80063759a46f3e7012363759a46efe7210084
:103fd8002c31039b58780123226a06f099fd0028aa
:103fe80004d1227d7f2313402375bce70123637529
:103ff8009a46dce7022363759a46d8e7236ad91bf9
:10400800494502d34b465f022be020002c30490281
:10401800009b9c4661448022920007f01ffb227d92
:104028007f2313402375ede7236a834203d0a369f6
:10403800e268934240d32762a369d805c00d802760
:10404800bf003f1aaf4200d92f0023002c331818a5
:104058003a00009907f002fb227d80235b4213435c
:104068002375ed1b3368db193360009b9c46bc4409
:1040780063460093a369fb18a361e2689a4200d2e1
:104088001a00e260002d00d156e7a369da05d3d102
:10409800039a5289013a590a1140884600d05fe7cd
:1040a800002b00d04de7a068002800d04fe7002182
:1040b800019802f04dfb48e721002c315b46587807
:1040c80001233a0006f06cfe0028b4d00123637582
:1040d8009a466ce707239a4669e7c046ff01000045
:020000040000fa
:1040e800f0b583b000900f0001939500280004f00c
:1040f80035fd061e00d1c6e0542004f02ffd041e35
:1041080058d05422002107f0b3fa26632a00a521cb
:10411800300007f0adfa043d236b9c466544072345
:104128009d432e00002f11d03b783422a354002b3e
:1041380009d0012322003432f95cd154002902d07d
:104148000133102bf8d143230022e254089f042f97
:1041580000d90427e7626764251d280007f0f4fbef
:104168002000183007f0f0fb24610523db1ba36156
:104178006462019a0099300006f0c8ff2060099b2c
:10418800002b00d01c6007f03ff9414a1368013347
:104198001360404b1b68002b12d03f4b1b68002b51
:1041a80013d13c4b1b68db6ae26a93420dd8394b4a
:1041b8001c600ae0300004f03cf80120404264e052
:1041c800344b1c601368012b33d0344a1368013315
:1041d8001360e26a324b1b689a4201d9304b1a606d
:1041e800304993009b189b00cb185b68a3609a68c2
:1041f800e26055609d60e06a83001a1892008a1890
:1042080062611a189200525801321b189b005a50ca
:1042180007f006fa204b1b680120002b35d01d4bf8
:104228001b68da6ae36a9a422fd207f0e1f80120a4
:104238002be01c4e300007f05bf93000143007f01b
:1042480057f93000283007f053f930003c3007f0b8
:104258004ff93000503007f04bf9134f380007f092
:1042680047f9124e300007f043f9114807f040f9ba
:10427800104807f03df9104807f03af90f4b1f6056
:104288000f4b1e60a1e70120404203b0f0bdc046bd
:10429800bc3f0020b03f0020e03f0020c83f002086
:1042a800cc3f0020383c0020d83e0020ec3e0020c7
:1042b800003f0020283f0020143f0020b43f00208a
:0442c800b83f0020db
:020000040000fa
:1042cc00f0b5de4657464e464546e0b583b0009005
:1042dc000c00904601930cab40cb1f78002902d008
:1042ec0001235b420b604346002b56d0002e54d06a
:1042fc00009805f033fa051e4fd003889946a82282
:10430c005a435f4b9b1846331b78012b45d1002f2a
:10431c0017d1c378db0740d5002101980023320068
:10432c0012184b41a8204946484355490918943165
:10433c0008680021002b30d18b4220d182421ed93b
:10434c002be0c3789b0728d500210198002332006d
:10435c0012184b41a82049464843494909189c3139
:10436c0008680021002b18d18b421dd0a8224b4687
:10437c005a43434b9b1847331b78002b0dd1a82372
:10438c004a465a43914674323d4b92469a443d49b3
:10439c00504606f0a1fd012809d003b03cbc904664
:1043ac009946a246ab46f0bd8242dfd9f5e72b8891
:1043bc009b46a8235a465343314ad218136d190011
:1043cc00d26c9446002a56d0187824330022002848
:1043dc000bd0210064468c460132a2424bd019000e
:1043ec00243308780028f7d1644601230b7000238e
:1043fc000b62a8205b465843214b1818038a1b04f8
:10440c009c462b781b0265462b43ff252a40134301
:10441c00cb60038a01339bb21a4a934222d0a82064
:10442c005a465043164a12181382009b4b6043465f
:10443c000b61019b4b618e614f7701230b72002c3a
:10444c0001d0cb6823600e4b4b445a6d002a0bd025
:10445c000d4b4a469b58002b0dd01a6a002a06d1e8
:10446c001a0007e00123dae7596504e01a00136a21
:10447c00002bfbd11162504606f064ff8de7c0465d
:0c448c00e4380020ffff00003839002059
:020000040000fa
:10449800f0b5de4657464e464546e0b589b004912c
:1044a80003921e00002800d0cde0684b1c686569a7
:1044b8006b1c2fd0636a1b699b68984680239b00fe
:1044c80098450ed943465f0a012f16d05f4b01224b
:1044d8009a75002e00d1a1e080231b010793c146e5
:1044e80064e080239b00984507d04146180004f0fb
:1044f8004ffc049b43430493464321230222e25486
:1045080021001c31a3680096de68049b039a2800ea
:10451800b047e569280009b03cbc90469946a246d8
:10452800ab46f0bd21230222e254494b994501d8fc
:104538004b46079321001c316069a368079a0092d3
:104548009b689b46069b4a465343424ad8472123c9
:104558009b465b46e256022a06d1a368db6a002b1b
:10456800f9d020699847f4e7002a0bd1434658024e
:10457800384b9b4658446a02039907f06ff85b462c
:10458800059328e0314b00229a7501256d42c1e759
:10459800002a3dd1761b049b9c46ac446346049399
:1045a8006d02039b9c46ac44634603933900049d0b
:1045b800280004f0edfb06903900280004f024fce4
:1045c80088467b1a9a461d00b34200d93500039be2
:1045d8000593af42a6d1b24523d221230221e1544b
:1045e80021001c316069a36801220092db689846ab
:1045f800069b059ac047212398464346e256022a5d
:10460800c6d1a368db6a002bf9d020699847f4e784
:104618000e4b00229a7501256d427be70696039b97
:1046280005930a4b0021997521230231e154210099
:104638001c316069a36801250095dd68069b059a11
:10464800a847e56966e701256d4263e7fc3f00205e
:08465800ff07000028220020ea
:020000040000fa
:1046600010b582b0604b1a7a092a00d9b3e09300e2
:104670005e4ad3589f468223db051b6adb0000d5c8
:10468000a9e0594b01221a72a5e0002300930122f0
:104690005749584800f052fb002803d0524b0122e2
:1046a0001a7298e007f0a4f80d2803d04e4b0322ad
:1046b0001a7290e04c4b02221a728ce04e49012390
:1046c0000b700023cb6080339b004c4a4c4804f0b5
:1046d00031fc4c4b1870431c03d1434b03221a721c
:1046e00079e0414b0a221a7207f082f8464b1870a3
:1046f00071e03f4803f0eefc431c03d03a4b042228
:104700001a7268e0384b0a221a7264e000213f48ae
:1047100001f09efc344b1860431c03d0324b052241
:104720001a7258e0304b0a221a728223db0580226b
:1047300012025a614fe0364804f0a6f8431c03d039
:10474000294b06221a7246e0274b0a221a7242e0cf
:104750000121304801f07cfc234b5860431c03d0fe
:10476000214b07221a7236e01f4b0a221a7232e0de
:1047700080221d4c92002849206804f097fb02001b
:10478000e060431c10d0184b5868234904f078fab5
:10479000431c10d0144b186804f04aff00281ad0ac
:1047a000114b08221a7216e00f4c206804f012fd1b
:1047b0000a2323720fe00c4c606804f00bfd0a23ff
:1047c000237208e0084c206804f004fd606804f0df
:1047d00001fd0923237202b010bd8223db05802274
:1047e00012025a61f7e7c0461400002070ae0000c4
:1047f00080a000008ca000005c3f0020280000206a
:104800009ca000002500002024000020a8a000009b
:0c481000b4a00000bca00000e4360020b2
:020000040000fa
:10481c00f8b505008169684a080aff263040430153
:10482c001b1a9b00d31831408e007618f600db68fb
:10483c00f618348863011b1b9b00d31800225a64a2
:10484c009a642a69eb689a425cd36101091b89005e
:10485c0059484118d31a4b6463011b1b9b00564fdc
:10486c00ff18fb6ad8b22a00544906f037ff386ba0
:10487c00c0b22a00524906f031ffb369002b49d06f
:10488c00082b55d88026760063011b1b9b004a4fd2
:10489c00ff183100386b06f017fcf86a310006f08f
:1048ac0013fc2b69002b53d1434f6601361bb6000a
:1048bc00be1900220021306b06f020fbb36c0022e5
:1048cc00b2646201121b92004032ba18b16b306ba9
:1048dc00c0b202f0e5ffeb68002b4cd1364f6601fd
:1048ec00351bad007d1900220021e86a06f006fb9d
:1048fc006b6c00226a646a6be86ac0b2314902f0e0
:10490c00cffff8bd6101091b89002b4841189b1a88
:10491c008b64a1e763011b1b9b00274ef61800213b
:10492c00306b06f0d1fbf06a002106f0cdfbb8e746
:10493c008026b60063011b1b9b001f4fff18310024
:10494c00386b06f0c1fbf86a310006f0bdfba8e736
:10495c00802263011b1b9b00174ef61812010021cd
:10496c00306b06f0cbfab16b306bc0b22b696a6856
:10497c0002f096ffafe7802163011b1b9b000e4edc
:10498c00f6180022c900f06a06f0b8fab36c002bd6
:10499c000fd02b69084e6001021b9200b218526bab
:1049ac00a968041ba4003419e06ac0b202f078ffb5
:1049bc00a7e7eb68eee7c0464c3b0020c997000028
:0849cc0021580000ec3c002022
:020000040000fa
:1049d400f0b5de4657464e464546e0b58bb00690e8
:1049e4000e000592049309aa012105f0b3fc0028e6
:1049f40000d098e0099a01925f4b10259a4200d8a2
:104a040093e05e4c2900019804f0c4f9a0421cd93b
:104a14006d00edb2002df5d1802292000021049c9e
:104a2400200006f027febf34ff34ff2302936421e5
:104a3400019804f0aff90790b146049bff2252009d
:104a44009446634498463f255fe002958022920095
:104a54000021049c200006f00dfebf34ff34e6e77d
:104a6400019e59e0019b5e1b002e6dd02000083092
:104a7400290006f047fe20000c30310006f042fe0b
:104a8400059b23713f21280004f084f90700029953
:104a940004f080f983460299380004f0b7f9617094
:104aa4005b469f083f239a469f433f21280004f01a
:104ab400adf901310f43a7705b46e370ad196b1e6e
:104ac4003f210393180004f065f90700029904f0ec
:104ad40061f906000299380004f098f96171b70889
:104ae400524697433f21039804f090f901310f4354
:104af400a771e6711034444526d0002d24d0042338
:104b04009c46e144019b9d421ed24b461e68642e86
:104b140002d8a5d0079b5e437319019a9342a1d88a
:104b2400ab42a1d29ee701201fe080229200002127
:104b3400049c200006f09efdbf34ff34082302933a
:104b4400019b3f2b00d972e7ff235b005522049998
:104b5400ca540b4b5532ca54ff3bff3b0022069804
:104b640005f0d8ff431e9841c0b20bb03cbc904640
:104b74009946a246ab46f0bdf7e107003efc0000b3
:044b8400ff0100002d
:020000040000fa
:104b8800f0b5de4657464e464546e0b587b00400c8
:104b98000f0015009a46002352461360029005a99b
:104ba80005f044fa0190002800d09ee0637d01934f
:104bb800002b00d099e0237d01221a40039200d1f6
:104bc800b3e0e368a2699e1aae4200d92e00002e17
:104bd80054d18ae0e169029802f070fb5be002239d
:104be8006375019381e001236375039b01937ce066
:104bf80002236375019378e0237d7f2b02d85b46ff
:104c08005d022ee0236a581b5845f8d24002381836
:104c180021002c318022920006f020fdefe7226a65
:104c280082420dd0237d7f2b67d821002c31059b34
:104c3800587801232a0006f0b3f8002800d06fe066
:104c48002562a369d905c90d8025ad006d1ab54245
:104c580000d9350023002c3359182a00380006f0f3
:104c6800fdfc761b53461b685b19524613607f197f
:104c7800a3699c466544a561002e36d0a369da0570
:104c8800dfd1059a5289013a590a1140884607d15d
:104c9800002b9fd1a0680128a1d9431ca3d0e061b3
:104ca800059b9946e169180006f05afb00289fd039
:104cb800404405001e4b9e42b1d9730a9b464b46a1
:104cc8005b8942465a449a4202d942469b1a9b46fd
:104cd8004b4658785b462a00390006f061f80028f0
:104ce8008ad001236375039b0193019807b03cbcec
:104cf80090469946a246ab46f0bd21002c314b4662
:104d08005878012305f004ff002804d1227d7f2371
:104d18001340237589e701236375039b0193e4e737
:104d280001236375039b0193dfe707230193dce706
:044d3800ff01000077
:020000040000fa
:104d3c0070b582b005000e001400002816d00029b2
:104d4c0014d0531e032b11d804f0c8fd002813d027
:104d5c005a4b00221a705a4b1b78a34200d18ae09e
:104d6c00564b15221a700120404282e0534b1322fd
:104d7c001a70012040427ce0504b03221a7001381b
:104d8c0077e04e4b01221a700120404271e04b4bf0
:104d9c0016221a70012040426be0484b07221a7011
:104dac000120404265e0454b07221a70454806f049
:104dbc00c9fa012040425ce0404b17221a7038e0df
:104dcc003e4b17221a704048103006f0bbfa0124f3
:104ddc00644248e03c48103006f0b4fa3ce03a4bf0
:104dec005c70374a52685a6000221a73741d7379ca
:104dfc002f2b0cd0002b0ad02200334901320b7b15
:104e0c0001330b7313782f2b01d0002bf6d12e48c6
:104e1c008460009b437310302c4906f05df8012828
:104e2c00c1d1294b5b689b6c002bc5d0264a507bab
:104e3c009847254b5b681b68002bc1d0224a507bde
:104e4c00984704001d4b18700d28c3d01e48103015
:104e5c0006f078fa002c06d11b4a012111701c4b6c
:104e6c0019705a600024174806f06cfa601e8441d1
:104e7c00604202b070bd6946280005f091fd002823
:104e8c0000d17ee76b461b79a34202d0002b00d0e9
:104e9c007de70e490b4806f01ff8012800d07ce78f
:104eac00094b1b78002b9ad0064806f04bfa034ba3
:104ebc0014221a7001204042dbe7c046f93f002063
:104ecc009c3f0020a43f0020c43e0020ffff0000b8
:044edc00943f0020df
:020000040000fa
:104ee000f0b5de4657464e464546e0b587b004006d
:104ef00003680193002102f0dbff051e00d0a8e04b
:104f000001235b4223630133ff339946ff27013bb3
:104f1000ff3b984609e043462363ff27002120001a
:104f200002f08afb051e00d093e0e169019805f0cc
:104f30009ffc051e00d08ce0266a3578002d00d13c
:104f400086e0f27a3f231340a371e52de3d01207e8
:104f50002cd50f2bdfd12f23e35c5b06ded46b0651
:104f60003ed5737b994640239d4363692363737bde
:104f7000ff274b45d2d1f27e1202b37e134300d0fd
:104f800072e0019bdb68049332783f231340013bbe
:104f90005a00d2189200d318364f0d229346bb44c4
:104fa00001210595a24634001e0023e00f2bd2d02c
:104fb000002f04d1300006f025f9484551d02f23a9
:104fc000e05c0125054007d1210024310b2230008f
:104fd00006f096f900283cd043462363ff279de75f
:104fe000af42c4d0ff2799e7234b9d4240d1013700
:104ff000bb451ad03b78e3185d782d021b781d4322
:105000000029f1d0ff2e2ed8280002f037fe0290a2
:10501000731c03937600049ab05a02f02ffe029a92
:10502000824223d12900039ee1e7059d320026003c
:10503000544633785b0606d5002904d05300049a01
:105040009b5a002b02d1013defb267e7ff2765e7ce
:105050000425280007b03cbc90469946a246ab46c2
:10506000f0bd3d00f5e75446ff2757e75446fbe700
:0c5070005446f9e718b70000ffff0000ed
:020000040000fa
:10507c00f0b5de4657464e464546e0b583b0574b35
:10508c001b68002b00d09be0554b1d6801351d6043
:10509c00002d19d0534b1b68ab4222d9002301932e
:1050ac00514b1b68da6a93009b189b004f4a9b5824
:1050bc00012b01d9012301934d4b1b68002b00d10f
:1050cc0084e00123019381e04a4a11684a4b186835
:1050dc0010601960494a13680133136005f0ccfd68
:1050ec00d8e700230193434eb346454b9c46984664
:1050fc003e4c3de03b4b012252421a60d0e7394b0b
:10510c001a60cde7da68426047e01a6a4260002212
:10511c009a620268013a0260d86a6246126890424a
:10512c0001d942461060820012189200a2185268ef
:10513c009a609068d86041609160d96a8a00501872
:10514c0080008146a144484658615018800000599f
:10515c00814601208246d144521892004946115191
:10516c00214a1168da6acb6a9a4201d90123019368
:10517c0033681b68002bbdd05b461b68db68db68a3
:10518c005a689542bbd358699a68d96891609a68f5
:10519c004a60191d42688a42b4d000225a610268e2
:1051ac00013a0260986a0028b6d01a6adf69ba60c0
:1051bc00df6957601a00183247689742a7d1a4e7f5
:1051cc00104a13680133136000230193019803b054
:1051dc003cbc90469946a246ab46f0bdc43f00206d
:1051ec00e43f0020d43f0020b03f0020383c00209a
:1051fc00e83f0020b43f0020b83f0020d83f0020fb
:08520c00cc3f0020dc3f002034
:020000040000fa
:10521400f0b5d6464f464646c0b505000c000368b7
:10522400994600238b75c369002b00d19be0036b67
:10523400013334d0002700260023984608e0434673
:10524400e318020a9a75d875022398440026023797
:105254004b46db68d85b002832d0002e06d14f4a7b
:10526400a0239b01c3189bb2934227d9ff23424634
:105274009b1a9a46b62133041843ff3104f0b8ff51
:10528400ff2811d95346012bd9d800239a467342db
:105294005e41764253463340e31800229a75002259
:1052a40000232e27e52618e000280bd05346002bb8
:1052b400edd04346e31898750123c6e70600c6e718
:1052c400c246e4e700239a46e1e709290ed0a01874
:1052d400437201320b000b290ed0591c286ac35c9f
:1052e400202bf7d0052bf0d13300eee70b2aeed8b4
:1052f400a01847720132eae7a31800215972a37d6e
:10530400002b1ad1002a0cd0637a22000a32082713
:10531400002b04d0102009267642361b30e00021f1
:1053240003e0511ca2183f239375611800238b7569
:105334002b6a1b7b002b00d163722b6ada7a3f2322
:1053440013402372286a1c3006f0c9f82060296ac9
:10535400ca7d12028b7d1343e380296a4a7e1202be
:105364000b7e1343a3801cbc90469946a246f0bd15
:1053740007001373b1180132531e1b78002bd4d0cd
:105384009bb22e2bf4d01900413989b21929f0d8d7
:10539400296a097b3942ecd02033eae7ff07000091
:020000040000fa
:1053a400f0b5d6464f4680b585b004000e00019096
:1053b40003a904f03dfe071e59d1677d002f56d185
:1053c400e368b34203d2227d920700d41e00a5698c
:1053d4000023a361002e4ad0039b5b895b0299469c
:1053e400002d12d0013d701e190003f0d3fc82463b
:1053f4004946280003f0cefc824506d34b4658426a
:105404002840a061361ae56903e0a568002d34d070
:10541400e561002d0fd04e4552d8a3699b19a361b5
:10542400f305db0d67d02900039805f09bff0028e6
:105434005dd0760a3518a369e268934204d9e36023
:10544400227d40210a432275db0510d0226aaa423c
:105454000dd0237d7f2b50d821002c31039b58780d
:1054640001232a0005f09efc071e58d1256238004e
:1054740005b00cbc91469a46f0bd0021200001f015
:1054840069f90500012803d0431c05d0a060bfe7db
:10549400022363750227eae7012363750127e6e720
:1054a4002900019801f00cff05006b1c17d0012d99
:1054b40019d9039bdb69ab4215d9e561b145acd27f
:1054c4004b46f61aa3694b44a361237d9b07e7d59a
:1054d4002900019801f03ef9051ee6d1abe701234e
:1054e40063750127c3e7022363750227bfe702231d
:1054f40063750227bbe71d009de721002c31039b48
:105504005878012305f006fb002804d1227d7f236f
:1055140013402375a0e7012363750127a7e701233f
:0655240063750127a3e7f7
:020000040000fa
:02552a007047c8
:020000040000fa
:10552c00f0b5de4657464e464546e0b585b004001c
:10553c0003680193ff239b46ff2504273800029143
:10554c006ce00f2955d1590628d5517b8b4640214b
:10555c008b4361692163517bff25594558d1d07e1e
:10556c000002917e014300d08ee00199c968894602
:10557c00177840218f43791e4f007f18bf007f188a
:10558c0044480d21884680440c398c4642498a4651
:10559c0065469c464b460394029e09e09d42dad038
:1055ac00ff2535e0514500d070e0013040450ed06c
:1055bc00017851184c78240209782143002df1d040
:1055cc00ff2f5fd87d00e9520d000137ede79946ba
:1055dc006346039c02961278520607d5002d05d01f
:1055ec00ff2f51d87f00002249467a52013bddb291
:1055fc000ee00700002d04d1100005f0fdfd58450c
:10560c0034d001235b42236330e0ff2500e0ff250b
:10561c000021200002f00af800282fd1e1690029ae
:10562c001ed0019805f01ef900281cd1226a1378af
:10563c00002b25d0d17a3f273940a171e52be4d03e
:10564c002e2be4d01f3f0e00be433700083f7e4296
:10565c007e413700029eb74200d172e7ff25d7e7a3
:10566c00071e03d000e007000023e361380005b0fb
:10567c003cbc90469946a246ab46f0bd0700f3e70a
:10568c000427f1e7039c0296ff25c1e7039c0296d1
:0c569c00fae7c04618b70000ffff00004e
:020000040000fa
:1056a80070b50500594c207fc0b2002800d0a7e093
:1056b80000294ad0002d48d0554c6668072434404c
:1056c800012c5ed051480560426000244461846129
:1056d80004614e488160002a58d04c4ad3604b4a36
:1056e800012111774a4a127e520705d5484a0420fb
:1056f800916a117e0142fbd1454a518b0420014336
:105708005183117e80200143117640498a68c96817
:10571800914203d93d48c168891a01613c494968e9
:10572800490743d139498969914233d2374a1168c7
:10573800087837498862916901319161002b5ad004
:10574800334b04229a7501205be0002b59d0002ac4
:1057580057d02f4c666807243440012c0cd02b48b6
:10576800056042600024446184610461002db0d169
:10577800264900208860aee7002943d1dc07eed532
:105788003fe0cc073dd4002be9d0f7e71f4a0021c2
:10579800d160a4e71d4a1269002acfd01c4aff2114
:1057a80091621a490a69013a0a61c7e7174a91687a
:1057b80049089160116949081161d1684908d160a7
:1057c800916892698a420ad210490a681288d205f9
:1057d800d20d0f4882628a6901328a61aee70b4aac
:1057e8001269002aaad00a4a0a49916207490a6935
:1057f800013a0a61a2e7064b01229a75012000e0ee
:10580800002070bdcc07b9d5fbe7c046303d00206d
:0858180000180042ff0100002e
:020000040000fa
:10582000f0b5c64600b50400884688695649020aa4
:10583000ff252a4053019b1a9b00cb182840850066
:105840002d18ed00db68ed182e8873019b1b9b0063
:10585000cb189b6c002b46d173019b1b9b00cf1870
:105860007b699b6898470028fad11c202856431c66
:105870000fd06a7f002a58d11f3202400121914087
:1058800080b2400982231b049c466044c00104f09e
:1058900085fd7001801b80003b4b181843466a6ae7
:1058a0009b699a4257d1012c4dd0022c4fd04346d0
:1058b0001427df57db69984605f05cfe6b68002b08
:1058c0004bd07401a41ba4002f4b1c192634237841
:1058d00001332370aa686b684146380098472378e3
:1058e000013b237039e0284f7501ac1ba4003c1923
:1058f00000220021206b05f007fbaa1b920040321a
:10590000ba18236bd8b2a36ca16b01f0cfffa36cc4
:10591000626b41468968404600690918e06ac0b276
:1059200001f0c4ff0023a36422e01f2202400121f2
:10593000914080b2400982231b049c466044c00110
:1059400006f009f8a5e7012342461375afe7ff23e8
:1059500042461375abe705f00dfe73019e1bb600c2
:10596000094b9e19346a002c02d0637d012b02d0b2
:1059700004bc9046f0bd200001f07ef9022363755f
:0c5980002000fef74bfff3e74c3b00203b
:020000040000fa
:10598c00f0b597b00190022215a901a8fcf7d4fe3e
:10599c00041e02d0200017b0f0bd02ab4f4a029299
:1059ac0003921a8120229a72019b1b781f2b4ad9d1
:1059bc0000254b4f79e00b2202a9109805f04cfe04
:1059cc005de0042801d00400e4e7002ee2d00121c0
