:1000000028200020610400005D0400005D04000061
:1000100000000000000000000000000000000000E0
:100020000000000000000000000000005D0400006F
:1000300000000000000000005D0400005D040000FE
:100040005D0400005D0400005D0400005D0400002C
:100050005D0400005D0400005D0400005D0400001C
:100060005D0400005D0400005D0400005D0400000C
:100070005D0400005D0400005D0400005D040000FC
:100080005D0400005D0400005D0400005D040000EC
:100090005D0400005D0400005D0400005D040000DC
:1000A0005D0400005D0400005D0400005D040000CC
:1000B0005D0400005D0400005D04000010B5064C06
:1000C0002378002B07D1054B002B02D0044800E019
:1000D00000BF0123237010BD0400002000000000B9
:1000E0006C070000084B10B5002B03D007490848E7
:1000F00000E000BF07480368002B00D110BD064B8D
:10010000002BFBD09847F9E7000000000800002012
:100110006C0700006C070000000000000C4B1B681F
:10012000002B06D1EFF31083002B07D00022094BE0
:100130001A70074A136801331360704772B6BFF331
:100140005F8F0022044B1A700132024B1A70F0E7E5
:10015000200000202400002000000020084B1A6826
:10016000013A1A601B68002B09D1064B1B78002B43
:1001700005D00122044B1A70BFF35F8F62B670473F
:10018000200000202400002000000020F0B583B0F3
:1001900001AC012565700027A770257021000F2094
:1001A000064EB047802212028223DB059A61277037
:1001B000657021001C20B04703B0F0BDC1010000F4
:1001C00000B583B001AB80221A700A785A704A7861
:1001D0009A708A78DA701900014B984703B000BD15
:1001E0000104000000B585B00322104B9A60104A4C
:1001F00053681E218B4353600E4A137D62310B43BB
:1002000013750D4B984701230C4A137101A94B60DC
:1002100000234B7006220A700B724B720020084BB1
:1002200098470020074B984705B000BD00180040D4
:10023000004000410010004049020000000800405A
:100240006D02000019030000064A536980210B4328
:1002500053610122044B1A7019000B781342FCD130
:100260007047C04600080040001C004070B5040004
:100270000D784B78002B02D08023DB001D434B7A96
:10028000002B02D080231B011D43486801280FD991
:10029000431E184231D102282DD9022300220132F7
:1002A0005B009842FBD880235B011D431204154379
:1002B0000B7A002B02D080239B011D430426A6400D
:1002C0001149124A4B6813401E42FBD1104B98470C
:1002D000A4000D4B9C466444226A80235B001A40B4
:1002E0002A4322626146094A4B6813401E42FBD1F1
:1002F000084B984770BD0022D5E7000480239B007F
:1003000018430543D4E7C046001C0040FC0700002A
:100310001D0100005D01000010B5040004228240B0
:1003200009480A4943680B401A42FBD1084B9847D9
:10033000A400054B9C466444226A80235B0013435F
:100340002362044B984710BD001C0040FC070000CE
:100350001D0100005D01000030B5D378002B35D1C0
:100360001378802B29D01B06802464022343547801
:100370000225AC4306D19478002C20D18024A4021D
:10038000234341605478013C012C1CD90D042D0CF1
:10039000A024E4052C431C4384620D0CD0242406C5
:1003A0002C431C438462D478002C22D15B031CD5DF
:1003B0009378012B1ED0416117E00023D7E7C024BA
:1003C000E4022343DDE70D4C2340DFE741600C04EA
:1003D000240CA023DB05234383620C0CD0231B06D3
:1003E00023438362D378002B03D15378013B012B45
:1003F00002D930BD8161F8E78160FAE7FFFFFBFFBA
:1004000010B50A00C1090023002905D14309DB0109
:100410008221C9058C4663441F242040012181406C
:100420001800014B984710BD5903000070470000A9
:1004300010B5054B9847054B9847054B9847054B1A
:100440009847054B984710BDE50100008D0100005D
:100450002D0400002D0400002D040000FEE7000024
:1004600010B5174A174B9A4211D01A00164B9A42F0
:100470000DD2164A03339B1A9B0801339B000022BE
:1004800010480F498C58845004329A42FAD1104ACD
:10049000104B9A420AD2D3430E495B1803218B4377
:1004A00004339B18002102C29342FCD10A4AFF2167
:1004B0000A4B8B4393600A4B98470A4B9847FEE7D9
:1004C0006C07000000000020040000200400002051
:1004D000040000202800002000ED00E000000000E3
:1004E00005070000E9040000F0B5C64600B50D4B55
:1004F000984700258224E40580277F058026360260
:10050000094B984602E0A66100E0A661236A3B42DF
:10051000FBD1013505212800C0470029F3D16661D0
:10052000F4E7C04631040000F906000003460B431F
:100530007FD4002243088B4274D303098B425FD3DC
:10054000030A8B4244D3030B8B4228D3030C8B4208
:100550000DD3FF22090212BA030C8B4202D31212EE
:10056000090265D0030B8B4219D300E0090AC30BC3
:100570008B4201D3CB03C01A5241830B8B4201D370
:100580008B03C01A5241430B8B4201D34B03C01A59
:100590005241030B8B4201D30B03C01A5241C30AD1
:1005A0008B4201D3CB02C01A5241830A8B4201D342
:1005B0008B02C01A5241430A8B4201D34B02C01A2C
:1005C0005241030A8B4201D30B02C01A5241CDD2D1
:1005D000C3098B4201D3CB01C01A524183098B421C
:1005E00001D38B01C01A524143098B4201D34B0105
:1005F000C01A524103098B4201D30B01C01A524168
:10060000C3088B4201D3CB00C01A524183088B42EE
:1006100001D38B00C01A524143088B4201D34B00D7
:10062000C01A5241411A00D2014652411046704749
:100630005DE0CA0F00D04942031000D3404253404E
:1006400000229C4603098B422DD3030A8B4212D30E
:10065000FC22890112BA030A8B420CD38901921140
:100660008B4208D3890192118B4204D389013AD07D
:10067000921100E08909C3098B4201D3CB01C01A52
:10068000524183098B4201D38B01C01A5241430965
:100690008B4201D34B01C01A524103098B4201D353
:1006A0000B01C01A5241C3088B4201D3CB00C01AC0
:1006B000524183088B4201D38B00C01A5241D9D2D8
:1006C00043088B4201D34B00C01A5241411A00D259
:1006D0000146634652415B10104601D34042002B55
:1006E00000D54942704763465B1000D3404201B5D4
:1006F000002000F005F802BD0029F8D016E7704789
:100700007047C04670B500260C4D0D4C641BA410FC
:10071000A64209D1002600F019F80A4D0A4C641BC4
:10072000A410A64205D170BDB300EB58984701361E
:10073000EEE7B300EB5898470136F2E758070000A0
:1007400058070000580700005C070000F8B5C046D5
:10075000F8BC08BC9E467047E5000000F8B5C046EE
:0C076000F8BC08BC9E467047BD000000BD
:04076C000100000088
:040000030000046194
:00000001FF
