S00E000054657374494F2E73726563DE
S1130000A021002035010000310100003101000071
S113001000000000000000000000000000000000DC
S1130020000000000000000000000000310100009A
S11300300000000000000000310100003101000058
S113004031010000310100003101000031010000E4
S113005031010000310100008D1200003101000067
S113006031010000310100003101000031010000C4
S1130070310100003101000031010000D10D000008
S113008031010000310100003101000031010000A4
S11300903101000031010000310100003101000094
S11300A03101000031010000310100003101000084
S11300B031010000310100003101000010B5064C8F
S11300C02378002B07D1054B002B02D0044800E015
S11300D000BF0123237010BD7C000020000000003D
S11300E0C82B0000084B10B5002B03D00749084863
S11300F000E000BF07480368002B00D110BD064B89
S1130100002BFBD09847F9E7000000008000002096
S1130110C82B0000C82B00000000000010B5024BE3
S11301209847024B984710BD6D030000A1170000CB
S1130130FEE7000010B5104A104B9A4209D00F4B4D
S11301400D4A03E011681960043304320C498B42F0
S1130150F8D30C4B02E000221A6004330A4A93429B
S1130160F9D30A4AFF210A4B8B439360094B984702
S1130170094B9847FEE7C046C82B0000000000204A
S11301807C0000207C000020A001002000ED00E0A5
S113019000000000C11700006D1500000822C023F4
S11301A0DB055A608222D2050A4B9362C0231B06E8
S11301B093624321535C012083430343DBB25354D2
S11301C01239535C0F20034010200343DBB2535415
S11301D07047C04608000040054AD16980239B024D
S11301E00B43D361402182235B00024AD150704704
S11301F000080040001C004010B5064B9847064B11
S11302009847064B9847020005490648064B98470D
S113021010BDC046D90100009D010000F50B00008F
S11302200044004230010020F1030000024A136937
S113023020210B43136170470008004010B5034BA5
S1130240984703490348044B984710BD2D0200000A
S113025000400041080100208D05000030B58223D4
S1130260DB05CA22995C0125A94301242143C9B2B3
S11302709954B520195CBB3A914303221143C9B286
S11302801954CB215A5CAA432243D2B25A541A5C61
S1130290BC390A4030210A43D2B21A5430BD00009E
S11302A0054B4022DC215A5014395A50034AD36971
S11302B0A8390B43D3617047001C0040000800407C
S11302C010B5054B9847002204490548054B98474B
S11302D0054B984710BDC046A1020000001400421F
S11302E024010020550900005D02000030B582237E
S11302F0DB055922995C0125A94301242143C9B294
S113030099543C20195C4A3A114060221143C9B205
S1130310195458215A5CAA432243D2B25A541A5C43
S113032049398A4306210A43D2B21A5430BD000027
S113033010B5084A116980235B000B431361402107
S1130340E823054AD15005490548064B9847064B12
S1130350984710BD00080040001C0040001C0042EB
S1130360E000002069040000ED02000070B5184BA5
S11303709847C022D20580231B05536193608223D2
S1130380DB058021C9059962124999625B20195CD9
S11303900125A94319548421102454504D300E4E84
S11303A01E500E4E1E5054501C30195C042631430E
S11303B0C9B21954942154501A5CAA431A54084BD4
S11303C09847084B9847084B9847084B984770BD87
S11303D0690E0000000800C010000240000002C0C6
S11303E0F90100003D020000C102000031030000D9
S11303F070B504000D0000280DD0002909D001209B
S113040039220649064B984729002000054B984796
S113041070BD0020F4E70020F2E7C046E4280000A5
S1130420CD090000BD0B0000EFF31083036072B62A
S1130430BFF35F8F7047BFF35F8F036883F3108848
S1130440704710B5C369002B00D0984710BD10B594
S1130450036A002B00D0984710BD10B5436A002BE7
S113046000D0984710BD000070B504000D000028AE
S113047015D0002911D0012041220A490A4B98477E
S113048029002000094B9847002805D1084B6360D8
S1130490084BA360084BE36070BD0020ECE700202C
S11304A0EAE7C04600290000CD090000F90B00006E
S11304B0430400004F0400005B04000010B5040076
S11304C0431E9841C0B25C220349044B9847200064
S11304D0034B984710BDC04600290000CD09000019
S11304E0010D000070B504000D0000280DD0002996
S11304F009D001206E220649064B984729002000A6
S1130500054B984770BD0020F4E70020F2E7C04691
S113051000290000CD090000110D000010B5044BA6
S11305201C68044B984701002000034B984710BDFA
S113053098000020410E0000610E000010B54369D0
S1130540002B00D0984710BD10B58369002B00D054
S1130550984710BD70B504000D00431E9841C0B209
S11305601822FF320649074B98472000064B98474C
S11305700138054201D1002070BD0E204042FBE746
S11305801C290000CD0900005910000070B50400BA
S11305900D00002813D000290FD00120382209496A
S11305A0094B984729002000084B9847002803D19D
S11305B0074B2360074B636070BD0020EEE700200B
S11305C0ECE7C0461C290000CD090000F90F00002B
S11305D03D05000049050000F0B5C64600B504001D
S11305E00E0015001F00002820D0002A20D0002B68
S11305F020D1002056221349134B98472000134B57
S1130600984780462000124B984743465843B042CF
S113061012D3BB19984212D33B002A0031002000A8
S11306200C4CA047002004BC9046F0BD0020E1E73C
S11306300020DFE70120DDE70E204042F3E70E2033
S11306404042F0E71C290000CD09000059100000C9
S11306505D10000063100000F0B5C64600B504004C
S11306600D0016001F00002826D0002A26D0002BDB
S113067026D100206A221849184B98472000184BAD
S1130680984780462000174B984743465843A84252
S113069018D37B19984218D329002000124B98478D
S11306A0002815D13B003200290020000F4CA04740
S11306B0002004BC9046F0BD0020DBE70020D9E711
S11306C00120D7E70E204042F3E70E204042F0E736
S11306D011204042EDE7C0461C290000CD0900006E
S11306E0591000005D10000075120000B1100000E8
S11306F0F0B583B0040000911700002825D0002A2B
S113070025D100209A221649164B98472000164BF3
S1130710984701902000154B984705000099200048
S1130720134B9847061E0DD1AF4212D80199009879
S1130730104B9847381885420ED33A000099200090
S11307400D4B9847300003B0F0BD0020DAE70120DC
S1130750D8E70D267642F5E70D267642F2E7C04645
S11307601C290000CD090000591000005D10000094
S113077055050000B70E000089110000F0B583B0E4
S113078004000D001700002824D0002A24D10020E2
S1130790E1221549154B98472000154B98470190C5
S11307A02000144B9847060029002000124B98475C
S11307B000280DD1B74211D8019928000F4B984752
S11307C0381886420DD33A00290020000C4B984774
S11307D003B0F0BD0020DBE70120D9E70D20404243
S11307E0F6E70D204042F3E71C290000CD09000084
S11307F0591000005D10000055050000B70E000000
S11308003112000070B504000D00160000280ED04F
S113081000290AD0012034220649074B984723684F
S1130820320029002000984770BD0020F3E7002023
S1130830F1E7C04634290000CD09000070B504007A
S11308400D00160000280ED000290AD001203D22F8
S11308500649074B984763683200290020009847EF
S113086070BD0020F3E70020F1E7C0463429000002
S1130870CD090000F8B505000E001700002823D0AC
S1130880002923D0002A23D10020F1221149124B40
S113089098472C0008342000104B98470028F8D0C3
S11308A00025715D20000E4B984720000B4B9847A4
S11308B00028FAD00135BD42F3D32000094B9847F4
S11308C00028FAD02800F8BD0020DEE70020DCE78D
S11308D00120DAE748290000CD090000AB1400002C
S11308E09B140000B5140000F8B5CE46474680B509
S11308F0051E884691461FD000291FD0002A1FD10B
S11309000020862252000F490F4B984700262C00E6
S1130910083420000D4B98470028F8D043469F190F
S113092020000B4B9847387001364E45EFD330000A
S11309300CBC90469946F8BD0020E2E70020E0E7B1
S11309400120DEE748290000CD090000C1140000A1
S1130950A314000070B504000D00002814D0002971
S113096010D0012034220949094B9847200008304F
S11309702900084B9847002803D1074B6360074BB5
S1130980236070BD0020EDE70020EBE7482900005C
S1130990CD0900005D140000E9080000750800009E
S11309A010B50400431E9841C0B253220449054BBC
S11309B0984720000830044B9847002010BDC046DB
S11309C048290000CD09000089140000002800D146
S11309D000BE70470300064A1268002A04D0044A85
S11309E01068C318136070470249014A1160F6E7A2
S11309F09C000020A0210020012040427047802359
S1130A009B014B6000207047012070470020704715
S1130A10024B9C466044800AC0B2704700BCFFBDD4
S1130A2030B5524B984200D188E0514B984200D1E6
S1130A308FE00022038CDB0714D4038C9B07FCD1CA
S1130A4003789B0709D503780224A3430370038C1E
S1130A509B07FCD1038C9B07FCD401230370038CFC
S1130A609B07FCD1038CDB07FCD48285CA00521A95
S1130A709400404B1B199A784270DA7882701A7984
S1130A80C270DB880381038C5B05FCD1CB005B1A4D
S1130A909A00384B9B181B894381038C5B05FCD15E
S1130AA0CB005B1A9A00334B9B189B7A0373038C1D
S1130AB05B05FCD1CB005B1A9A002E4B9B18DB7AAA
S1130AC04373038C5B05FCD1CB005B1A9A00294B62
S1130AD09B189B89C381038C5B06FCD4CB005B1AF7
S1130AE09A00244B9B18DB890382038C1B06FCD4DD
S1130AF0CB005B1A9A001F4B9B181B8A4382038C02
S1130B00DB05FCD4CB005B1A9A001A4B9B185B8A5A
S1130B108382038C9B05FCD4164ACB005D1AAC007F
S1130B2025001419247D0477002484625219537813
S1130B300370038C9B07FCD1002030BD0E4B1B6857
S1130B401A02E024E4001440DB0807221A4022437E
S1130B5070E7094B1B689A091202E024E400224062
S1130B605B0A072423401A4364E7C046004400425A
S1130B7000480042642900002060800010B50B4B3F
S1130B80984702000020002806D08D220849002042
S1130B90084B9847002010BDC3001B1A9900064B50
S1130BA0CB5C9A42F7D00130C0B2ECE7110A0000E6
S1130BB080290000CD0900006429000070B50500FB
S1130BC00C00431E9841C0B2DD220649064B9847EB
S1130BD02C602000054B984701002000044B9847E7
S1130BE070BDC04680290000CD0900007D0B0000C7
S1130BF0210A000000207047F0B501608B690122D2
S1130C0013438B6103689A69D207FBD59A6902245E
S1130C1022439A61334B99420FD0026893690221AF
S1130C208B4393610268936901398B439361036831
S1130C309B69DB07FBD40020F0BD2B4B1A0001C2DB
S1130C402A49816101688C698C61016800248C6087
S1130C500168274DCD6101680F35CD60254D2D0408
S1130C602D0C802189020D43A0260768BD51BC25A7
S1130C70066874510C35066874511F4D2D042D0CF3
S1130C808026B6043543C0260768BD511204120CF1
S1130C900A43F02506687251703D026854511A00E7
S1130CA014321204120C0A4384260768BA511C3306
S1130CB01B041B0C0B43882201688B509023026891
S1130CC0D4500E4B802212025A51BFF34F8FBFF300
S1130CD06F8FC02149005A501A6003680122DA65F7
S1130CE09BE7C046001C0042A0000020000000203A
S1130CF001040000340100205401002000E100E060
S1130D000268936901218B439361002070470000BE
S1130D10F0B5CE46474680B585B080460368A42228
S1130D209A58520645D0A4229C58240A653A144085
S1130D30A146234A93422ED00023002B3CD01A68AC
S1130D4052002CD400224A731A68D200520D0A6051
S1130D501A6892002AD46A461A486E46B0C8B0C6C9
S1130D600068306058680003000F125C0A738868DA
S1130D7008331900144B984743461968A8228B5826
S1130D803F2083434C461C438C50002005B00CBCD0
S1130D9090469946F0BD23010C4A9B18CDE70122E9
S1130DA04A731A68D200D2080A60D1E701220A7194
S1130DB0D1E70A204042E9E71C204042E6E7C0466A
S1130DC0001C00429829000009180000340100208A
S1130DD070B51A4B1D682B681C6DE30714D4A3056A
S1130DE016D4A30118D4E3011BD4230207D5EB685E
S1130DF02A68526C920619D50221280098472307C5
S1130E0016D42B681C6570BD2800AB689847E6E7CC
S1130E1028006B689847E4E703212800EB689847AB
S1130E20E1E700212800EB689847DEE70121E4E7C9
S1130E3004212800EB689847E3E7C046A00000209F
S1130E4010B50300C8204000584302300321034B6F
S1130E50984783001B18580010BDC046B70E000009
S1130E600139FDD87047000010B5084B5A685A6024
S1130E70074B9847074B9847074B9847074B9847AA
S1130E80FF20074B9847074B984710BD004000418F
S1130E90BD120000D91200004D0F00001513000010
S1130EA0290F0000A90E00009022D2051378022118
S1130EB08B431370704710B582B0EFF31083019326
S1130EC072B69023DB051A780124A2431A70986045
S1130ED0D9609023DB051B79DB07FAD49023DB056B
S1130EE01869019B83F3108802B010BD10B582B05D
S1130EF0EFF31083019372B69023DB051A78012473
S1130F00A2431A709860D9609023DB051B79DB0734
S1130F10FAD4044B18685968019B83F3108802B013
S1130F2010BDC04610000048C30707D5044A054B4E
S1130F301A62044B5A68044B1A42FAD17047C046ED
S1130F4006010100001C0040FD0700000122014BC6
S1130F501A71704700080040037DDB07FCD520238D
S1130F60FF3303834908C161024B1A4392B20280E2
S1130F707047C04600A5FFFFF8B504000F00160037
S1130F801D000120084043425841C0B2C52252000E
S1130F901549164B98477908237DDB07FCD5144B7C
S1130FA02380237DDB07FCD52023FF3323830A0022
S1130FB0002304E05700388002339BB20132AB4275
S1130FC008D2F75CB8B23E2BF4D8F018407800028F
S1130FD03843EFE7237DDB07FCD5E161054B069A37
S1130FE013439BB22380F8BDA8290000CD0900005B
S1130FF044A5FFFF00A5FFFF70B505000C00002805
S11310001CD0104B99421BD0002046220E490F4B96
S113101098472C6162689E23134063600C4B1D60EB
S11310200C4B402280215A50BFF34F8FBFF36F8F78
S11310300131FF315A501A60002070BD0020E4E7EE
S11310400120E2E700400041A8290000CD0900008A
S1131050CC00002000E100E04020704780204001E7
S1131060704770B54C0805692E7DF607FBD5202026
S1131070FF302883C80707D501340120814309883C
S1131080090A1170012103E0002101E002312C0062
S113109099420BD2651C6400208880B250545C1EB7
S11310A0A142F3D24C1C000A1055EFE770BD0000BA
S11310B0F0B5DE4657464E464546E0B5C5B08146D6
S11310C016001D000C0048E05346990104AB5A1861
S11310D0414440234846294FB84701239C46E244F3
S11310E05346032BF0D94346E31A99093F22134090
S11310F002E001340136013D039A94420DD8002DDB
S11311000BD030788A0104AFBC466244D05401331A
S11311103F221340EDD10131EBE7022241464B4619
S11311201869174B984700239A460EE053469901D5
S113113004AB5A184144042300933C3348460069E5
S1131140104FB84701239C46E2445346032BEDD984
S11311502B19013B039A9A4209D2FF2322009A4396
S113116090461700FF37039700239A46B8E745B027
S11311703CBC90469946A246AB46F0BD63100000C5
S1131180590F0000790F0000F0B5D6464F46464689
S1131190C0B590B007008A461500FF230C009C439D
S11311A04022FF2168461F4B9847A24520D00134B6
S11311B0FF34002398464346022B19D840236A463D
S11311C051463800184EB047013D002D23D040232E
S11311D09C46E24454450BD03F3B9C46E044EAE73E
S11311E0022221003869114B98470134FF34043D31
S11311F0032DF5D8002D0ED00023994609E0402395
S11312006A4621003800084EB047403401239C460A
S1131210E1444D45F3D810B01CBC90469946A24613
S1131220F0BDC0461B180000B1100000590F0000AB
S113123010B5FF230C009C4301339A4211D1A14203
S113124012D103691A7DD207FBD52022FF321A83FB
S113125003694908D9610369054A1A80802040005E
S113126010BD0D204042FBE70D204042F8E7C04688
S113127041A5FFFF890B02690904090C01238B4076
S1131280108C184043425841C0B2704710B50A4B05
S1131290186803691A7DD20704D50368002B00D0AF
S11312A0984710BD1A7D9207FBD502221A75436830
S11312B0002BF6D09847F4E7CC000020054AD36908
S11312C01B0A1B02F82149010B40D361012313615E
S11312D07047C046001400400D4B02221A750932B3
S11312E05A750B4B9B695B07FBD4094B9B695B07E6
S11312F0FBD40722064B9A75054BDB68DB06FBD54E
S1131300034A137D802149420B43DBB213757047B6
S11313100010004070470000024B9C466044800A65
S1131320C0B2704700FCFFBD10B50B4B98470200DC
S11313300020002806D0094A09490020094B984793
S1131340002010BD83001B189900074BCB5C9A4208
S1131350F7D00130C0B2ECE7191300003A020000E4
S1131360182A0000CD090000C829000070B5040047
S1131370384B9847E369DB071DD483001B189A0098
S1131380354B9B185A681C231A40E3699B07FCD110
S113139023689B0709D5236802218B432360E369F3
S11313A09B07FCD1E3699B07FCD40123134323600F
S11313B0E3699B07FCD1E369DB07FCD483001B18BA
S11313C09A00254B9B185B682360E3699B07FCD15B
S11313D083001B189A00204B9B189B686360E36989
S11313E05B07FCD183001B189A001B4B9B185B689E
S11313F09A040BD4C022D201134207D183001B18D4
S11314009A00154B9B189B89A38115E083001B1838
S11314109A00114989188A89A389D204D20C5B0BDA
S11314205B031343A3818B7B07221A40A3895203D6
S1131430DB04DB0C1343A381074A83001D18A900B6
S11314400D005118C97BA1735219127C3023E25448
S1131450002070BD29130000C829000070B50500E4
S11314600C00431E9841C0B2B4220449044B98476F
S11314702C602000034B984770BDC046182A00001A
S1131480CD0900006D1300000268136802210B43AC
S11314901360D3699B07FCD17047036889B219852F
S11314A070470368188DC0B270470368187E012323
S11314B01840704703681B7E5B0801201840704782
S11314C003681B7E9B0801201840704770B5084CC8
S11314D004232200FC2189020648074DA8472368FB
S11314E0013300D070BD0022014B1A60FAE7C046F8
S11314F0D000002008010020D905000070B50600C6
S1131500FC25AD02064C012229002000054B98471A
S1131510054A1660042329002000044CA04770BD2E
S113152008010020F1060000D00000205906000048
S113153010B50848084B9847084B2422FF321A601C
S113154000221A7104321A73054A9A60054A064B3E
S11315509A6010BDE0000020BD0400008C01002052
S113156014000020840100207401002030B583B0F1
S1131570404B9847404B98470122FC2189023F4841
S11315803F4B984780221204C023DB055A613D4B30
S113159098473D4B19683D483D4B984728E03D48E6
S11315A03B4B984743E03C48394B9847364B1868C7
S11315B03A4B984745E080221205C023DB055A6167
S11315C046E0374B195D3748314B98470134E4B254
S11315D0354B1B7B9C42F4D33448354B9847324BF4
S11315E01A68A023DB009A4240D0C820314B9847A8
S11315F001A8314B9847C023DB0580229C58203238
S11316008221C9058A5890215B5853401C4054409C
S113161001A82A4B984710231C40C0D028481C4DD1
S1131620A847194B1A68511C19602648A847164B3D
S11316301D6805212800244B9847002901D1002D5D
S1131640B1D1002CB7D080221205C023DB059A61EA
S113165015491E481E4B98470028C6D1124B1A7BC9
S113166019681C480A4B98470024B1E71A48104BE4
S11316709847BAE71D010000311500000801002059
S11316807D070000CD140000D0000020342A0000A3
S11316902D180000842A00008C2A0000FD1400008C
S11316A084010020DC2A000074010020A02A00002C
S11316B0211900001D050000290400003704000062
S11316C0602A0000682A0000ED0E0000E0000020FF
S11316D0E5040000A42A0000E42A000010B50B0071
S11316E0002809D111001800054B9847002800DB99
S11316F010BD01204042FBE701204042F8E7C0460C
S11317005917000010B50B000138022809D8110040
S11317101800054B9847002800DB10BD012040420B
S1131720FBE701204042F8E77D17000070B5060092
S1131730064D2B6898680021054CA0472B68586813
S11317400021A047034B1E6070BDC0461800002056
S113175035190000D400002010B50400054B1868AA
S1131760002804D08AB22100034B984710BD002002
S1131770FCE7C046D40000203D08000010B504007A
S1131780054B1868002804D08AB22100034B9847FF
S113179010BD0020FCE7C046D4000020050800006E
S11317A010B5044C2000044B98472000034B984785
S11317B010BDC04624010020A10900002D1700001F
S11317C070B500260C4D0D4C641BA410A64209D123
S11317D0002601F0E9F90A4D0A4C641BA410A64244
S11317E005D170BDB300EB5898470136EEE7B3005E
S11317F0EB5898470136F2E7B42B0000B42B0000F5
S1131800B42B0000B82B0000002310B59A4200D17D
S113181010BDCC5CC4540133F8E703008218934232
S113182000D1704719700133F9E700000FB40B4B76
S113183013B51C68002C05D0A369002B02D120002D
S113184000F0F2FA05AB049AA1682000019300F0BD
S1131850C7FC16BC08BC04B01847C04618000020DA
S113186070B505000E00002804D08369002B01D157
S113187000F0DAFAAB69AC68002B02D1280000F062
S1131880D3FA244B9C420FD16C68A3891B0702D561
S11318902369002B20D12100280000F057F90028EB
S11318A01AD00120404270BD1B4B9C4201D1AC6850
S11318B0EBE71A4B9C42E8D1EC68E6E7013B0136C2
S11318C0A360002B04DAA269934216DB0A2914D020
S11318D023685A1C226019703178A3680029EDD15D
S11318E0013BA360002B0FDA22000A31280000F02C
S11318F0D7F8431CD5D00A20D5E72200280000F0F1
S1131900CFF8431CE8D1CCE70A2023685A1C226094
S11319101870C8E7342B0000542B0000142B00006F
S113192010B5034B01001868FFF79AFF10BDC046BD
S1131930180000204A424A41802310B55200DB00BF
S113194000F002F810BD0000F0B51D004F4B85B04B
S11319501E6804000F000092002E05D0B369002B0E
S113196002D1300000F060FA494B9C4250D17468B7
S1131970009B022B05D0012B00D984E0002D00DA56
S113198081E02100300000F0E1F9616B002908D00A
S113199023004433994202D0300000F051FB00236D
S11319A063630023A3616360A3891B0603D52169D4
S11319B0300000F045FBA389364A1340A381009B05
S11319C0022B5AD003AB02AA2100300000F0C2FA65
S11319D0A3891843A081002D24D1029D280000F082
S11319E025FB0195071E42D1029B0193AB4239D1DD
S11319F0012040420223A2891343A3810023A36050
S1131A0023004733236023610123636105B0F0BDE4
S1131A10214B9C4201D1B468AAE7204B9C42A7D138
S1131A20F468A5E7002FD9D0B369002B02D13000A8
S1131A3000F0FAF9009B012B03D1A389009A1A4301
S1131A40A2810820A389276027616561184018D006
S1131A50012018400023984211D06D42A360A56173
S1131A601800D3E7019800F0E1FA071EC0D08023E4
S1131A70A289019D1343A381D6E70020BAE7A5609C
S1131A80C4E7A060C2E701204042BFE7180000207D
S1131A90342B00005CF3FFFF542B0000142B0000D8
S1131AA0F8B505000E001400002804D08369002B4B
S1131AB001D100F0B9F9224B9C422DD16C68A36985
S1131AC0A360A3891B0731D52369002B2ED023687B
S1131AD02269F7B2981A6369F6B2984205DB2100CD
S1131AE0280000F033F9002826D1A3680130013B17
S1131AF0A36023685A1C22601F706369984204D053
S1131B00A389DB071AD50A2E18D12100280000F07A
S1131B101DF9002812D00FE00A4B9C4201D1AC6899
S1131B20CDE7094B9C42CAD1EC68C8E721002800E4
S1131B3000F00CF80028CAD0012676423000F8BD27
S1131B40342B0000542B0000142B0000364B70B5CE
S1131B501D6806000C00002D05D0AB69002B02D1D6
S1131B60280000F061F9314B9C420FD16C680C23C2
S1131B70E25E93B219072DD4D90611D409230120AA
S1131B80336037331343A381404270BD284B9C42DA
S1131B9001D1AC68EBE7274B9C42E8D1EC68E6E75F
S1131BA05B0713D5616B002908D0230044339942A5
S1131BB002D0300000F044FA002363632422A38996
S1131BC09343A38100236360236923600823A289CC
S1131BD01343A3812369002B0BD1A0218022A38965
S1131BE0890092000B40934203D02100300000F0A2
S1131BF0D9F90123A289134011D00023A36063699A
S1131C005B42A361002023698342BED10C23E25EC0
S1131C101306BAD540231343A3810138B5E79207CD
S1131C2000D46369A360EDE718000020342B0000A2
S1131C30542B0000142B0000F7B58A8905000C0012
S1131C40130760D44B68002B04DC0B6C002B01DC05
S1131C500020FEBDE76A002FFAD000232E682B6017
S1131C6080235B011A4034D0606DA3895B0706D5DD
S1131C706368C01A636B002B01D0236CC01A020086
S1131C80216A00232800E76AB847A189431C06D1CA
S1131C902B681D2B31D82C4ADA40D3072DD50023CD
S1131CA0636023692360CB0405D5431C02D12B68F0
S1131CB0002B00D16065616B2E600029C8D0230021
S1131CC04433994202D0280000F0BAF9002060633E
S1131CD0BFE70123216A2800B847431CC5D12B68FC
S1131CE0002BC2D01D2B01D0162B01D12E60AFE7E3
S1131CF04023A2891343A381ABE740230B43012074
S1131D00A3814042A5E70F69002FA1D00B680F60A3
S1131D10DB1B01930023920700D14B69A360019B55
S1131D20002B00DC94E7019B3A00216A2800A66A94
S1131D30B047002803DC4023A2891343DFE7019B5B
S1131D403F181B1A0193EAE7010040200B6970B5A4
S1131D5005000C00002B01D1002070BD002804D028
S1131D608369002B01D100F05FF80B4B9C4209D131
S1131D706C680C22A35E002BEED021002800FFF734
S1131D805BFFEAE7054B9C4201D1AC68F1E7044BE9
S1131D909C42EED1EC68ECE7342B0000542B00009D
S1131DA0142B000010B5024900F0B2F810BDC04673
S1131DB04D1D0000002310B50400036043608360E0
S1131DC081814366C28103614361836119000822F2
S1131DD05C30FFF722FD054B24626362044BA3626F
S1131DE0044BE362044B236310BDC0464D2700003F
S1131DF075270000AD270000D927000070B56825BD
S1131E004A1E55430E002900743100F063F9041E84
S1131E1008D000212A00016046600C30A0606832BE
S1131E20FFF7FBFC200070BD836913B50400002B91
S1131E3028D18364C3640365134B144A1B6882620C
S1131E400193984201D101238361200000F020F81E
S1131E506060200000F01CF8A060200000F018F87A
S1131E600022E06004216068FFF7A4FF0122092139
S1131E70A068FFF79FFF02221221E068FFF79AFF94
S1131E800123A36113BDC046102B0000A51D000053
S1131E90F8B51E4B07001E68B369002B02D1300051
S1131EA0FFF7C2FF4836B4687368013B04D5336852
S1131EB0002B07D03668F6E70C22A55E002D0DD066
S1131EC06834F2E704213800FFF798FF30600028F7
S1131ED0F0D10C2304003B602000F8BD0123200056
S1131EE05B42E3810233A38165662560A56065607A
S1131EF025616561A561082229005C30FFF78DFC2E
S1131F006563A563A564E564E6E7C046102B00009D
S1131F10F7B504000700002601914834002C01D1D4
S1131F203000FEBD6368A5680093009B013B0093ED
S1131F3001D52468F2E7AB89012B08D90E22AB5EE8
S1131F40013304D029003800019B984706436835C3
S1131F50EBE7000070B50E001D000E23C95E90B0C3
S1131F601400002907DA00232B60B3891B0611D45F
S1131F708023DB000FE001AA00F05AFC0028F2DB0A
S1131F80F022029B12021340054A9B185A42534105
S1131F902B60EDE740230020236010B070BDC046E5
S1131FA000E0FFFFF7B502268B8905000C003342E1
S1131FB006D0230047332360236101236361F7BD07
S1131FC001AB6A46FFF7C6FF00990700280000F03E
S1131FD081F8002808D10C22A35E9A05EFD40322CD
S1131FE093431E43A681E4E70F4BAB628023A2898F
S1131FF020601343A381009B20616361019B002B3C
S11320000DD00E23E15E280000F024FC002806D049
S11320100322A38993431A0001231343A381A089B4
S11320203843A081CBE7C046A51D000010B5034B83
S11320300100186800F04EF810BDC04618000020DA
S113204070B50500002910D00C1F2368002B00DA9E
S1132050E418280000F02FFC1D4A1368002B05D15A
S113206063601460280000F027FC70BDA34209D906
S1132070216860188342F3D118685B6841182160B5
S1132080EEE713005A68002A01D0A242F9D9196870
S11320905818A0420BD120680918581819608242B8
S11320A0E0D110685268411819605A60DAE7A0421A
S11320B002D90C232B60D5E721686018824203D132
S11320C0106852684118216062605C60CAE7C046CB
S11320D0D8000020032370B5CD1C9D4308350600AD
S11320E00C2D1ED20C25A9421DD8300000F0E3FBB4
S11320F0254A14682100002919D1244C2368002B97
S113210003D1300000F010FB20602900300000F003
S11321100BFB431C2CD10C233000336000F0CCFBB0
S113212003E0002DDFDA0C233360002070BD0B6860
S11321305B1B1AD40B2B03D90B60CC18256003E06E
S11321408C420ED163681360300000F0B5FB2000B0
S113215007220B30231D9043C31AE7D05A42E250A2
S1132160E4E74B6863600C00EEE70C004968C2E7E3
S11321700323C41C9C43A042E0D0211A300000F089
S1132180D3FA431CDAD1C6E7D8000020DC000020D3
S1132190936810B5013B9360002B05DA9469A34260
S11321A008DBCBB20A2B05D01368581C10601970D9
S11321B0C8B210BDFFF774FCFBE7F8B506000F00CA
S11321C01400D518AC4201D1002007E021783A0070
S11321D03000FFF7DDFF0134431CF3D1F8BD0000EC
S11321E0F0B59FB006000F0014000593002804D03A
S11321F08369002B01D1FFF717FE7F4B9F425CD10F
S11322007768BB891B0762D53B69002B5FD000232D
S113221006AD6B6120336B761033AB760294029C6F
S11322202378002B5DD1029BE31A04930DD0049B09
S1132230029A39003000FFF7C0FF431C00D1CCE004
S11322406A69049B944663446B612378002B00D134
S1132250C3E00122002352426A6002A95432521898
S113226001342B60EB60AB601370AB652178052201
S1132270624800F015FB631C9C46002835D1296890
S1132280CB0604D5532302AA20309B1818700B07E1
S113229004D553232B2002AA9B18187023782A2BC9
S11322A02CD000200A21099B2278303A092A00D830
S11322B06BE000282AD0099328E0514B9F4201D1BA
S11322C0B7689EE74F4B9F429BD1F76899E7390067
S11322D03000FFF73BFC002899D0012040421FB09A
S11322E0F0BD252B9FD001349AE7444B2968C01ACE
S11322F0012383400B432B606446B7E7059B181DFD
S11323001B680590002B3ADB0993644623782E2B37
S11323100BD16378621C2A2B3FD1059B02341A1D12
S11323201B680592002B35DB07932178032236487E
S113233000F0B6FA002807D0334B2A68C01A4023AD
S1132340834013432B6001342178631C06222F48F9
S11323500293297600F0A4FA002844D02C4B002BD9
S11323602FD12968059B0722C90528D59B189343BB
S1132370083305936B69039A9B186B614FE75B42C3
S1132380EB6002230B432B60BFE74B4301349B18E4
S1132390012089E701235B42C6E7002314000A20D9
S11323A01A006B6021783039092903D9002BBCD07D
S11323B00792BAE74243013452180123F2E7073384
S11323C0D5E705AB00933A00124B2900300000E03A
S11323D000BF0390039B0133CCD1BB895B0600D5BE
S11323E07BE70B987BE705AB00933A00094B290088
S11323F0300000F07FF8ECE7342B0000742B000071
S1132400542B0000142B00007A2B00007E2B0000BC
S113241000000000BB210000F7B5150001938A6895
S11324200B6900900C00934200DA130022002B6029
S113243043321278002A01D001332B6023689B06B3
S113244002D52B6802332B60062723681F4027D050
S1132450230043331B785A1E93412268920630D4DA
S11324602200019943320098089EB047431C25D0AE
S1132470062320682A68E16803400025042B03D161
S11324808D1AEB43DB171D40A3682269934201DDDB
S11324909B1AED180027BD4220D1002010E001371F
S11324A0E3682A689B1A9F42D2DA22000123193278
S11324B001990098089EB047431CF0D10120404286
S11324C0FEBD3020E1184331087021005A1C45310B
S11324D00978A218433202331170C1E722000123A4
S11324E01A3201990098089EB047431CE6D0013780
S11324F0D1E70000F0B58BB006920A00433207938F
S1132500059004920A7E0C00109B6E2A00D18FE085
S113251017D8632A2CD008D8002A00D199E0582A69
S113252054D026004236327029E0642A01D0692A48
S1132530F7D121681A68080623D5111D196015689A
S113254025E0732A00D188E008D86F2A29D0702AA0
S1132550E7D1202209680A43226003E0752A20D0CB
S1132560782ADED122007821453211706C4A30E09D
S11325700E001A684236111D196013683370012366
S113258079E04906D9D5111D19600023D55E002DC7
S113259003DA2D23049A6D421370624B0A270393C6
S11325A02FE020681968050603D5081D18600D681A
S11325B005E04006F9D50D68081D1860ADB2594B09
S11325C0082703936F2A18D00A2716E045310A70AA
S11325D0544A03921A682168101D18601568080689
S11325E022D5CB0702D52023194321601027002DC3
S11325F003D1202322689A4322602300002243331C
S11326001A706368A360002B5CDB04222168914389
S11326102160002D58D1049E002B64D02600039B1A
S113262042361B7833705EE04806DAD5ADB2D8E79F
S113263009681A68080605D5111D196013686269CE
S11326401A6006E04906F7D5111D19601368A28ABD
S11326501A800023049E236154E01A68111D196036
S1132660166800216268300000F01AF9002801D0D1
S1132670801B6060636823610023049A137041E047
S11326802369320006990598079DA847431C43D047
S1132690236800259B070FD4099BE06898423DDA24
S11326A018003BE022000123193206990598079E81
S11326B0B047431C30D00135E368099A9B1A9D4208
S11326C0F0DBE9E7002DA9D0049E28003900FEF7CD
S11326D00DFC039B013E5B5C280033703900FEF760
S11326E0EAFB051EF1D1082F09D12368DB0706D5C3
S11326F063682269934202DC3023013E3370049BF9
S11327009B1B2361079B09AA00932100069B059844
S1132710FFF782FE431CB3D1012040420BB0F0BD51
S1132720962B0000852B0000002370B5064C050095
S113273008002360FEF74EF9431C03D12368002BE5
S113274000D02B6070BDC0469C01002070B50C0009
S11327500E25495F00F0B2F8002803DB636D1B18F7
S1132760636570BDA389024A1340A381F9E7C0469B
S1132770FFEFFFFFF8B51F008B8905000C00160062
S1132780DB0505D50E23C95E0022022300F074F890
S1132790A389054A28001340A38132000E23E15E79
S11327A03B0000F01FF8F8BDFFEFFFFF70B50C0011
S11327B00E25495F00F060F8A389421C03D1054A45
S11327C01340A38170BD802252011343A38160652D
S11327D0F8E7C046FFEFFFFF10B50E23C95E00F017
S11327E015F810BD70B50500080011000022064C54
S11327F022601A00FEF786FF431C03D12368002BD6
S113280000D02B6070BDC0469C010020002370B531
S1132810064C050008002360FEF7EEF8431C03D1C4
S11328202368002B00D02B6070BDC0469C010020A3
S1132830002370B5064C0500080011002360FEF764
S1132840DEF8431C03D12368002B00D02B6070BD3D
S11328509C010020002370B5064C0500080023608D
S1132860FEF7D2F8431C03D12368002B00D02B6061
S113287070BDC0469C01002070B505000800110021
S11328800022064C22601A00FEF7C0F8431C03D154
S11328902368002B00D02B6070BDC0469C01002033
S11328A0C9B28218904201D10020704703788B424C
S11328B0FBD00130F6E770477047000070B50500A3
S11328C0080011000022064C22601A00FEF706FFE1
S11328D0431C03D12368002B00D02B6070BDC0467D
S11328E09C0100202E2E2F68616C2F7372632F6859
S11328F0616C5F6164635F73796E632E63000000D3
S11329002E2E2F68616C2F7372632F68616C5F6366
S1132910616E5F6173796E632E6300002E2E2F68E3
S1132920616C2F7372632F68616C5F666C6173688E
S11329302E6300002E2E2F68616C2F7372632F6834
S1132940616C5F696F2E63002E2E2F68616C2F738C
S113295072632F68616C5F75736172745F73796EF3
S1132960632E63000000000500000000000000006A
S11329700000000000000000000000000000000053
S11329802E2E2F68706C2F6164632F68706C5F61EA
S113299064632E63000000000001020304050607BF
S11329A0080C1014182030402E2E2F68706C2F6ED7
S11329B0766D6374726C2F68706C5F6E766D637481
S11329C0726C2E630000000004000000040031401B
S11329D0000003002BF600000000000000000000CF
S11329E000000000000000000000000000000000E3
S11329F000000000000000000000000000000000D3
S1132A0000000000000000000000000000000000C2
S1132A1000000000000000002E2E2F68706C2F7341
S1132A206572636F6D2F68706C5F736572636F6D31
S1132A302E6300004F646F6DE874726520636861F3
S1132A407267E9203A20256C75206DE8747265730D
S1132A5020616363756D756CE9732E0D0A000000C7
S1132A60547275650A0D000044697374616E636580
S1132A7020706172636F75727565203A2025752028
S1132A800A0D000046616C73650A0D00536175768A
S1132A906567617264652064697374616E63650A55
S1132AA00D0000005B43414E2052585D204D65737C
S1132AB073616765207265E77520212049443A20D7
S1132AC0307825303358207C20444C433A20256408
S1132AD0207C20446174613A200000002530325883
S1132AE0200000002D3E204F72647265207370E94F
S1132AF063696669717565207265E775207375721F
S1132B00206C27494420307835303020210D0000D6
S1132B101C00002000000000000000000000000075
S1132B2000000000000000000000000000000000A1
S1132B300000000000000000000000000000000091
S1132B400000000000000000000000000000000081
S1132B500000000000000000000000000000000071
S1132B600000000000000000000000000000000061
S1132B7000000000232D302B2000686C4C0065669B
S1132B8067454647003031323334353637383941BA
S1132B9042434445460030313233343536373839D0
S1132BA06162636465660000F8B5C046F8BC08BCA1
S1132BB09E467047E5000000F8B5C046F8BC08BC66
S10B2BC09E467047BD000000B1
S1132BC83401002054010020A4000020B400002097
S1132BD8BC000020AABBCC001C00002000000000A0
S1132BE8342B0000542B0000142B000000000000BC
S1132BF800000000000000000000000000000000C9
S1132C0800000000000000000000000000000000B8
S1132C1800000000000000000000000000000000A8
S1132C280000000000000000000000000000000098
S10F2C380000000000000000000000008C
S9030000FC
