:020000040000fa
:10000000f07f0020950d00005311000073110000d7
:1000100000000000000000000000000000000000e0
:100020000000000000000000000000004b10000075
:1000300000000000000000004b1000004b1000000a
:100040004b1000004b100000ad0f00004b100000e3
:100050004b1000004b1000004b100000a9070000df
:100060004b1000004b1000004b1000004b10000024
:100070004b100000dd0d00004b1000004b10000085
:100080004b1000004b1000004b1000004b10000004
:100090004b1000004b1000004b1000004b100000f4
:1000a0004b1000004b1000004b1000004b100000e4
:0c00b0004b1000004b1000004b10000033
:020000040000fa
:1000bc00f8b5c046f8bc08bc9e467047750d0000ec
:1000cc00f8b5c046f8bc08bc9e4670474d0d000004
:020000040000fa
:0800dc004403000001000000d4
:020000040000fa
:1000e4000023f0b506001500b1b0079103930799fa
:1000f4000b78002b00d10ce101235b420c9310ab75
:1001040000240e9380230b940d940f930b5d002b0e
:1001140001d0252b2ad1002c06d02200300000f07b
:1001240070ff079b1b190793079b1a78252a00d099
:10013400e4e0013304930793022301219c46102732
:10014400079803782b2b1ad025d8202b1ad0232bd1
:100154001dd02a2b28d000f05ffe0d90079b1a7843
:10016400303a092a31d801330793f7e70134cde750
:100174000b9b05930b4301300b930790e0e704239b
:100184000b9a0fe00b9b0593059a08230ae00b9b3f
:1001940005933b43efe72d2bead0302bd9d16246b0
:1001a4000b9b05931343e6e72b6801301a1d1b686c
:1001b40007902a600d93002b07da0b9a5b42059295
:1001c400012205990d934a400b920b9bda0702d545
:1001d400022293430b93079b1a782e2a0ed10022f6
:1001e400581c0c9207905a782a2a27d10233079375
:1001f4002b681a1d1b682a6005930c9307a800f04e
:10020400a1fe079b0700187800f0aaff692800d117
:1002140082e034dc632800d1dbe01adc252800d13d
:10022400e8e0612858d0049b01220793002352423e
:100234000c920b930d9300930232e5e000f0ecfd79
:100244000c90079b1a78303a092ad7d801330793c0
:10025400f7e7642860d06728e5dc2a00390008a89d
:1002640000f0bafe002800d1afe0079b0ba95a1c8e
:1002740007921b7808aa300000f088ff3de0702840
:1002840000d17de016dc6e2800d197e06f28cad13a
:100294002b000022390008a800f031f9002800d111
:1002a40093e0079b08aa01330ba93000079300f0e1
:1002b4006bff22e0752840d078284fd07328b2d144
:1002c400802f00d081e0079b2a6801330793131d18
:1002d4002b601268002388e02a00390008a800f087
:1002e4007bfe002800d170e0079b0ba95a1c0792e3
:1002f4001b7808aa300000f049ff2418039b1c193e
:10030400a34200dc82e04f22414b1a6001235b428e
:100314000393039831b0f0bd2b000122390008a8e3
:1003240000f0edf8002850d0079b08aa01330ba970
:100334003000079300f042f9dfe72b000022390078
:1003440008a800f0dcf800283fd0079b08aa013376
:100354000ba93000079300f017ffcee72b00002213
:10036400390008a800f0cbf800282ed0079b5a1caf
:1003740007921b7808aa0ba9300000f007ffbce71e
:100384002b000022f02108a800f0b9f800281cd0a6
:10039400079b099a01330793089b13430cd11d4f04
:1003a400380000f051fe390002000b9b00930d9bb6
:1003b400300000f035faa0e77823dbe7039b39002f
:1003c4001a1908a82b0000f0ddfa079b01330793e4
:1003d40094e7802ff9d1079b013307932b681a1deb
:1003e4001b682a6008aa137001230ba9300000f0cf
:1003f400cffe82e7802fe8d10122079b01330793c8
:100404000b9b049300930d9b0349d1e703946ee681
:0c0414001401002080110000861100007f
:020000040000fa
:10042000f0b5060085b00f0015001c008b4265d8a2
:1004300001d1824262d82100280000f037fe390045
:100440000090300000f032fe009b21001b1a1a00c1
:100450002800039300f01efe00900191019bbb4217
:1004600046d802d1009bb34242d8009b019c039a1c
:1004700001200021f61aa74100f00cfe039b002b7f
:100480002fd0019b009adb0754081c43019b5d0899
:10049000039b9c46bd422ed801d1b4422bd83200da
:1004a0003b00121bab41012692185b410027b61896
:1004b0005f4101235b429c446346002bead18019d3
:1004c0007941039a04000d003000390000f0d6fd98
:1004d000039a06000f0000f0ddfd241a8d41200074
:1004e00029000a9b002b01d01e605f6005b0f0bda3
:1004f00000200021c2e7b6197f41dae70020002181
:02050000efe723
:020000040000fa
:1005020010b588293cd015dc81294dd003dc802927
:100512004ad0002010bd822911d08429f9d119684e
:10052200002a26d00a1d1a6000228b5e0360db17a8
:10053200436011e0a02930d010dc9029e9d119687c
:100542000724002a2ed00919a1430a0008321a6092
:100552000b684c68036044600120dbe7c02901d0ce
:10056200f029d6d11a68111d19601368036000239f
:10057200dee70c1d1c600b689bb203604260ebe778
:100582001968002a04d00a1d1a600023cb56cde751
:100592000c1d1c600b68dbb2efe71a68111d1960b5
:1005a2001368c3e70731cfe71968002a03d00a1d91
:0e05b2001a600b68bae70c1d1c600b68dde7d1
:020000040000fa
:1005c000f0b54b6889b005930b6807009c4607930c
:1005d000cb680c008e68049310685168cd0f44d02e
:1005e0000b000200002150429941059b002b08dbc3
:1005f0000222634693430793002d02d1079b5a07bb
:100600002ad5731e07aa02920a22009301920b00b8
:100610000200200000f043f9002d02d1079b5a0789
:100620001ed501382d23002d00d1023b049a13540e
:1006300023695a1e049b121a1918079b380000934d
:10064000330000f0eff87b68db0503d56368984260
:1006500000da180009b0f0bd1b07db0ff31ad1e771
:100660001b07e5d501382023e0e7059b002bbfda07
:02067000c4e7dd
:020000040000fa
:020672007047cf
:020000040000fa
:10067400234b5a6852031b68db0c13439b029b0aef
:10068400204a936300235375110004228b691a4294
:10069400fcd11c491022cb681a42fcd0194a137da4
:1006a40080210b431375184b00229a611a61174b72
:1006b400174a1a62190004224b681a42fcd1134be0
:1006c400144a9a62190010224b681a42fcd10f4a4c
:1006d400dc234021d15010009c31402243581a425f
:1006e400fcd00a4a82235b004221d1501000190039
:1006f400402243581a42fcd0074b084ada6170473b
:10070400206080000010004000140040001c0040e5
:100714000601010006010400000800402000020058
:020000040000fa
:10072400f8b51e4b1b7d002b37d01c4a93685168cb
:100734001b4a127ed2071dd599421bd91849072698
:10074400164a944617001500012409e03a68d25c61
:100754000a85013368680a7e22420bd0984209d97f
:100764004a683240012af1d1624612685800825a1e
:100774000a85eee7094a936052689a420dd8074bfe
:1007840000221a755a60064a01211175db68002b94
:1007940003d0024b1869db689847f8bd8400002039
:0407a40000140042fb
:020000040000fa
:1007a80010b582b0002301931a4a118c0f330b4005
:1007b8003f21545ce4b253540f31525cd2b20192df
:1007c800019a0220920708d512494e22885419012d
:1007d800114a5218002111730138019ad20709d51c
:1007e8000c494e220120885419010b4a5218002145
:1007f800117301301901084a52185268002a04d0ae
:10080800054a531899685b689847024a3f23d454ad
:0c08180002b010bd00600041e0000020b4
:020000040000fa
:10082400f0b51d00012389b014000e9a06001a4089
:100834000391029201d1a5420ad822000399300003
:1008440000f0dffba54203d82500280009b0f0bd65
:100854002f1b01973a00102f00d91022202104a841
:1008640000f062fc019b0f2b0ed80f2204a93a4022
:10087400300000f0c6fb029b002be6d12200039956
:10088400300000f0befbe0e7102204a9300000f0c5
:0a089400b8fb019b103b0193e4e761
:020000040000fa
:10089e00f7b5040019000a9fe368666800933b6889
:1008ae00100001932369013b1c00002e00da012683
:1008be000022009dea5435000123002c03dc002b9e
:1008ce001cd02000febd02000a4309d1002d07dc1a
:1008de00089a921b5219002af1dd019a9207eed561
:1008ee00099b099adb1700f0b2fa8c460099013c7d
:1008fe00130030320a55013d6146dee710233a6897
:06090e009a433a60dde7a8
:020000040000fa
:1009140070b5002830d0194b1a7d0023002a29d144
:10092400164b1860596001321a755c68144b1b7eb3
:10093400db0716d5002c17d0002311490726012503
:1009440007e0c25c0a8501330a7e2a420bd09c422e
:100954000ad04a683240012af3d15a00825a0a85e1
:10096400f1e7002400e01c00044b9c60044b0122ce
:100974009a750123180070bd0023fbe78400002052
:040984000014004219
:020000040000fa
:1009880010b584291fd007dc812915d0822922d0ef
:10099800802911d0002010bd90291cd008dc88299e
:1009a800f8d119680c1d1c600b6803601a7010e000
:1009b800a02901d0c029edd119680c1d1c600b6855
:1009c80003601a6005e019680c1d1c600b68036061
:1009d8001a800120dfe719680c1d1c600b68036092
:0809e8001a60d2175a60f4e70f
:020000040000fa
:1009f000b400002058000000000000008400002027
:100a00003000000000000000500000203200000014
:100a10000000000018010020040000000100000098
:100a20000a0000000c01002004000000000000008b
:100a30000000002050000000000000001001002015
:100a4000080000000000000000000000000000009e
:020000040000fa
:100a500010b5144b5b8b0722134000d110bd124a16
:100a6000d385104b5b8b5b070dd00e4b80221a7623
:100a7000793a5a831b7e5b0705d50a4b04211a8df0
:100a80001a7e0a42fbd1074b84221a75064b583a4c
:100a9000002199545b6a002be0d0034b986a5b6a93
:0c0aa0009847dbe70014004284000020af
:020000040000fa
:100aac0000230e4a10b513600d4a13600d4a1360f3
:100abc000d4a13600d4a13600d4a536213610133e2
:100acc00936000f066fb00f064fb0a4c0a4b9c42fe
:100adc0000d310bd08cc9847f8e7c04610010020a1
:100aec000c00002008000020000000200400002062
:0c0afc0010000020c8000000cc0000002a
:020000040000fa
:100b080010b50d4a002111705160916011730b48a6
:100b18000b4b58630b4c9c630b4c5c613f24195581
:100b28000a4959640a490180012111704d22023194
:100b38009954084a1a8010bde0000020d000002017
:100b480000600041f000002081818181000b80005d
:080b580009040000020f000077
:020000040000fa
:100b6000bff35f8f62b6114bc02080001a58104946
:100b70001140c02212040a431a5004221a600430a1
:100b80001a581202120ac02109060a431a5080227a
:100b90001a6008301a5807491140c02212020a434d
:100ba0001a50802292011a607047c04600e100e0ae
:080bb000ffff00ffff00ffff43
:020000040000fa
:100bb800114b124a1a60124a9a81802252025a60d4
:100bc8001a00d369002bfcd10b4a136802210b438e
:100bd8001360d369002bfcd10a4b00229a61da61b9
:100be8001a622c215a545a621a605a609a601a750d
:100bf800da60da857047c0460014004204010140fb
:080c08002bf6ffff8400002021
:020000040000fa
:100c100070b5002000f07ef90f4b1a680f4c104998
:100c2000200000f04ffa200000f010fa0100200030
:100c3000fff770fe084d094c094e2b685a1c2a60bc
:100c40003100200000f03efa200000f0fff9010022
:100c50002000fff75ffef0e71801002050000020a1
:040c6000541100002b
:020000040000fa
:100c640030b51500012289b0524201920432ff329c
:100c74000292002800d16846002403900491a14206
:100c840000d04c1e0594002906da4f220120074ba0
:100c940040421a6009b030bd0022079002700690ed
:100ca4001a00290001a800f0dbf9f3e71401002081
:020000040000fa
:100cb400104b01221a7019000b8c1342fcd10e4bfd
:100cc4001b681a02e021c9000a4007219b065b0f3a
:100cd4001a43084b9a85597000225a73052098705c
:100ce4001a8104325a8199711a00138c9bb2002b19
:0c0cf400fbd170470044004220608000eb
:020000040000fa
:100d000010b50e4b0e4a934207d30e4801680029d6
:100d100007d14368002b04d110bd002119700133a5
:100d2000f1e704008368084a9bb20c349b009b588f
:100d300042682000984780002018e7e70000002064
:0c0d400000000020f0090000f01000008e
:020000040000fa
:100d4c0010b5064c2378002b07d1054b002b02d095
:100d5c00044800e000bf0123237010bdb400002044
:100d6c000000000000000000044b10b5002b03d065
:100d7c000349044800e000bf10bdc046000000005d
:080d8c00b80000200000000087
:020000040000fa
:100d940010b50a4b98470a4b9847fff7afff094b2a
:100da400ff229343084a9360084b9847084b98479f
:100db400084b9847fff72afffee7c0469d11000045
:100dc4009d1100000000000000ed00e0ad0a0000ed
:080dd4009d1100009d110000bb
:020000040000fa
:100ddc0010b50e4b9b7d002b10d00c4a137edbb252
:100dec00927d52b2002a0adb084a137edbb2927d56
:100dfc00d20703d5db0701d5fff78efc10bd5bb224
:100e0c00002bf1dafff71efeeee7c046001400429d
:020000040000fa
:100e1c00030010b51a78202a0dd0110009390429c5
:100e2c0009d900212b2a02d02d2a01d101310133fd
:100e3c0000200a2404e00133ece760430133801afc
:100e4c001a78303a092af8d9002900d1404210bd4d
:020000040000fa
:100e5c00002b11d1002a0fd1002900d1002802d07b
:100e6c000021c943081c07b4024802a14018029093
:100e7c0003bdc0461903000003b4684601b50298cf
:100e8c00fff7c8fa019b9e4602b00cbc7047c046e7
:020000040000fa
:100e9c000c4b01221a8019000b691a42fcd1094b28
:100eac00094a1a801900802212020b691342fcd1e4
:100ebc00044b00221a62190020320b691a42fcd131
:0c0ecc007047c046002400400081ffff7a
:020000040000fa
:100ed8001c2101231b04984201d3000c10391b0a62
:100ee800984201d3000a08391b09984201d3000926
:100ef800043902a2105c40187047c046040302027d
:0c0f0800010101010000000000000000d9
:020000040000fa
:100f140010b50b4b06225a6000f02ef8fff7a8fb21
:100f240000f026f9fff7a3fbfff7c2fefff7eafd87
:100f3400fff740fefff7b0fffff710fe10bdc046fd
:040f44000040004128
:020000040000fa
:100f4800f0b5050000200a4a4400a65c002e02d134
:100f580012195078f0bd296801300f78c0b2b74235
:100f680003d112190131507829600a28ebd9f1e729
:040f7800da1000008b
:020000040000fa
:100f7c008223db05802212021a60d2011a61002240
:100f8c004f215a5418395a54013292315a54013162
:100f9c005a54b332ba39995401320d3999547047b5
:020000040000fa
:100fac0010b5084b9a8992b207494a60074a9a8150
:100fbc009b890b68002b04d00b00486889681b6860
:100fcc00984710bd0024004000010020ff81ffff66
:020000040000fa
:100fdc00002380290fdb812901dd83290bd1072117
:100fec00136807338b431900083111601a685b686a
:0a0ffc0002604360012318007047f3
:020000040000fa
:1010060070b505690400954200d915002a0060698b
:1010160000f075f8226963695b19551b002225618a
:0610260063611a7070bd49
:020000040000fa
:10102c00002310b5934206d103201840421e904174
:0e103c009b08c01810bdc45ccc540133f2e711
:020000040000fa
:02104a00fee7bf
:020000040000fa
:10104c000378002b06d0030001331a78002afbd159
:08105c00181a70470020fce7a0
:020000040000fa
:1010640013b50400019201aafff73af86368db069e
:0810740001d50120404216bd28
:020000040000fa
:10107c00d0400b1cd1409c46203ad34018435242de
:08108c006346934018437047ce
:020000040000fa
:101094009140031c90409c46203a9340194352428d
:0810a4006346d3401943704775
:020000040000fa
:1010ac0010b5002903d1fff711ff203002e0081c16
:0810bc00fff70cff10bdc04658
:020000040000fa
:1010c4000eb403b503aa02ca019200f023f802b0d9
:0610d40008bc03b0184740
:020000040000fa
:1010da0068076c094c836a9074a07ac0008068889b
:0610ea0000846c8200810d
:020000040000fa
:1010f000411100002d10000089110000891100002d
:041100008911000051
:020000040000fa
:1011040010b5002a05d00023cc5cc45401339342ab
:04111400fad110bd3f
:020000040000fa
:1011180010b513000a000249fff7a0fd10bdc04634
:04112800ffffff7f47
:020000040000fa
:10112c00002a06d00300c9b2821819700133934209
:04113c00fbd170472c
:020000040000fa
:101140008a18914201d10020704700230b700131b1
:02115000f7e7bf
:020000040000fa
:02115200fee7b6
:020000040000fa
:101154004e65772076616c75653a2025640d0a002a
:020000040000fa
:0e1164000300413b192b01d82023184370478c
:020000040000fa
:02117200fee796
:020000040000fa
:0c117400014b84225a607047004000418b
:020000040000fa
:08118000286e696c29002500ae
:020000040000fa
:04118800002070478c
:020000040000fa
:04118c000020704788
:020000040000fa
:041190000020704784
:020000040000fa
:041194000020704780
:020000040000fa
:041198007047c04696
:020000040000fa
:02119c0070479a
:020000040000fa
:02119e00704798
:020000040000fa
:0200000400807a
:04400000770800003d
:020000040000fa
:0200000400807a
:044004000000ffffba
:00000001FF
