:100000000021002035010000310100003101000015
:1000100000000000000000000000000000000000E0
:10002000000000000000000000000000310100009E
:10003000000000000000000031010000310100005C
:1000400031010000310100001909000031010000F8
:1000500031010000310100003101000031010000D8
:1000600031010000310100003101000031010000C8
:1000700031010000310100003101000031010000B8
:1000800031010000310100003101000031010000A8
:100090003101000031010000310100003101000098
:1000A0003101000031010000310100003101000088
:1000B00031010000310100003101000010B5064C93
:1000C0002378002B07D1054B002B02D0044800E019
:1000D00000BF0123237010BD640000200000000059
:1000E000E8150000084B10B5002B03D0074908485D
:1000F00000E000BF07480368002B00D110BD064B8D
:10010000002BFBD09847F9E70000000068000020B2
:10011000E8150000E81500000000000010B5024BD3
:100120009847024B984710BD65020000450C00003F
:10013000FEE7000010B5104A104B9A4209D00F4B51
:100140000D4A03E011681960043304320C498B42F4
:10015000F8D30C4B02E000221A6004330A4A93429F
:10016000F9D30A4AFF210A4B8B439360094B984706
:10017000094B9847FEE7C046E81500000000002044
:100180006400002064000020FC00002000ED00E07E
:1001900000000000650C0000110B000010B5074ABC
:1001A000516980239B000B435361054B9847020024
:1001B00004490548054B984710BDC046000800405B
:1001C0001309000000240040DC000020150400009A
:1001D00030B58223DB05CA22995C0125A94301249D
:1001E0002143C9B29954B520195CBB3A914303220B
:1001F0001143C9B21954CB215A5CAA432243D2B24B
:100200005A541A5CBC390A4030210A43D2B21A54FB
:1002100030BD0000064B4021DC2299500331143AD6
:100220009950044AD36923390B43D3617047C046C0
:10023000001C00400008004010B5054B9847002204
:1002400004490548054B9847054B984710BDC046E3
:100250001502000000140042D00000202506000016
:10026000D101000010B5144B9847C022D20580235D
:100270005B03536193608223DB058021C90599628A
:100280000E4999625424195D01208143195580213A
:100290004901403411510C3C1151A8220849995090
:1002A000C02109069950CC215A5C82435A54054B0F
:1002B0009847054B984710BD3D070000100000C04F
:1002C000001000409D01000039020000EFF3108390
:1002D000036072B6BFF35F8F7047BFF35F8F036831
:1002E00083F310887047000070B504000D001600FD
:1002F00000280ED000290AD0012034220649074BDD
:1003000098472368320029002000984770BD0020DC
:10031000F3E70020F1E7C046781400009D060000D6
:1003200070B504000D00160000280ED000290AD078
:1003300001203D220649074B984763683200290097
:100340002000984770BD0020F3E70020F1E7C04689
:10035000781400009D060000F8B50668002E02D053
:10036000330000250CE0104B984718E09F68BC460E
:100370006444A41A01348F68BC420BD21D001B6870
:10038000002B07D05C689442F0D8A41A9F68BC4642
:100390006444F0E7B34203D02800044B9847F8BD0B
:1003A000014B9847FBE7C046BD060000E906000088
:1003B000F8B50500446903695E1C0661037EDB072E
:1003C00002D4037E9B070AD52B7E02221343DBB2A5
:1003D0002B76F8BD6F69E368200098473C00002C3D
:1003E000F7D06368F31AA2689342F2D32F00143750
:1003F0003800064B9847237C012BEBD16660320016
:1004000021003800024B9847E4E7C046F10600009F
:100410005903000070B504000D00002812D0002917
:100420000ED001203B220849084B984729002000A4
:10043000074B984700232361064B2360002070BDC3
:100440000020EFE70020EDE78C1400009D0600007F
:1004500035080000B103000010B50400431E9841A8
:10046000C0B253220749084B98472000074B9847D2
:10047000002804D12000064B9847002010BD112011
:100480004042FBE78C1400009D060000F9080000C4
:100490009D08000070B582B004000D00002826D031
:1004A000002922D001207A221F49204B9847237E21
:1004B00001221343DBB223762600143629003000D4
:1004C0001B4B9847002814D123696B6022692900CF
:1004D0003000184B9847237E012293432376237ED6
:1004E0009B0712D4002002B070BD0020DBE7002083
:1004F000D9E7237E0122934323767E320A490020E6
:100500000A4B984712204042EDE701A80A4B984752
:10051000237E0222934323762000084B984701A8AC
:10052000074B98470020DEE78C1400009D06000072
:10053000A506000059030000CD02000011090000CB
:10054000DB020000F8B505000E001700002823D0DC
:10055000002923D0002A23D10020F1221149124B77
:1005600098472C0008342000104B98470028F8D0FA
:100570000025715D20000E4B984720000B4B9847DB
:100580000028FAD00135BD42F3D32000094B98472B
:100590000028FAD02800F8BD0020DEE70020DCE7C4
:1005A0000120DAE7A41400009D060000BF0A000045
:1005B000AF0A0000C90A0000F8B5CE46474680B52C
:1005C000051E884691461FD000291FD0002A1FD142
:1005D0000020862252000F490F4B984700262C001E
:1005E000083420000D4B98470028F8D043469F1947
:1005F00020000B4B9847387001364E45EFD3300042
:100600000CBC90469946F8BD0020E2E70020E0E7E8
:100610000120DEE7A41400009D060000D50A0000BA
:10062000B70A000070B504000D00002814D000299E
:1006300010D0012034220949094B98472000083086
:100640002900084B9847002803D1074B6360074BEC
:10065000236070BD0020EDE70020EBE7A41400004C
:100660009D060000710A0000B90500004505000064
:1006700010B50400431E9841C0B253220449054BF3
:10068000984720000830044B9847002010BDC04612
:10069000A41400009D0600009D0A0000002800D15F
:1006A00000BE70470368002B03D08B4203D01B6849
:1006B000F9E7002070470120FCE7000070B5040056
:1006C0000D00064B984701235840C0B23922044917
:1006D000044B984723682B60256070BDA506000079
:1006E000C01400009D06000003680B6001607047A5
:1006F0000368002B03D01A680260180070470020BE
:10070000FCE700000300064A1268002A04D0044AED
:100710001068C318136070470249014A1160F6E778
:1007200080000020002100200120404270478023EB
:100730009B014B60002070470020704710B5084BAC
:100740005A685A60074B9847074B9847074B98479A
:10075000074B9847FF20074B9847074B984710BD1A
:1007600000400041BD070000D9070000B1070000AC
:10077000150800008D0700007D0700009022D205BB
:10078000137802218B43137070470000C30707D50D
:10079000044A054B1A62044B5A68044B1A42FAD1B8
:1007A0007047C04606010100001C0040FD07000024
:1007B0000122014B1A71704700080040054AD369B5
:1007C0001B0A1B02F82149010B40D361002313616E
:1007D0007047C046001400400D4B02221A750932C2
:1007E0005A750B4B9B695B07FBD4094B9B695B07F5
:1007F000FBD40722064B9A75054BDB68DB06FBD55D
:10080000034A137D802149420B43DBB213757047C5
:1008100000100040704710B50400C3689B89DB05D9
:1008200007D50368002B00D09847E3688022520068
:100830009A8110BD70B504000D00431E9841C0B2EE
:1008400030221149114B9847E56001232B802A691A
:100850000F4B1A42FBD1E3681A69D207FCD40D4A48
:100860001A8019690A4A1142FBD1E26820231362F7
:1008700013699B06FCD480235B00E2685381064B1E
:100880001C60002070BDC046E01400009D06000002
:10089000038000008080FFFF8400002010B5041E4C
:1008A00020D0C368002B1BD001205C220E490F4BC7
:1008B000984704220E4B1A60E26800239361136983
:1008C0001B07FCD4E3681A691207FCD41A880221BA
:1008D0000A4392B21A801969064A1142FBD110BD2F
:1008E0000020E2E70020E0E7E01400009D060000A1
:1008F00000E100E003800000C1680A69034B1A426E
:10090000FBD10B885B080120184070470380000072
:10091000704700207047000010B5024B1868024B6A
:10092000984710BD8400002017080000024B9C4629
:100930006044800AC0B2704700FCFFBD10B50B4B8D
:10094000984702000020002806D0094A09490020E3
:10095000094B9847002010BD83001B189900074BD6
:10096000CB5C9A42F7D00130C0B2ECE72D09000011
:100970003A020000481500009D060000F81400002F
:1009800070B50400384B9847E369DB071DD483003A
:100990001B189A00354B9B185A681C231A40E369B0
:1009A0009B07FCD123689B0709D5236802218B4351
:1009B0002360E3699B07FCD1E3699B07FCD4012317
:1009C00013432360E3699B07FCD1E369DB07FCD495
:1009D00083001B189A00254B9B185B682360E36912
:1009E0009B07FCD183001B189A00204B9B189B6827
:1009F0006360E3695B07FCD183001B189A001B4B03
:100A00009B185B689A040BD4C022D201134207D111
:100A100083001B189A00154B9B189B89A38115E036
:100A200083001B189A00114989188A89A389D20466
:100A3000D20C5B0B5B031343A3818B7B07221A4011
:100A4000A3895203DB04DB0C1343A381074A830011
:100A50001D18A9000D005118C97BA1735219127CF1
:100A60003023E254002070BD3D090000F81400005E
:100A700070B505000C00431E9841C0B2B422044971
:100A8000044B98472C602000034B984770BDC0462C
:100A9000481500009D0600008109000002681368E7
:100AA00002210B431360D3699B07FCD17047036895
:100AB00089B2198570470368188DC0B27047036802
:100AC000187E01231840704703681B7E5B080120D5
:100AD0001840704703681B7E9B0801201840704730
:100AE00080225203C023DB059A617047C023DB05D7
:100AF000802252035A6180214901982299507047FF
:100B0000802149019423C022D205D15070470000B2
:100B1000F8B5134B9847134C0423A360124BE360C2
:100B2000012323740922E261104A22622422A35481
:100B30000B3A22630E4A6263270028373B740D4D3F
:100B4000210028000C4EB047210014312800B04786
:100B500039002800B0472800084B9847FEE7C046F8
:100B60001D01000088000020E10A0000ED0A0000DD
:100B7000010B0000DC000020950400005904000077
:100B800010B50B00002809D111001800054B98473B
:100B9000002800DB10BD01204042FBE7012040425D
:100BA000F8E7C046FD0B000010B50B000138022825
:100BB00009D811001800054B9847002800DB10BD2C
:100BC00001204042FBE701204042F8E7210C0000F1
:100BD00070B50600064D2B6898680021054CA047AB
:100BE0002B6858680021A047034B1E6070BDC046AB
:100BF00000000020BD0C0000C400002010B504005F
:100C0000054B1868002804D08AB22100034B98478E
:100C100010BD0020FCE7C046C400002021030000F6
:100C200010B50400054B1868002804D08AB22100D2
:100C3000034B984710BD0020FCE7C046C4000020CD
:100C4000E902000010B5044C2000044B9847200036
:100C5000034B984710BDC046D0000020710600002D
:100C6000D10B000070B500260C4D0D4C641BA41078
:100C7000A64209D1002600F0A7FC0A4D0A4C641BCD
:100C8000A410A64205D170BDB300EB5898470136B9
:100C9000EEE7B300EB5898470136F2E7D4150000B1
:100CA000D4150000D4150000D815000003008218E8
:100CB000934200D1704719700133F9E74A424A4123
:100CC000802310B55200DB0000F002F810BD0000D8
:100CD000F0B51D004F4B85B01E6804000F00009258
:100CE000002E05D0B369002B02D1300000F094F93A
:100CF000494B9C4250D17468009B022B05D0012BBC
:100D000000D984E0002D00DA81E02100300000F0FD
:100D100015F9616B002908D023004433994202D0B1
:100D2000300000F041FA002363630023A361636095
:100D3000A3891B0603D52169300000F035FAA38989
:100D4000364A1340A381009B022B5AD003AB02AA60
:100D50002100300000F0F6F9A3891843A081002D8E
:100D600024D1029D280000F015FA0195071E42D1FA
:100D7000029B0193AB4239D1012040420223A28958
:100D80001343A3810023A36023004733236023611F
:100D90000123636105B0F0BD214B9C4201D1B468D1
:100DA000AAE7204B9C42A7D1F468A5E7002FD9D031
:100DB000B369002B02D1300000F02EF9009B012B0B
:100DC00003D1A389009A1A43A2810820A38927602E
:100DD00027616561184018D001201840002398420F
:100DE00011D06D42A360A5611800D3E7019800F00F
:100DF000D1F9071EC0D08023A289019D1343A3818E
:100E0000D6E70020BAE7A560C4E7A060C2E70120EA
:100E10004042BFE700000020881500005CF3FFFFA0
:100E2000A815000068150000F7B58A8905000C00B8
:100E3000130760D44B68002B04DC0B6C002B01DC27
:100E40000020FEBDE76A002FFAD000232E682B6039
:100E500080235B011A4034D0606DA3895B0706D5FF
:100E60006368C01A636B002B01D0236CC01A0200A8
:100E7000216A00232800E76AB847A189431C06D1EC
:100E80002B681D2B31D82C4ADA40D3072DD50023EF
:100E9000636023692360CB0405D5431C02D12B6812
:100EA000002B00D16065616B2E600029C8D0230043
:100EB0004433994202D0280000F076F900206063A4
:100EC000BFE70123216A2800B847431CC5D12B681E
:100ED000002BC2D01D2B01D0162B01D12E60AFE705
:100EE0004023A2891343A381ABE740230B43012096
:100EF000A3814042A5E70F69002FA1D00B680F60C6
:100F0000DB1B01930023920700D14B69A360019B77
:100F1000002B00DC94E7019B3A00216A2800A66AB6
:100F2000B047002803DC4023A2891343DFE7019B7D
:100F30003F181B1A0193EAE7010040200B6970B5C6
:100F400005000C00002B01D1002070BD002804D04A
:100F50008369002B01D100F05FF80B4B9C4209D153
:100F60006C680C22A35E002BEED021002800FFF756
:100F70005BFFEAE7054B9C4201D1AC68F1E7044B0B
:100F80009C42EED1EC68ECE788150000A815000043
:100F90006815000010B5024900F0B2F810BDC04657
:100FA0003D0F0000002310B5040003604360836020
:100FB00081814366C2810361436183611900082214
:100FC0005C30FFF773FE054B24626362044BA3623F
:100FD000044BE362044B236310BDC0461D130000A5
:100FE000451300007D130000A913000070B56825AB
:100FF0004A1E55430E002900743100F01FF9041EEB
:1010000008D000212A00016046600C30A0606832E0
:10101000FFF74CFE200070BD836913B50400002B60
:1010200028D18364C3640365134B144A1B6882622E
:101030000193984201D101238361200000F020F840
:101040006060200000F01CF8A060200000F018F89C
:101050000022E06004216068FFF7A4FF012209215B
:10106000A068FFF79FFF02221221E068FFF79AFFB6
:101070000123A36113BDC04664150000950F000055
:10108000F8B51E4B07001E68B369002B02D1300073
:10109000FFF7C2FF4836B4687368013B04D5336874
:1010A000002B07D03668F6E70C22A55E002D0DD088
:1010B0006834F2E704213800FFF798FF3060002819
:1010C000F0D10C2304003B602000F8BD0123200078
:1010D0005B42E3810233A38165662560A56065609C
:1010E00025616561A561082229005C30FFF7DEFDFE
:1010F0006563A563A564E564E6E7C0466415000082
:10110000F7B504000700002601914834002C01D1F6
:101110003000FEBD6368A5680093009B013B00930F
:1011200001D52468F2E7AB89012B08D90E22AB5E0A
:10113000013304D029003800019B984706436835E5
:10114000EBE7000070B50E001D000E23C95E90B0E5
:101150001400002907DA00232B60B3891B0611D481
:101160008023DB000FE001AA00F04AF90028F2DB3F
:10117000F022029B12021340054A9B185A42534127
:101180002B60EDE740230020236010B070BDC04607
:1011900000E0FFFF10B5034B0100186800F04EF8A7
:1011A00010BDC0460000002070B50500002910D019
:1011B0000C1F2368002B00DAE418280000F046F921
:1011C0001D4A1368002B05D163601460280000F0ED
:1011D0003EF970BDA34209D9216860188342F3D15A
:1011E00018685B6841182160EEE713005A68002A0E
:1011F00001D0A242F9D919685818A0420BD1206831
:101200000918581819608242E0D1106852684118D4
:1012100019605A60DAE7A04202D90C232B60D5E7A7
:1012200021686018824203D1106852684118216019
:1012300062605C60CAE7C046C8000020032370B546
:10124000CD1C9D43083506000C2D1ED20C25A9424D
:101250001DD8300000F0FAF8254A14682100002952
:1012600019D1244C2368002B03D1300000F044F83E
:1012700020602900300000F03FF8431C2CD10C23E3
:101280003000336000F0E3F803E0002DDFDA0C23D8
:101290003360002070BD0B685B1B1AD40B2B03D985
:1012A0000B60CC18256003E08C420ED1636813609C
:1012B000300000F0CCF8200007220B30231D9043B3
:1012C000C31AE7D05A42E250E4E74B6863600C006F
:1012D000EEE70C004968C2E70323C41C9C43A0420C
:1012E000E0D0211A300000F007F8431CDAD1C6E73D
:1012F000C8000020CC000020002370B5064C05007B
:1013000008002360FFF7FEF9431C03D12368002B7C
:1013100000D02B6070BDC046F800002070B50C00F6
:101320000E25495F00F094F8002803DB636D1B185D
:10133000636570BDA389024A1340A381F9E7C046E3
:10134000FFEFFFFFF8B51F008B8905000C001600AA
:10135000DB0505D50E23C95E0022022300F062F8EA
:10136000A389054A28001340A38132000E23E15EC1
:101370003B0000F01FF8F8BDFFEFFFFF70B50C0059
:101380000E25495F00F04EF8A389421C03D1054A9F
:101390001340A38170BD802252011343A381606575
:1013A000F8E7C046FFEFFFFF10B50E23C95E00F05F
:1013B00015F810BD70B50500080011000022064C9C
:1013C00022601A00FFF7F0FB431C03D12368002BB7
:1013D00000D02B6070BDC046F8000020002370B51F
:1013E000064C050008002360FFF79EF9431C03D15B
:1013F0002368002B00D02B6070BDC046F800002091
:10140000002370B5064C0500080011002360FFF7AB
:101410008EF9431C03D12368002B00D02B6070BDD4
:10142000F800002070B50500080011000022064CED
:1014300022601A00FFF780F9431C03D12368002BB8
:1014400000D02B6070BDC046F80000207047704788
:1014500070B50500080011000022064C22601A0039
:10146000FFF78EFB431C03D12368002B00D02B60B9
:1014700070BDC046F80000202E2E2F68616C2F73BF
:1014800072632F68616C5F696F2E63002E2E2F6868
:10149000616C2F7372632F68616C5F74696D657224
:1014A0002E6300002E2E2F68616C2F7372632F68DD
:1014B000616C5F75736172745F73796E632E630024
:1014C0002E2E2F68616C2F7574696C732F73726385
:1014D0002F7574696C735F6C6973742E6300000000
:1014E0002E2E2F68706C2F7274632F68706C5F7271
:1014F00074632E630000000004000000040031400B
:10150000000003002BF600000000000000000000B7
:1015100000000000000000000000000000000000CB
:1015200000000000000000000000000000000000BB
:1015300000000000000000000000000000000000AB
:1015400000000000000000002E2E2F68706C2F732A
:101550006572636F6D2F68706C5F736572636F6D1A
:101560002E630000040000200000000000000000C6
:10157000000000000000000000000000000000006B
:10158000000000000000000000000000000000005B
:10159000000000000000000000000000000000004B
:1015A000000000000000000000000000000000003B
:1015B000000000000000000000000000000000002B
:1015C0000000000000000000F8B5C046F8BC08BCF0
:1015D0009E467047E5000000F8B5C046F8BC08BC60
:0815E0009E467047BD000000AB
:1015E800040000200000000088150000A815000075
:1015F8006815000000000000000000000000000066
:1016080000000000000000000000000000000000D2
:1016180000000000000000000000000000000000C2
:1016280000000000000000000000000000000000B2
:1016380000000000000000000000000000000000A2
:04164800000000009E
:00000001FF
