:10000000D0210020A9040000A5040000A5040000E0
:1000100000000000000000000000000000000000E0
:10002000000000000000000000000000A504000027
:100030000000000000000000A5040000A50400006E
:10004000A5040000A5040000A5040000A50400000C
:10005000A5040000A504000099100000A5040000FC
:10006000A5040000A5040000A5040000A5040000EC
:10007000A5040000A5040000A5040000490E00002E
:10008000A5040000A5040000A5040000A5040000CC
:1000900065150000A5040000A5040000A5040000EB
:1000A000A5040000A5040000A5040000A5040000AC
:1000B000A5040000A5040000A504000010B5064C2E
:1000C0002378002B07D1054B002B02D0044800E019
:1000D00000BF0123237010BD780000200000000045
:1000E000C8340000084B10B5002B03D0074908485E
:1000F00000E000BF07480368002B00D110BD064B8D
:10010000002BFBD09847F9E7000000007C0000209E
:10011000C8340000C834000000000000024B002278
:100120001A705A607047C0469400002010B5344BD6
:100130001B78012B16D0002B04D0022B2FD0032BC1
:1001400052D010BD2F4B984700202F4B98472F4B74
:100150001B78002BF5D00122294B1A702C482D4B0F
:100160009847EEE72C4B1B78002B03D02B4B1B78CA
:10017000002B07D1254B1B78002BE2D10022204B0E
:100180001A70DEE7264B98471D4C606001201E4B1D
:1001900098470223237023481E4B9847EAE7184BE1
:1001A0005B68002B0AD1194B1B78002BC9D10020AA
:1001B000154B98470022124B1A70C2E7184B98470C
:1001C0000F4B5B68C01A184B9842ECD90C4C0023BB
:1001D000636000200C4B9847144B9847032323700F
:1001E00013480C4B9847DEE7084B1B78002BA8D12F
:1001F0000022034B1A700F48064B9847A1E7C046F0
:10020000940000204D040000A30400001E01002003
:1002100054300000912000001D0100201C0100202E
:100220006104000074300000CF0700004F0400009C
:1002300090300000B03000007047000010B5134B44
:100240001B78002B1BD0124B1B78002B17D0114BA7
:100250001868114B9847114A114B124CA0470028BF
:1002600006D0114B01221A705A7000229A700BE0CE
:100270000D4B01221A70002159709A7004E00A4B4C
:1002800000221A705A709A7010BDC046B800002043
:100290009F000020BC000020511E0000CDCCCCCC23
:1002A000CC748140351700009C00002010B5024B33
:1002B0009847024B984710BD95060000C1160000F4
:1002C0007047704710B50448044B9847044B1A0018
:1002D00010329A6010BDC046200100205507000072
:1002E000A000002070B540494048414B9847002885
:1002F00000D070BD3C4B1A7B19683E483E4B984776
:10030000002407E0384B1B19197C3C483A4B9847AE
:100310000134E4B2344B1B7B9C42F3D33848394B55
:100320009847314B1A68A023DB009A4228D02E4B05
:100330001B68202BDDD12C4DAC7D240224B2EB7D3B
:100340001C432000304B98473049314B9847E861B7
:100350000A2120002F4B98470EB20A2120002E4B75
:10036000984701B232002D48234B9847E8692C4941
:100370002C4B9847002833D100222B4B1A70B8E73A
:100380002A48204B9847184B1C7CE30712D5164A85
:10039000137E01214B401376254B1B78002B17D081
:1003A0002448184B9847104B1B7E002B14D0224832
:1003B000144B9847620801231A4020490A70A2088A
:1003C0001A401F490A70E4081C40194B1C70AEE724
:1003D0001C480C4B9847E6E71B480A4B9847E9E74F
:1003E0000122114B1A7084E7A00000202001002098
:1003F0007D070000F43000009D1F00002C3100003C
:10040000E831000091200000B11B000000002041F5
:10041000D1170000910F0000230F0000EC31000005
:1004200000800B44A91700001E0100203431000099
:100430009F00002058310000943100001D01002071
:100440001C01002074310000C0310000704770476B
:10045000024A1368013313607047C046C000002091
:10046000014B18687047C046C000002010B507490E
:100470000123CB60064A0A610B750431054C20004C
:10048000054B98472000054B984710BDC000002041
:100490005104000070010020C50900008909000016
:1004A00070477047FEE7000010B5104A104B9A42A3
:1004B00009D00F4B0D4A03E0116819600433043270
:1004C0000C498B42F8D30C4B02E000221A60043333
:1004D0000A4A9342F9D30A4AFF210A4B8B4393609D
:1004E000094B9847094B9847FEE7C046C8340000BF
:1004F000000000207800002078000020D0010020BB
:1005000000ED00E000000000311F00007915000040
:1005100010B5094AD16980235B010B43D3614021A7
:10052000F823064AD150064B984702000549064871
:10053000064B984710BDC04600080040001C004014
:100540002515000000300042700100204509000020
:10055000024A136920210B431361704700080040D1
:1005600010B5034B984703490348044B984710BD07
:10057000510500000040004148010020CD07000067
:1005800030B58223DB05CA22995C0125A9430124E9
:100590002143C9B29954B520195CBB3A9143032257
:1005A0001143C9B21954CB215A5CAA432243D2B297
:1005B0005A541A5CBC390A4030210A43D2B21A5448
:1005C00030BD0000064B4021DC2299500331143A23
:1005D0009950044AD36923390B43D3617047C0460D
:1005E000001C00400008004010B5054B9847002251
:1005F00004490548054B9847054B984710BDC04630
:10060000C50500000014004264010020550B0000E5
:100610008105000030B58223DB055922995C012554
:10062000A94301242143C9B299543C20195C4A3A98
:10063000114060221143C9B2195458215A5CAA438F
:100640002243D2B25A541A5C49398A4306210A43DA
:10065000D2B21A5430BD000010B5084A1169802387
:100660005B000B4313614021E823054AD150054943
:100670000548064B9847064B984710BD00080040B8
:10068000001C0040001C0042200100200107000067
:100690001506000010B5054B9847054B9847054BCC
:1006A0009847054B9847054B984710BDD50E00005D
:1006B00061050000E9050000110500005906000071
:1006C000EFF31083036072B6BFF35F8F7047BFF321
:1006D0005F8F036883F31088704710B5C369002BE0
:1006E00000D0984710BD10B5036A002B00D0984782
:1006F00010BD10B5436A002B00D0984710BD000014
:1007000070B504000D00002815D0002911D001207B
:1007100041220A490A4B984729002000094B984773
:10072000002805D1084B6360084BA360084BE360C9
:1007300070BD0020ECE70020EAE7C0460C32000064
:10074000CD0B0000710C0000DB060000E706000086
:10075000F306000010B50400431E9841C0B25C22AD
:100760000349044B98472000034B984710BDC046EF
:100770000C320000CD0B0000790D000070B50400B4
:100780000D0000280DD0002909D001206E22064955
:10079000064B984729002000054B984770BD002064
:1007A000F4E70020F2E7C0460C320000CD0B000059
:1007B000890D000010B54369002B00D0984710BD8B
:1007C00010B58369002B00D0984710BD70B50400A8
:1007D0000D00002813D000290FD00120382209492C
:1007E000094B984729002000084B9847002803D15F
:1007F000074B2360074B636070BD0020EEE70020CD
:10080000ECE7C04628320000CD0B00003910000094
:10081000B5070000C107000070B504000D00160008
:1008200000280ED000290AD0012034220649074BA7
:1008300098472368320029002000984770BD0020A7
:10084000F3E70020F1E7C04640320000CD0B000086
:1008500070B504000D00160000280ED000290AD043
:1008600001203D220649074B984763683200290062
:100870002000984770BD0020F3E70020F1E7C04654
:1008800040320000CD0B0000F8B50668002E02D003
:10089000330000250CE0104B984718E09F68BC46D9
:1008A0006444A41A01348F68BC420BD21D001B683B
:1008B000002B07D05C689442F0D8A41A9F68BC460D
:1008C0006444F0E7B34203D02800044B9847F8BDD6
:1008D000014B9847FBE7C046ED0B0000190C0000E8
:1008E000F8B50500446903695E1C0661037EDB07F9
:1008F00002D4037E9B070AD52B7E02221343DBB270
:100900002B76F8BD6F69E368200098473C00002C07
:10091000F7D06368F31AA2689342F2D32F0014371A
:100920003800064B9847237C012BEBD166603200E0
:1009300021003800024B9847E4E7C046210C000034
:100940008908000070B504000D00002812D00029AD
:100950000ED001203B220849084B9847290020006F
:10096000074B984700232361064B2360002070BD8E
:100970000020EFE70020EDE754320000CD0B00002F
:1009800065130000E108000010B50400431E984103
:10099000C0B253220749084B98472000074B98479D
:1009A000002804D12000064B9847002010BD1120DC
:1009B0004042FBE754320000CD0B0000131500004D
:1009C0000115000070B582B004000D00002826D08B
:1009D000002922D001207A221F49204B9847237EEC
:1009E00001221343DBB2237626001436290030009F
:1009F0001B4B9847002814D123696B60226929009A
:100A00003000184B9847237E012293432376237EA0
:100A10009B0712D4002002B070BD0020DBE700204D
:100A2000D9E7237E0122934323767E320A490020B0
:100A30000A4B984712204042EDE701A80A4B98471D
:100A4000237E0222934323762000084B984701A877
:100A5000074B98470020DEE754320000CD0B000022
:100A6000D50B000089080000C10600002915000010
:100A7000CF060000F8B505000E001700002823D0AF
:100A8000002923D0002A23D10020F1221149124B42
:100A900098472C0008342000104B98470028F8D0C5
:100AA0000025715D20000E4B984720000B4B9847A6
:100AB0000028FAD00135BD42F3D32000094B9847F6
:100AC0000028FAD02800F8BD0020DEE70020DCE78F
:100AD0000120DAE76C320000CD0B0000B7120000F5
:100AE000A7120000C1120000F8B5CE46474680B5F7
:100AF000051E884691461FD000291FD0002A1FD10D
:100B00000020862252000F490F4B984700262C00E8
:100B1000083420000D4B98470028F8D043469F1911
:100B200020000B4B9847387001364E45EFD330000C
:100B30000CBC90469946F8BD0020E2E70020E0E7B3
:100B40000120DEE76C320000CD0B0000CD1200006A
:100B5000AF12000070B504000D00002814D0002969
:100B600010D0012034220949094B98472000083051
:100B70002900084B9847002803D1074B6360074BB7
:100B8000236070BD0020EDE70020EBE76C32000031
:100B9000CD0B000069120000E90A0000750A000090
:100BA00010B50400431E9841C0B253220449054BBE
:100BB000984720000830044B9847002010BDC046DD
:100BC0006C320000CD0B000095120000002800D10F
:100BD00000BE70470368002B03D08B4203D01B6814
:100BE000F9E7002070470120FCE7000070B5040021
:100BF0000D00064B984701235840C0B239220449E2
:100C0000044B984723682B60256070BDD50B00000E
:100C100088320000CD0B000003680B600160704754
:100C20000368002B03D01A68026018007047002088
:100C3000FCE700000300064A1268002A04D0044AB8
:100C40001068C318136070470249014A1160F6E743
:100C5000D8000020D021002001204042704780238E
:100C60009B014B60002070470120704700207047B7
:100C7000F0B501608B69012213438B6103689A69A7
:100C8000D207FBD59A69022422439A61334B9942D9
:100C90000FD00268936902218B43936102689369C4
:100CA00001398B43936103689B69DB07FBD4002008
:100CB000F0BD2B4B1A0001C22A49816101688C6981
:100CC0008C61016800248C600168274DCD6101684A
:100CD0000F35CD60254D2D042D0C802189020D434B
:100CE000A0260768BD51BC25066874510C350668FE
:100CF00074511F4D2D042D0C8026B6043543C0269B
:100D00000768BD511204120C0A43F025066872519F
:100D1000703D026854511A0014321204120C0A4336
:100D200084260768BA511C331B041B0C0B43882212
:100D300001688B5090230268D4500E4B802212021F
:100D40005A51BFF34F8FBFF36F8FC02149005A50E4
:100D50001A6003680122DA659BE7C046001C004266
:100D6000DC00002000000020010400008C010020B5
:100D7000AC01002000E100E00268936901218B438F
:100D80009361002070470000F0B5CE46474680B51D
:100D900085B080460368A4229A58520645D0A42202
:100DA0009C58240A653A1440A146234A93422ED007
:100DB0000023002B3CD01A6852002CD400224A7326
:100DC0001A68D200520D0A601A6892002AD46A4644
:100DD0001A486E46B0C8B0C6006830605868000354
:100DE000000F125C0A73886808331900144B984787
:100DF00043461968A8228B583F2083434C461C4326
:100E00008C50002005B00CBC90469946F0BD2301E3
:100E10000C4A9B18CDE701224A731A68D200D20807
:100E20000A60D1E701220A71D1E70A204042E9E7CE
:100E30001C204042E6E7C046001C0042A8320000E9
:100E4000791F00008C01002070B51A4B1D682B68BB
:100E50001C6DE30714D4A30516D4A30118D4E30131
:100E60001BD4230207D5EB682A68526C920619D569
:100E7000022128009847230716D42B681C6570BDF3
:100E80002800AB689847E6E728006B689847E4E7D6
:100E900003212800EB689847E1E700212800EB6870
:100EA0009847DEE70121E4E704212800EB68984732
:100EB000E3E7C046DC00002043B2002B07DB1F2322
:100EC00018401E3B83408022520001498B507047DE
:100ED00000E100E010B5084B5A685A60074B98478C
:100EE000074B9847074B9847074B9847FF20074BFE
:100EF0009847074B984710BD00400041C9100000BB
:100F0000E51000002D100000211100000910000064
:100F1000150F00009022D205137802218B43137025
:100F2000704710B582B0EFF31083019372B690232F
:100F3000DB051A78012422431A709860D960902347
:100F4000DB051B79DB07FAD49023DB051869019BCD
:100F500083F3108802B010BD10B582B0EFF3108398
:100F6000019372B69023DB051A780124A2431A700C
:100F70009860D9609023DB051B79DB07FAD49023B6
:100F8000DB051869019B83F3108802B010BD0000D7
:100F900010B582B0EFF31083019372B69023DB0596
:100FA0001A78012422431A709860D9609023DB05D7
:100FB0001B79DB07FAD4044B18685968019B83F34B
:100FC000108802B010BDC0461000004810B582B0B5
:100FD000EFF31083019372B69023DB051A78012496
:100FE000A2431A709860D9609023DB051B79DB0758
:100FF000FAD4044B18685968019B83F3108802B037
:1010000010BDC04610000048C30707D5044A054B71
:101010001A62044B5A68044B1A42FAD17047C04610
:1010200006010100001C0040FD0700000122014BE9
:101030001A7170470008004070B505000C000028C8
:101040001CD0104B99421BD0002046220E490F4B5A
:1010500098472C6162689E23134063600C4B1D60AF
:101060000C4B402280215A50BFF34F8FBFF36F8F3C
:101070000131FF315A501A60002070BD0020E4E7B2
:101080000120E2E700400041B8320000CD0B000033
:101090000801002000E100E010B50A4B1868036960
:1010A0001A7DD20704D50368002B00D0984710BDE5
:1010B0001A7D9207FBD502221A754368002BF6D0E1
:1010C0009847F4E708010020054AD3691B0A1B0270
:1010D000F82149010B40D361002313617047C046DA
:1010E000001400400D4B02221A7509325A750B4B41
:1010F0009B695B07FBD4094B9B695B07FBD4072209
:10110000064B9A75054BDB68DB06FBD5034A137D5E
:10111000802149420B43DBB2137570470010004039
:1011200070470000024B9C466044800AC0B2704782
:1011300000FCFFBD10B50B4B9847020000200028B3
:1011400006D0094A09490020094B9847002010BDE4
:1011500083001B189900074BCB5C9A42F7D00130F3
:10116000C0B2ECE7251100003A020000283300006D
:10117000CD0B0000D832000070B50400384B984702
:10118000E369DB071DD483001B189A00354B9B18BD
:101190005A681C231A40E3699B07FCD123689B070C
:1011A00009D5236802218B432360E3699B07FCD1A7
:1011B000E3699B07FCD4012313432360E3699B0786
:1011C000FCD1E369DB07FCD483001B189A00254B94
:1011D0009B185B682360E3699B07FCD183001B18A5
:1011E0009A00204B9B189B686360E3695B07FCD106
:1011F00083001B189A001B4B9B185B689A040BD446
:10120000C022D201134207D183001B189A00154B4C
:101210009B189B89A38115E083001B189A00114934
:1012200089188A89A389D204D20C5B0B5B03134310
:10123000A3818B7B07221A40A3895203DB04DB0CBA
:101240001343A381074A83001D18A9000D005118FC
:10125000C97BA1735219127C3023E254002070BD67
:1012600035110000D832000070B505000C00431E97
:101270009841C0B2B4220449044B98472C60200026
:10128000034B984770BDC04628330000CD0B0000CB
:10129000791100000268136802210B431360D369BF
:1012A0009B07FCD17047036889B2198570470368B2
:1012B000188DC0B270470368187E0123184070472C
:1012C00003681B7E5B0801201840704703681B7E83
:1012D0009B0801201840704710B5C3689A7AD2075E
:1012E00000D410BD01229A7203689847F9E7000004
:1012F000034B984200D07047024B1960FBE7C04691
:10130000003000420C01002010B5114B984210D063
:10131000104B9C466044800AC3B2002000280AD0CB
:101320009E2252000C4900200C4B9847012040425D
:1013300010BD0423F1E7820012189100084A8A5C6C
:101340009A4202D00130C0B2E8E740B2F0E7C046AE
:101350000040004200D0FFBD58330000CD0B00001C
:101360004433000070B506000C0008005E4B98473F
:101370000500F4608D225D4901205D4B984723698B
:10138000DB0714D423699B07FCD123689B0709D58D
:10139000236802229343236023699B07FCD12369BE
:1013A0009B07FCD40123236023699B07FCD123699D
:1013B000DB07FCD4AB005B199A004E4B9B185B68B3
:1013C000236023699B07FCD1AA0052199100494B65
:1013D0005B189A7AE2731A89E280012222735A68B2
:1013E0000C231340082B51D0002B5ED1AB005B19AE
:1013F0009A00404B9B189B89A3832369C0221A4201
:10140000FBD10023E3832369C0221A42FBD10123CD
:10141000637231002000384B9847AB005B199A008B
:10142000344B9B185B785BB2002B0BDB1F22134005
:101430001E3A9A401300802230498B50BFF34F8FE1
:10144000BFF36F8FAB005B199A002A4B9B185B7838
:101450005BB2002B08DB1F2213401E3A9A40130098
:10146000C022520025498B50AB005D19AA00214BC8
:101470009B185B785BB2002B06DB1F2213401E3AE1
:101480009A4013001D4A1360002070BD194B5B1871
:10149000DB68E3612369C0221A42FBD10023236287
:1014A0002369C0221A42FBD1B1E7042BAFD1AB00B4
:1014B0005B199A000F4B9B181B7B23772369C02273
:1014C0001A42FBD1002363772369C0221A42FBD161
:1014D000AB005B199A00074B9B18DB7AE376236914
:1014E0009B06FCD493E7C046091300005833000064
:1014F000CD0B000044330000F112000000E100E0D9
:10150000C268136802210B43136013699B07FCD167
:101510007047C26813699B07FCD113685B08012000
:10152000184070470020704710B5C068084B9847B6
:1015300004001022FF3207490120074B9847A00002
:1015400000198200054B9B185878054B984710BD31
:101550000913000058330000CD0B00004433000095
:10156000B90E000010B5024B1868024B984710BD29
:101570000C010020D912000010B5124B9847124BF5
:101580009847124B9847124B9847124B9847124B6B
:101590009847124B98471248124B9847124B98475E
:1015A0000400124B9847124B9847124B9847124B26
:1015B00098470D4B9847001B1428F2D90A4B9847BF
:1015C0000400EEE7AD020000C5020000C102000009
:1015D0006D040000A1040000390200001D0100009C
:1015E0006C3300009120000061040000E50200005F
:1015F000C30200003D0200002D01000010B50B00E9
:10160000002809D111001800054B9847002800DB7D
:1016100010BD01204042FBE701204042F8E7C046F0
:101620007916000010B50B000138022809D8110006
:101630001800054B9847002800DB10BD01204042F0
:10164000FBE701204042F8E79D16000070B5060058
:10165000064D2B6898680021054CA0472B685868F8
:101660000021A047034B1E6070BDC046140000203F
:10167000A52000001001002010B50400054B1868DB
:10168000002804D08AB22100034B984710BD0020E7
:10169000FCE7C046100100205108000010B504000E
:1016A000054B1868002804D08AB22100034B9847E4
:1016B00010BD0020FCE7C046100100201908000002
:1016C00010B5044C2000044B98472000034B98476A
:1016D00010BDC04664010020A10B00004D160000A3
:1016E0008446101C62468C46191C634600E0C046C6
:1016F0001FB500F04BFB002801D40021C8421FBDDC
:1017000010B500F0A5FA4042013010BD10B500F050
:101710003DFB002801DB002010BD012010BDC046AC
:1017200010B500F033FB002801DD002010BD0120C2
:1017300010BDC04610B500F0C5FA002801DC00203D
:1017400010BD012010BDC04610B500F0BBFA002846
:1017500001DA002010BD012010BDC0468446081CDF
:101760006146FFE71FB500F0E1F9002801D4002130
:10177000C8421FBD10B500F073F94042013010BDE2
:1017800010B500F0D3F9002801DB002010BD0120C6
:1017900010BDC04610B500F0C9F9002801DD0020D9
:1017A00010BD012010BDC04610B500F07FF9002823
:1017B00001DC002010BD012010BDC04610B500F0B6
:1017C00075F9002801DA002010BD012010BDC046C7
:1017D000F0B557464E46DE464546E0B54402430066
:1017E000C60F83B00F1C640A1B0EB24653D0FF2BEA
:1017F00027D08022E400D20414437F225242904634
:101800009844002399469B467D027800FB0F6D0AA1
:10181000000E009324D0FF2846D080230021ED0045
:10182000DB041D437F384746381A4F460F43BF003D
:10183000B9463300009A874F53404A46BA5801933D
:101840009746002C4ED108239946F7339846FD3B26
:101850009B467D027800FB0F6D0A000E0093DAD1E3
:10186000002D26D1002001213300009A7A4F5340E9
:101870004246101A4A460A439200BA581D0097463B
:10188000009B2C009A468B465B46022B31D1534677
:10189000FF21002438E0002C17D1042399460023AF
:1018A000984601339B46AFE7FF20002D0BD1022164
:1018B000DAE7280000F01EFB431F9D4076235B42C1
:1018C000181A0021AFE70321ADE7200000F012FB5A
:1018D000431F9C4076235B421B1A9846002399467F
:1018E0009B4691E70C239946F3339846FC3B9B4675
:1018F0008AE7032B00D1A5E05546012B00D081E0FB
:101900000123002100242B406402C905600ADB0783
:101910000843184303B03CBC90469946A246AB46E8
:10192000F0BD80240023E403FF21EDE7FF21002424
:10193000EAE70123591A1B2966DD019A13400021A9
:101940000024E1E78023DB031C4238D01D4251D044
:101950001C436402640A3300FF21D5E763016C0174
:10196000A3423BD21B260021013801251F0049005C
:101970005B00002F01DB9C4201D81B1B2943013E69
:10198000002EF3D11C00631E9C410C4301007F31EB
:101990000029CEDD630704D00F232340042B00D0A1
:1019A0000434230103D501002C4B80311C40FE2957
:1019B0000DDD0123019AFF2113400024A4E78023B9
:1019C000DB031C436402640A3300FF219CE701230C
:1019D000019AA401640AC9B2134095E71B1B1A2699
:1019E0000121C2E7009B8B469A4600244CE7630224
:1019F000E5D500258024E4032C436402640A009B9F
:101A0000FF2181E70195C1E723002020CB40411A47
:101A10008C40611E8C411C43630704D00F2323407C
:101A2000042B00D00434630105D50123019A012160
:101A30001340002468E70123019AA401640A1340BB
:101A4000002161E78023DB031C436402640A5346E0
:101A5000FF2159E790330000D0330000FFFFFFF76C
:101A600070B5420045024E024C00C30F6D0A120EC3
:101A7000760A240EC90F0120FF2A06D0FF2C03D0BE
:101A8000A24201D1B54206D070BD002DFCD1FF2C81
:101A9000FAD1002EF8D18B4206D00120002AF3D1D2
:101AA0002800451EA841EFE70020EDE7F0B5420011
:101AB00045024C02C30F48006D0A120E640A000E64
:101AC000C90FFF2A1ED0FF2821D0002A0AD16E425A
:101AD0006E41F6B200280FD1002C0DD10020002D50
:101AE00009D005E0002801D1002C01D08B4211D093
:101AF000012158420843F0BD002EF7D001200139E2
:101B00000843F8E7002DDED002204042F3E7002C26
:101B1000DBD0F9E78242EBDC04DBA542E8D8002009
:101B2000A542E8D20121581E0843E4E7F0B542007F
:101B30004D024C004602760A120EC30F6D0A240EA7
:101B4000C90FFF2A16D0FF2C18D0002A0AD17042E4
:101B50007041C0B2002C15D0002805D001200139F9
:101B60000843F0BD002C13D0994214D001205B42F1
:101B70001843F6E70220002EF3D1E4E70220002DFF
:101B8000EFD1E2E7002DE7D10020002EE9D0EDE70C
:101B9000002DE9D1EAE7A24206DCDFDBAE4203D842
:101BA0000020AE42DAD3DCE7012049420843D8E7FF
:101BB00070B5002830D0C317C4185C40C50F200092
:101BC00000F098F99E231B1A962B0DDC9622D21A50
:101BD00094402A006402640ADBB26402DB05600AF6
:101BE000D2071843104370BD992B19DC9922D21AE1
:101BF000002A29DD94402200144C1440510704D0DF
:101C00000F210A40042A00D00434620113D4A40135
:101C1000640ADBB22A00E0E7002200230024DCE7AC
:101C200005222100121AD140B922D21A9440621E14
:101C300094410C43DAE7054B2A001C409F23A40182
:101C40001B1A640ADBB2C8E72200D5E7FFFFFFFBDF
:101C5000F0B54F464646D6465C00C0B51F03DB0FC5
:101C60009A46174B0E034D0084468046360B6D0D89
:101C7000C90F91463F0B640D01209D4208D09C4244
:101C800001D0A5420BD01CBC90469946A246F0BD9F
:101C900063463343F7D1AC42F5D13A43F3D1012047
:101CA000BE42F0D1C845EED1514507D0002DEAD152
:101CB00063461E433000461EB041E4E70020E2E7E1
:101CC000FF070000F0B54546DE4657464E46E0B5F4
:101CD0001F033D0B2C4F0E034C00AB465D008446AA
:101CE000360B640DC90F90466D0DDB0FBC422AD038
:101CF000254FBD422DD0002C0FD130430700814627
:101D000078427841C0B2002D17D15F463A4314D1D2
:101D10004B460020002B0AD006E0002D02D1584689
:101D2000024301D0994218D04842012108433CBCEB
:101D300090469946A246AB46F0BD0028F2D001205D
:101D4000013B1843F3E737000743D1D0022040425C
:101D5000EDE75F461743CED0F8E7AC42E4DC03DAA8
:101D6000481E01210843E2E75E45DDD806D0002089
:101D70005E45DCD20123481E1843D8E7C445D3D8BA
:101D80000020C445F6D3D2E7FF070000F0B54E4669
:101D90004546DE4657465C00E0B51F03DB0F99461B
:101DA0002A4B0E034D00C90F8446360B6D0D8B4632
:101DB00090463F0B640D9D4220D0244B9C4222D084
:101DC000002D12D1304343424341DBB2002C1FD0DF
:101DD000002B0CD04B460120013B034318003CBCB8
:101DE00090469946A246AB46F0BD002C16D0CB4596
:101DF00017D05B46594201230B43EFE73100022322
:101E00000143EBD1D9E7390002231143E6D1D7E7EB
:101E10003A43DDD100230028E0D0EAE73A43E6D197
:101E2000E7E7A542E5DC05DBBE42E2D807D00023A8
:101E3000BE42D3D25946012301390B43CEE7C445F4
:101E4000D7D80023C445F5D3C8E7C046FF07000034
:101E50004100090E4B1C70B5DBB24602750AC40F77
:101E6000012B14DDE0239B006D07360BCB180021FE
:101E70000A0D280012051C4D32435B052A405B0801
:101E800013435B00E4075B082343190070BD00297E
:101E900014D1002D1ED0280000F02CF80A281CDCDC
:101EA0000B232A001B1ADA40030015339D400F4B09
:101EB00012031B1A5B05160B5B0DD8E7002D06D02D
:101EC000320B802636036D071643094BCFE7084BCC
:101ED0000026CCE700230026C9E703002A000B3BBD
:101EE0009A400025E3E7C046FFFF0F80890300000A
:101EF000FF0700001C2101231B04984201D3000CA2
:101F000010391B0A984201D3000A08391B0998426C
:101F100001D30009043902A2105C40187047C04682
:101F200004030202010101010000000000000000A2
:101F300070B500260C4D0D4C641BA410A64209D1AF
:101F4000002601F0B1FA0A4D0A4C641BA410A64207
:101F500005D170BDB300EB5898470136EEE7B300EA
:101F6000EB5898470136F2E7B4340000B43400006F
:101F7000B4340000B8340000002310B59A4200D1F8
:101F800010BDCC5CC4540133F8E7030082189342BF
:101F900000D1704719700133F9E700000FB40B4B03
:101FA00013B51C68002C05D0A369002B02D12000BA
:101FB00000F0F2FA05AB049AA1682000019300F04A
:101FC000C7FC16BC08BC04B01847C046140000206B
:101FD00070B505000E00002804D08369002B01D1E4
:101FE00000F0DAFAAB69AC68002B02D1280000F0EF
:101FF000D3FA244B9C420FD16C68A3891B0702D5EE
:102000002369002B20D12100280000F057F9002877
:102010001AD00120404270BD1B4B9C4201D1AC68DC
:10202000EBE71A4B9C42E8D1EC68E6E7013B01364E
:10203000A360002B04DAA269934216DB0A2914D0AC
:1020400023685A1C226019703178A3680029EDD1E9
:10205000013BA360002B0FDA22000A31280000F0B8
:10206000D7F8431CD5D00A20D5E72200280000F07D
:10207000CFF8431CE8D1CCE70A2023685A1C226021
:102080001870C8E7343400005434000014340000E1
:1020900010B5034B01001868FFF79AFF10BDC0464A
:1020A000140000204A424A41802310B55200DB0050
:1020B00000F002F810BD0000F0B51D004F4B85B0D8
:1020C0001E6804000F000092002E05D0B369002B9B
:1020D00002D1300000F060FA494B9C4250D1746844
:1020E000009B022B05D0012B00D984E0002D00DAE3
:1020F00081E02100300000F0E1F9616B002908D097
:1021000023004433994202D0300000F051FB0023F9
:1021100063630023A3616360A3891B0603D5216960
:10212000300000F045FBA389364A1340A381009B91
:10213000022B5AD003AB02AA2100300000F0C2FAF1
:10214000A3891843A081002D24D1029D280000F00E
:1021500025FB0195071E42D1029B0193AB4239D169
:10216000012040420223A2891343A3810023A360DC
:1021700023004733236023610123636105B0F0BD71
:10218000214B9C4201D1B468AAE7204B9C42A7D1C5
:10219000F468A5E7002FD9D0B369002B02D1300035
:1021A00000F0FAF9009B012B03D1A389009A1A438E
:1021B000A2810820A389276027616561184018D093
:1021C000012018400023984211D06D42A360A56100
:1021D0001800D3E7019800F0E1FA071EC0D0802371
:1021E000A289019D1343A381D6E70020BAE7A56029
:1021F000C4E7A060C2E701204042BFE7140000200E
:10220000343400005CF3FFFF543400001434000049
:10221000F8B505000E001400002804D08369002BD7
:1022200001D100F0B9F9224B9C422DD16C68A36911
:10223000A360A3891B0731D52369002B2ED0236807
:102240002269F7B2981A6369F6B2984205DB210059
:10225000280000F033F9002826D1A3680130013BA3
:10226000A36023685A1C22601F706369984204D0DF
:10227000A389DB071AD50A2E18D12100280000F007
:102280001DF9002812D00FE00A4B9C4201D1AC6826
:10229000CDE7094B9C42CAD1EC68C8E72100280071
:1022A00000F00CF80028CAD0012676423000F8BDB4
:1022B000343400005434000014340000364B70B540
:1022C0001D6806000C00002D05D0AB69002B02D163
:1022D000280000F061F9314B9C420FD16C680C234F
:1022E000E25E93B219072DD4D90611D40923012037
:1022F000336037331343A381404270BD284B9C4267
:1023000001D1AC68EBE7274B9C42E8D1EC68E6E7EB
:102310005B0713D5616B002908D023004433994231
:1023200002D0300000F044FA002363632422A38922
:102330009343A38100236360236923600823A28958
:102340001343A3812369002B0BD1A0218022A389F1
:10235000890092000B40934203D02100300000F02E
:10236000D9F90123A289134011D00023A360636926
:102370005B42A361002023698342BED10C23E25E4D
:102380001306BAD540231343A3810138B5E792075A
:1023900000D46369A360EDE714000020343400002A
:1023A0005434000014340000F7B58A8905000C008D
:1023B000130760D44B68002B04DC0B6C002B01DC92
:1023C0000020FEBDE76A002FFAD000232E682B60A4
:1023D00080235B011A4034D0606DA3895B0706D56A
:1023E0006368C01A636B002B01D0236CC01A020013
:1023F000216A00232800E76AB847A189431C06D157
:102400002B681D2B31D82C4ADA40D3072DD5002359
:10241000636023692360CB0405D5431C02D12B687C
:10242000002B00D16065616B2E600029C8D02300AD
:102430004433994202D0280000F0BAF900206063CA
:10244000BFE70123216A2800B847431CC5D12B6888
:10245000002BC2D01D2B01D0162B01D12E60AFE76F
:102460004023A2891343A381ABE740230B43012000
:10247000A3814042A5E70F69002FA1D00B680F6030
:10248000DB1B01930023920700D14B69A360019BE2
:10249000002B00DC94E7019B3A00216A2800A66A21
:1024A000B047002803DC4023A2891343DFE7019BE8
:1024B0003F181B1A0193EAE7010040200B6970B531
:1024C00005000C00002B01D1002070BD002804D0B5
:1024D0008369002B01D100F05FF80B4B9C4209D1BE
:1024E0006C680C22A35E002BEED021002800FFF7C1
:1024F0005BFFEAE7054B9C4201D1AC68F1E7044B76
:102500009C42EED1EC68ECE7343400005434000017
:102510001434000010B5024900F0B2F810BDC046F6
:10252000BD240000002310B50400036043608360F5
:1025300081814366C281036143618361190008227E
:102540005C30FFF722FD054B24626362044BA362FB
:10255000044BE362044B236310BDC046BD2E000054
:10256000E52E00001D2F0000492F000070B56825E2
:102570004A1E55430E002900743100F063F9041E11
:1025800008D000212A00016046600C30A06068324B
:10259000FFF7FBFC200070BD836913B50400002B1E
:1025A00028D18364C3640365134B144A1B68826299
:1025B0000193984201D101238361200000F020F8AB
:1025C0006060200000F01CF8A060200000F018F807
:1025D0000022E06004216068FFF7A4FF01220921C6
:1025E000A068FFF79FFF02221221E068FFF79AFF21
:1025F0000123A36113BDC04610340000152500005F
:10260000F8B51E4B07001E68B369002B02D13000DD
:10261000FFF7C2FF4836B4687368013B04D53368DE
:10262000002B07D03668F6E70C22A55E002D0DD0F2
:102630006834F2E704213800FFF798FF3060002883
:10264000F0D10C2304003B602000F8BD01232000E2
:102650005B42E3810233A38165662560A560656006
:1026600025616561A561082229005C30FFF78DFCBA
:102670006563A563A564E564E6E7C0461034000021
:10268000F7B504000700002601914834002C01D161
:102690003000FEBD6368A5680093009B013B00937A
:1026A00001D52468F2E7AB89012B08D90E22AB5E75
:1026B000013304D029003800019B98470643683550
:1026C000EBE7000070B50E001D000E23C95E90B050
:1026D0001400002907DA00232B60B3891B0611D4EC
:1026E0008023DB000FE001AA00F05AFC0028F2DB97
:1026F000F022029B12021340054A9B185A42534192
:102700002B60EDE740230020236010B070BDC04671
:1027100000E0FFFFF7B502268B8905000C0033426D
:1027200006D0230047332360236101236361F7BD93
:1027300001AB6A46FFF7C6FF00990700280000F0CA
:1027400081F8002808D10C22A35E9A05EFD4032259
:1027500093431E43A681E4E70F4BAB628023A2891B
:1027600020601343A381009B20616361019B002BC8
:102770000DD00E23E15E280000F024FC002806D0D6
:102780000322A38993431A0001231343A381A08941
:102790003843A081CBE7C0461525000010B5034B98
:1027A0000100186800F04EF810BDC046140000206B
:1027B00070B50500002910D00C1F2368002B00DA2B
:1027C000E418280000F02FFC1D4A1368002B05D1E7
:1027D00063601460280000F027FC70BDA34209D993
:1027E000216860188342F3D118685B684118216042
:1027F000EEE713005A68002A01D0A242F9D91968FD
:102800005818A0420BD12068091858181960824244
:10281000E0D110685268411819605A60DAE7A042A6
:1028200002D90C232B60D5E721686018824203D1BE
:10283000106852684118216062605C60CAE7C04657
:1028400014010020032370B5CD1C9D4308350600FC
:102850000C2D1ED20C25A9421DD8300000F0E3FB40
:10286000254A14682100002919D1244C2368002B23
:1028700003D1300000F010FB20602900300000F090
:102880000BFB431C2CD10C233000336000F0CCFB3D
:1028900003E0002DDFDA0C233360002070BD0B68ED
:1028A0005B1B1AD40B2B03D90B60CC18256003E0FB
:1028B0008C420ED163681360300000F0B5FB20003D
:1028C00007220B30231D9043C31AE7D05A42E2502F
:1028D000E4E74B6863600C00EEE70C004968C2E770
:1028E0000323C41C9C43A042E0D0211A300000F016
:1028F000D3FA431CDAD1C6E71401002018010020E6
:10290000936810B5013B9360002B05DA9469A342EC
:1029100008DBCBB20A2B05D01368581C1060197065
:10292000C8B210BDFFF774FCFBE7F8B506000F0056
:102930001400D518AC4201D1002007E021783A00FC
:102940003000FFF7DDFF0134431CF3D1F8BD000078
:10295000F0B59FB006000F0014000593002804D0C6
:102960008369002B01D1FFF717FE7F4B9F425CD19B
:102970007768BB891B0762D53B69002B5FD00023BA
:1029800006AD6B6120336B761033AB760294029CFC
:102990002378002B5DD1029BE31A04930DD0049B96
:1029A000029A39003000FFF7C0FF431C00D1CCE091
:1029B0006A69049B944663446B612378002B00D1C1
:1029C000C3E00122002352426A6002A95432521825
:1029D00001342B60EB60AB601370AB65217805228E
:1029E000624800F015FB631C9C46002835D129681D
:1029F000CB0604D5532302AA20309B1818700B076E
:102A000004D553232B2002AA9B18187023782A2B55
:102A10002CD000200A21099B2278303A092A00D8BC
:102A20006BE000282AD0099328E0514B9F4201D146
:102A3000B7689EE74F4B9F429BD1F76899E73900F3
:102A40003000FFF73BFC002899D0012040421FB026
:102A5000F0BD252B9FD001349AE7444B2968C01A5A
:102A6000012383400B432B606446B7E7059B181D89
:102A70001B680590002B3ADB0993644623782E2BC4
:102A80000BD16378621C2A2B3FD1059B02341A1D9F
:102A90001B680592002B35DB07932178032236480B
:102AA00000F0B6FA002807D0334B2A68C01A40233A
:102AB000834013432B6001342178631C06222F4886
:102AC0000293297600F0A4FA002844D02C4B002B66
:102AD0002FD12968059B0722C90528D59B18934348
:102AE000083305936B69039A9B186B614FE75B4250
:102AF000EB6002230B432B60BFE74B4301349B1871
:102B0000012089E701235B42C6E7002314000A2065
:102B10001A006B6021783039092903D9002BBCD009
:102B20000792BAE74243013452180123F2E7073310
:102B3000D5E705AB00933A00124B2900300000E0C6
:102B400000BF0390039B0133CCD1BB895B0600D54A
:102B50007BE70B987BE705AB00933A00094B290014
:102B6000300000F07FF8ECE73434000074340000EB
:102B700054340000143400007A3400007E34000025
:102B8000000000002B290000F7B5150001938A68AA
:102B90000B6900900C00934200DA130022002B60B6
:102BA00043321278002A01D001332B6023689B0640
:102BB00002D52B6802332B60062723681F4027D0DD
:102BC000230043331B785A1E93412268920630D467
:102BD0002200019943320098089EB047431C25D03B
:102BE000062320682A68E16803400025042B03D1EE
:102BF0008D1AEB43DB171D40A3682269934201DD68
:102C00009B1AED180027BD4220D1002010E00137AB
:102C1000E3682A689B1A9F42D2DA22000123193204
:102C200001990098089EB047431CF0D10120404212
:102C3000FEBD3020E1184331087021005A1C453197
:102C40000978A218433202331170C1E72200012330
:102C50001A3201990098089EB047431CE6D001370C
:102C6000D1E70000F0B58BB006920A00433207931B
:102C7000059004920A7E0C00109B6E2A00D18FE012
:102C800017D8632A2CD008D8002A00D199E0582AF6
:102C900054D026004236327029E0642A01D0692AD5
:102CA000F7D121681A68080623D5111D1960156827
:102CB00025E0732A00D188E008D86F2A29D0702A2D
:102CC000E7D1202209680A43226003E0752A20D058
:102CD000782ADED122007821453211706C4A30E02A
:102CE0000E001A684236111D1960136833700123F3
:102CF00079E04906D9D5111D19600023D55E002D54
:102D000003DA2D23049A6D421370624B0A27039352
:102D10002FE020681968050603D5081D18600D68A6
:102D200005E04006F9D50D68081D1860ADB2594B95
:102D3000082703936F2A18D00A2716E045310A7036
:102D4000544A03921A682168101D18601568080615
:102D500022D5CB0702D52023194321601027002D4F
:102D600003D1202322689A432260230000224333A8
:102D70001A706368A360002B5CDB04222168914316
:102D80002160002D58D1049E002B64D02600039BA7
:102D900042361B7833705EE04806DAD5ADB2D8E72C
:102DA00009681A68080605D5111D1960136862695B
:102DB0001A6006E04906F7D5111D19601368A28A4A
:102DC0001A800023049E236154E01A68111D1960C3
:102DD000166800216268300000F01AF9002801D05E
:102DE000801B6060636823610023049A137041E0D4
:102DF0002369320006990598079DA847431C43D0D4
:102E0000236800259B070FD4099BE06898423DDAB0
:102E100018003BE022000123193206990598079E0D
:102E2000B047431C30D00135E368099A9B1A9D4294
:102E3000F0DBE9E7002DA9D0049E28003900FEF759
:102E4000C5F8039B013E5B5C280033703900FEF738
:102E500083F8051EF1D1082F09D12368DB0706D5B9
:102E600063682269934202DC3023013E3370049B85
:102E70009B1B2361079B09AA00932100069B0598D1
:102E8000FFF782FE431CB3D1012040420BB0F0BDDE
:102E90009634000085340000002370B5064C050010
:102EA00008002360FDF7C6FE431C03D12368002BF6
:102EB00000D02B6070BDC046CC01002070B50C0066
:102EC0000E25495F00F0B2F8002803DB636D1B1884
:102ED000636570BDA389024A1340A381F9E7C04628
:102EE000FFEFFFFFF8B51F008B8905000C001600EF
:102EF000DB0505D50E23C95E0022022300F074F81D
:102F0000A389054A28001340A38132000E23E15E05
:102F10003B0000F01FF8F8BDFFEFFFFF70B50C009D
:102F20000E25495F00F060F8A389421C03D1054AD1
:102F30001340A38170BD802252011343A3816065B9
:102F4000F8E7C046FFEFFFFF10B50E23C95E00F0A3
:102F500015F810BD70B50500080011000022064CE0
:102F600022601A00FEF75EFB431C03D12368002B8E
:102F700000D02B6070BDC046CC010020002370B58E
:102F8000064C050008002360FDF766FE431C03D1D4
:102F90002368002B00D02B6070BDC046CC01002000
:102FA000002370B5064C0500080011002360FDF7F2
:102FB00056FE431C03D12368002B00D02B6070BD4C
:102FC000CC010020002370B5064C050008002360EA
:102FD000FDF74AFE431C03D12368002B00D02B6071
:102FE00070BDC046CC01002070B50500080011007E
:102FF0000022064C22601A00FDF738FE431C03D164
:103000002368002B00D02B6070BDC046CC0100208F
:10301000C9B28218904201D10020704703788B42D8
:10302000FBD00130F6E770477047000070B505002F
:10303000080011000022064C22601A00FEF7DEFA9A
:10304000431C03D12368002B00D02B6070BDC04609
:10305000CC0100205B5232445D20486175746520CC
:1030600054656E73696F6E2064657465637465651D
:103070002E0D00005B5232445D2044656D6172721A
:103080006167652076616C6964652E0D0000000043
:103090005B5232445D20526561647920746F204434
:1030A00072697665206163746976652E0D00000093
:1030B0005B5232445D205365637572697465203AD2
:1030C00020436F7570757265204861757465205472
:1030D000656E73696F6E2C207265746F75722061F6
:1030E000206C276574617420696E697469616C2E47
:1030F0000D0000005B43414E2052585D204D65732A
:1031000073616765207265637520212049443A2008
:10311000307825303358207C20444C433A202564B5
:10312000207C20446174613A200000002530325830
:10313000200000002D3E204D65737361676520639C
:10314000616E20646520746573747320523244206C
:103150007265637520210D005B5232445D20457419
:10316000617420647520534443203A204665726D93
:10317000E9200D005B5232445D2045746174206487
:103180007520534443203A204F7576657274200DA4
:10319000000000005B5232445D20436F6D6D616E34
:1031A00064652074726163746976652073797374E1
:1031B000656D203A205453206F6E200D00000000F2
:1031C0005B5232445D20436F6D6D616E64652074A7
:1031D000726163746976652073797374656D203AE2
:1031E000205453206F6666200D00000054656E73F6
:1031F000696F6E204443204F6E64756C6575722054
:103200003A2025642E256420560D0A002E2E2F68A4
:10321000616C2F7372632F68616C5F63616E5F61B5
:1032200073796E632E6300002E2E2F68616C2F73EE
:1032300072632F68616C5F666C6173682E63000057
:103240002E2E2F68616C2F7372632F68616C5F691B
:103250006F2E63002E2E2F68616C2F7372632F68A0
:10326000616C5F74696D65722E6300002E2E2F688D
:10327000616C2F7372632F68616C5F757361727418
:103280005F73796E632E63002E2E2F68616C2F752D
:1032900074696C732F7372632F7574696C735F6CD0
:1032A0006973742E63000000000102030405060721
:1032B000080C1014182030402E2E2F68706C2F6EC2
:1032C000766D6374726C2F68706C5F6E766D63746C
:1032D000726C2E6300000000040000000400314006
:1032E000000003002BF600000000000000000000BA
:1032F00000000000000000000000000000000000CE
:1033000000000000000000000000000000000000BD
:1033100000000000000000000000000000000000AD
:1033200000000000000000002E2E2F68706C2F732C
:103330006572636F6D2F68706C5F736572636F6D1C
:103340002E630000001400000803000000000000CD
:10335000F4010000000000002E2E2F68706C2F7406
:10336000632F68706C5F74632E63000056435520B2
:10337000455053412032303236202D20496E697439
:1033800069616C69736174696F6E204F4B0D000049
:103390005C1900002C1900003E1900008018000084
:1033A0003E190000221900003E190000801800009C
:1033B0002C1900002C1900002219000080180000B0
:1033C00088180000881800008818000044190000C0
:1033D0002C1900002C19000000190000E41900004D
:1033E000001900002219000000190000E419000073
:1033F0002C1900002C19000022190000E41900000B
:10340000881800008818000088180000EE190000D5
:103410001800002000000000000000000000000074
:10342000000000000000000000000000000000009C
:10343000000000000000000000000000000000008C
:10344000000000000000000000000000000000007C
:10345000000000000000000000000000000000006C
:10346000000000000000000000000000000000005C
:1034700000000000232D302B2000686C4C00656696
:1034800067454647003031323334353637383941B5
:1034900042434445460030313233343536373839CB
:1034A0006162636465660000F8B5C046F8BC08BC9C
:1034B0009E467047E5000000F8B5C046F8BC08BC61
:0834C0009E467047BD000000AC
:1034C8008C010020AC010020E0000020F00000206A
:1034D800F80000201800002000000000343400002C
:1034E8005434000014340000000000000000000004
:1034F80000000000000000000000000000000000C4
:1035080000000000000000000000000000000000B3
:1035180000000000000000000000000000000000A3
:103528000000000000000000000000000000000093
:0835380000000000000000008B
:00000001FF
